{
	"contracts/NarutoTokenSale.sol": {
		"NarutoTokenSale": {
			"abi": [
				{
					"inputs": [
						{
							"internalType": "address",
							"name": "_narutoTokenAddress",
							"type": "address"
						},
						{
							"internalType": "address",
							"name": "_usdtAddress",
							"type": "address"
						}
					],
					"stateMutability": "nonpayable",
					"type": "constructor"
				},
				{
					"inputs": [
						{
							"internalType": "address",
							"name": "owner",
							"type": "address"
						}
					],
					"name": "OwnableInvalidOwner",
					"type": "error"
				},
				{
					"inputs": [
						{
							"internalType": "address",
							"name": "account",
							"type": "address"
						}
					],
					"name": "OwnableUnauthorizedAccount",
					"type": "error"
				},
				{
					"inputs": [],
					"name": "ReentrancyGuardReentrantCall",
					"type": "error"
				},
				{
					"anonymous": false,
					"inputs": [
						{
							"indexed": true,
							"internalType": "address",
							"name": "previousOwner",
							"type": "address"
						},
						{
							"indexed": true,
							"internalType": "address",
							"name": "newOwner",
							"type": "address"
						}
					],
					"name": "OwnershipTransferred",
					"type": "event"
				},
				{
					"anonymous": false,
					"inputs": [
						{
							"indexed": false,
							"internalType": "uint256",
							"name": "oldPrice",
							"type": "uint256"
						},
						{
							"indexed": false,
							"internalType": "uint256",
							"name": "newPrice",
							"type": "uint256"
						}
					],
					"name": "TokenPriceUpdated",
					"type": "event"
				},
				{
					"anonymous": false,
					"inputs": [
						{
							"indexed": true,
							"internalType": "address",
							"name": "buyer",
							"type": "address"
						},
						{
							"indexed": false,
							"internalType": "uint256",
							"name": "amount",
							"type": "uint256"
						}
					],
					"name": "TokensPurchased",
					"type": "event"
				},
				{
					"anonymous": false,
					"inputs": [
						{
							"indexed": true,
							"internalType": "address",
							"name": "owner",
							"type": "address"
						},
						{
							"indexed": false,
							"internalType": "uint256",
							"name": "amount",
							"type": "uint256"
						}
					],
					"name": "TokensWithdrawn",
					"type": "event"
				},
				{
					"anonymous": false,
					"inputs": [
						{
							"indexed": true,
							"internalType": "address",
							"name": "owner",
							"type": "address"
						},
						{
							"indexed": false,
							"internalType": "uint256",
							"name": "amount",
							"type": "uint256"
						}
					],
					"name": "USDTWithdrawn",
					"type": "event"
				},
				{
					"inputs": [],
					"name": "getNarutoTokenBalance",
					"outputs": [
						{
							"internalType": "uint256",
							"name": "",
							"type": "uint256"
						}
					],
					"stateMutability": "view",
					"type": "function"
				},
				{
					"inputs": [],
					"name": "getUSDTBalance",
					"outputs": [
						{
							"internalType": "uint256",
							"name": "",
							"type": "uint256"
						}
					],
					"stateMutability": "view",
					"type": "function"
				},
				{
					"inputs": [],
					"name": "narutoToken",
					"outputs": [
						{
							"internalType": "contract IERC20",
							"name": "",
							"type": "address"
						}
					],
					"stateMutability": "view",
					"type": "function"
				},
				{
					"inputs": [],
					"name": "owner",
					"outputs": [
						{
							"internalType": "address",
							"name": "",
							"type": "address"
						}
					],
					"stateMutability": "view",
					"type": "function"
				},
				{
					"inputs": [
						{
							"internalType": "uint256",
							"name": "usdtAmount",
							"type": "uint256"
						}
					],
					"name": "purchaseTokens",
					"outputs": [],
					"stateMutability": "nonpayable",
					"type": "function"
				},
				{
					"inputs": [],
					"name": "renounceOwnership",
					"outputs": [],
					"stateMutability": "nonpayable",
					"type": "function"
				},
				{
					"inputs": [],
					"name": "tokenPrice",
					"outputs": [
						{
							"internalType": "uint256",
							"name": "",
							"type": "uint256"
						}
					],
					"stateMutability": "view",
					"type": "function"
				},
				{
					"inputs": [
						{
							"internalType": "address",
							"name": "newOwner",
							"type": "address"
						}
					],
					"name": "transferOwnership",
					"outputs": [],
					"stateMutability": "nonpayable",
					"type": "function"
				},
				{
					"inputs": [
						{
							"internalType": "uint256",
							"name": "newPrice",
							"type": "uint256"
						}
					],
					"name": "updatePrice",
					"outputs": [],
					"stateMutability": "nonpayable",
					"type": "function"
				},
				{
					"inputs": [],
					"name": "usdtToken",
					"outputs": [
						{
							"internalType": "contract IERC20",
							"name": "",
							"type": "address"
						}
					],
					"stateMutability": "view",
					"type": "function"
				},
				{
					"inputs": [
						{
							"internalType": "uint256",
							"name": "amount",
							"type": "uint256"
						}
					],
					"name": "withdrawNarutoTokens",
					"outputs": [],
					"stateMutability": "nonpayable",
					"type": "function"
				},
				{
					"inputs": [
						{
							"internalType": "uint256",
							"name": "amount",
							"type": "uint256"
						}
					],
					"name": "withdrawUSDT",
					"outputs": [],
					"stateMutability": "nonpayable",
					"type": "function"
				}
			],
			"devdoc": {
				"details": "A token sale contract for exchanging USDT for Naruto tokens at a 1:1 ratio.      This contract allows buyers to purchase Naruto tokens with USDT,       and the owner can withdraw collected USDT or remaining Naruto tokens.",
				"errors": {
					"OwnableInvalidOwner(address)": [
						{
							"details": "The owner is not a valid owner account. (eg. `address(0)`)"
						}
					],
					"OwnableUnauthorizedAccount(address)": [
						{
							"details": "The caller account is not authorized to perform an operation."
						}
					],
					"ReentrancyGuardReentrantCall()": [
						{
							"details": "Unauthorized reentrant call."
						}
					]
				},
				"events": {
					"TokenPriceUpdated(uint256,uint256)": {
						"details": "Emitted when the owner changes the price of Naruto tokens from the contract.",
						"params": {
							"newPrice": "The new price of Naruto tokens.",
							"oldPrice": "The old price of Naruto tokens."
						}
					},
					"TokensPurchased(address,uint256)": {
						"details": "Emitted when tokens are purchased by a buyer.",
						"params": {
							"amount": "The amount of tokens purchased.",
							"buyer": "The address of the buyer."
						}
					},
					"TokensWithdrawn(address,uint256)": {
						"details": "Emitted when the owner withdraws Naruto tokens from the contract.",
						"params": {
							"amount": "The amount of Naruto tokens withdrawn.",
							"owner": "The address of the contract owner."
						}
					},
					"USDTWithdrawn(address,uint256)": {
						"details": "Emitted when the owner withdraws USDT from the contract.",
						"params": {
							"amount": "The amount of USDT withdrawn.",
							"owner": "The address of the contract owner."
						}
					}
				},
				"kind": "dev",
				"methods": {
					"constructor": {
						"details": "Initializes the contract with the Naruto token and USDT token addresses.",
						"params": {
							"_narutoTokenAddress": "The address of the Naruto token contract.",
							"_usdtAddress": "The address of the USDT token contract."
						}
					},
					"getNarutoTokenBalance()": {
						"details": "Returns the current Naruto token balance in the contract.",
						"returns": {
							"_0": "The Naruto token balance of the contract."
						}
					},
					"getUSDTBalance()": {
						"details": "Returns the current USDT balance in the contract.",
						"returns": {
							"_0": "The USDT balance of the contract."
						}
					},
					"owner()": {
						"details": "Returns the address of the current owner."
					},
					"purchaseTokens(uint256)": {
						"details": "Allows a user to purchase Naruto tokens with USDT at a 1:1 ratio.",
						"params": {
							"usdtAmount": "The amount of USDT to spend. Requirements: - `usdtAmount` must be greater than 0. - Contract must have sufficient Naruto token balance."
						}
					},
					"renounceOwnership()": {
						"details": "Leaves the contract without owner. It will not be possible to call `onlyOwner` functions. Can only be called by the current owner. NOTE: Renouncing ownership will leave the contract without an owner, thereby disabling any functionality that is only available to the owner."
					},
					"transferOwnership(address)": {
						"details": "Transfers ownership of the contract to a new account (`newOwner`). Can only be called by the current owner."
					},
					"updatePrice(uint256)": {
						"details": "Update the price of NarutoTokens in terms of USDT",
						"params": {
							"newPrice": "New price of one NarutoToken in USDT"
						}
					},
					"withdrawNarutoTokens(uint256)": {
						"details": "Allows the owner to withdraw Naruto tokens remaining in the contract.",
						"params": {
							"amount": "The amount of Naruto tokens to withdraw. Requirements: - `amount` must be greater than 0. - Contract must have sufficient Naruto token balance."
						}
					},
					"withdrawUSDT(uint256)": {
						"details": "Allows the owner to withdraw USDT collected in the contract.",
						"params": {
							"amount": "The amount of USDT to withdraw. Requirements: - `amount` must be greater than 0. - Contract must have sufficient USDT balance."
						}
					}
				},
				"title": "NarutoTokenSale",
				"version": 1
			},
			"evm": {
				"assembly": "    /* \"contracts/NarutoTokenSale.sol\":512:6039  contract NarutoTokenSale is Ownable, ReentrancyGuard {... */\n  mstore(0x40, 0x80)\n    /* \"contracts/NarutoTokenSale.sol\":2127:2495  constructor(... */\n  callvalue\n  dup1\n  iszero\n  tag_1\n  jumpi\n  0x00\n  dup1\n  revert\ntag_1:\n  pop\n  mload(0x40)\n  sub(codesize, bytecodeSize)\n  dup1\n  bytecodeSize\n  dup4\n  codecopy\n  dup2\n  dup2\n  add\n  0x40\n  mstore\n  dup2\n  add\n  swap1\n  tag_2\n  swap2\n  swap1\n  tag_3\n  jump\t// in\ntag_2:\n    /* \"contracts/NarutoTokenSale.sol\":2223:2233  msg.sender */\n  caller\n    /* \"@openzeppelin/contracts/access/Ownable.sol\":1297:1298  0 */\n  0x00\n    /* \"@openzeppelin/contracts/access/Ownable.sol\":1273:1299  initialOwner == address(0) */\n  0xffffffffffffffffffffffffffffffffffffffff\n  and\n    /* \"@openzeppelin/contracts/access/Ownable.sol\":1273:1285  initialOwner */\n  dup2\n    /* \"@openzeppelin/contracts/access/Ownable.sol\":1273:1299  initialOwner == address(0) */\n  0xffffffffffffffffffffffffffffffffffffffff\n  and\n  sub\n    /* \"@openzeppelin/contracts/access/Ownable.sol\":1269:1364  if (initialOwner == address(0)) {... */\n  tag_8\n  jumpi\n    /* \"@openzeppelin/contracts/access/Ownable.sol\":1350:1351  0 */\n  0x00\n    /* \"@openzeppelin/contracts/access/Ownable.sol\":1322:1353  OwnableInvalidOwner(address(0)) */\n  mload(0x40)\n  0x1e4fbdf700000000000000000000000000000000000000000000000000000000\n  dup2\n  mstore\n  0x04\n  add\n  tag_9\n  swap2\n  swap1\n  tag_10\n  jump\t// in\ntag_9:\n  mload(0x40)\n  dup1\n  swap2\n  sub\n  swap1\n  revert\n    /* \"@openzeppelin/contracts/access/Ownable.sol\":1269:1364  if (initialOwner == address(0)) {... */\ntag_8:\n    /* \"@openzeppelin/contracts/access/Ownable.sol\":1373:1405  _transferOwnership(initialOwner) */\n  tag_11\n    /* \"@openzeppelin/contracts/access/Ownable.sol\":1392:1404  initialOwner */\n  dup2\n    /* \"@openzeppelin/contracts/access/Ownable.sol\":1373:1391  _transferOwnership */\n  shl(0x20, tag_12)\n    /* \"@openzeppelin/contracts/access/Ownable.sol\":1373:1405  _transferOwnership(initialOwner) */\n  0x20\n  shr\n  jump\t// in\ntag_11:\n    /* \"@openzeppelin/contracts/access/Ownable.sol\":1225:1412  constructor(address initialOwner) {... */\n  pop\n    /* \"@openzeppelin/contracts/utils/ReentrancyGuard.sol\":1857:1858  1 */\n  0x01\n    /* \"@openzeppelin/contracts/utils/ReentrancyGuard.sol\":2061:2068  _status */\n  dup1\n    /* \"@openzeppelin/contracts/utils/ReentrancyGuard.sol\":2061:2082  _status = NOT_ENTERED */\n  dup2\n  swap1\n  sstore\n  pop\n    /* \"contracts/NarutoTokenSale.sol\":2285:2286  0 */\n  0x00\n    /* \"contracts/NarutoTokenSale.sol\":2254:2287  _narutoTokenAddress != address(0) */\n  0xffffffffffffffffffffffffffffffffffffffff\n  and\n    /* \"contracts/NarutoTokenSale.sol\":2254:2273  _narutoTokenAddress */\n  dup3\n    /* \"contracts/NarutoTokenSale.sol\":2254:2287  _narutoTokenAddress != address(0) */\n  0xffffffffffffffffffffffffffffffffffffffff\n  and\n  sub\n    /* \"contracts/NarutoTokenSale.sol\":2246:2320  require(_narutoTokenAddress != address(0), \"Invalid Naruto token address\") */\n  tag_15\n  jumpi\n  mload(0x40)\n  0x08c379a000000000000000000000000000000000000000000000000000000000\n  dup2\n  mstore\n  0x04\n  add\n  tag_16\n  swap1\n  tag_17\n  jump\t// in\ntag_16:\n  mload(0x40)\n  dup1\n  swap2\n  sub\n  swap1\n  revert\ntag_15:\n    /* \"contracts/NarutoTokenSale.sol\":2363:2364  0 */\n  0x00\n    /* \"contracts/NarutoTokenSale.sol\":2339:2365  _usdtAddress != address(0) */\n  0xffffffffffffffffffffffffffffffffffffffff\n  and\n    /* \"contracts/NarutoTokenSale.sol\":2339:2351  _usdtAddress */\n  dup2\n    /* \"contracts/NarutoTokenSale.sol\":2339:2365  _usdtAddress != address(0) */\n  0xffffffffffffffffffffffffffffffffffffffff\n  and\n  sub\n    /* \"contracts/NarutoTokenSale.sol\":2331:2390  require(_usdtAddress != address(0), \"Invalid USDT address\") */\n  tag_18\n  jumpi\n  mload(0x40)\n  0x08c379a000000000000000000000000000000000000000000000000000000000\n  dup2\n  mstore\n  0x04\n  add\n  tag_19\n  swap1\n  tag_20\n  jump\t// in\ntag_19:\n  mload(0x40)\n  dup1\n  swap2\n  sub\n  swap1\n  revert\ntag_18:\n    /* \"contracts/NarutoTokenSale.sol\":2424:2443  _narutoTokenAddress */\n  dup2\n    /* \"contracts/NarutoTokenSale.sol\":2403:2414  narutoToken */\n  0x02\n  0x00\n    /* \"contracts/NarutoTokenSale.sol\":2403:2444  narutoToken = IERC20(_narutoTokenAddress) */\n  0x0100\n  exp\n  dup2\n  sload\n  dup2\n  0xffffffffffffffffffffffffffffffffffffffff\n  mul\n  not\n  and\n  swap1\n  dup4\n  0xffffffffffffffffffffffffffffffffffffffff\n  and\n  mul\n  or\n  swap1\n  sstore\n  pop\n    /* \"contracts/NarutoTokenSale.sol\":2474:2486  _usdtAddress */\n  dup1\n    /* \"contracts/NarutoTokenSale.sol\":2455:2464  usdtToken */\n  0x03\n  0x00\n    /* \"contracts/NarutoTokenSale.sol\":2455:2487  usdtToken = IERC20(_usdtAddress) */\n  0x0100\n  exp\n  dup2\n  sload\n  dup2\n  0xffffffffffffffffffffffffffffffffffffffff\n  mul\n  not\n  and\n  swap1\n  dup4\n  0xffffffffffffffffffffffffffffffffffffffff\n  and\n  mul\n  or\n  swap1\n  sstore\n  pop\n    /* \"contracts/NarutoTokenSale.sol\":2127:2495  constructor(... */\n  pop\n  pop\n    /* \"contracts/NarutoTokenSale.sol\":512:6039  contract NarutoTokenSale is Ownable, ReentrancyGuard {... */\n  jump(tag_21)\n    /* \"@openzeppelin/contracts/access/Ownable.sol\":2912:3099  function _transferOwnership(address newOwner) internal virtual {... */\ntag_12:\n    /* \"@openzeppelin/contracts/access/Ownable.sol\":2985:3001  address oldOwner */\n  0x00\n    /* \"@openzeppelin/contracts/access/Ownable.sol\":3004:3010  _owner */\n  dup1\n  0x00\n  swap1\n  sload\n  swap1\n  0x0100\n  exp\n  swap1\n  div\n  0xffffffffffffffffffffffffffffffffffffffff\n  and\n    /* \"@openzeppelin/contracts/access/Ownable.sol\":2985:3010  address oldOwner = _owner */\n  swap1\n  pop\n    /* \"@openzeppelin/contracts/access/Ownable.sol\":3029:3037  newOwner */\n  dup2\n    /* \"@openzeppelin/contracts/access/Ownable.sol\":3020:3026  _owner */\n  0x00\n  dup1\n    /* \"@openzeppelin/contracts/access/Ownable.sol\":3020:3037  _owner = newOwner */\n  0x0100\n  exp\n  dup2\n  sload\n  dup2\n  0xffffffffffffffffffffffffffffffffffffffff\n  mul\n  not\n  and\n  swap1\n  dup4\n  0xffffffffffffffffffffffffffffffffffffffff\n  and\n  mul\n  or\n  swap1\n  sstore\n  pop\n    /* \"@openzeppelin/contracts/access/Ownable.sol\":3083:3091  newOwner */\n  dup2\n    /* \"@openzeppelin/contracts/access/Ownable.sol\":3052:3092  OwnershipTransferred(oldOwner, newOwner) */\n  0xffffffffffffffffffffffffffffffffffffffff\n  and\n    /* \"@openzeppelin/contracts/access/Ownable.sol\":3073:3081  oldOwner */\n  dup2\n    /* \"@openzeppelin/contracts/access/Ownable.sol\":3052:3092  OwnershipTransferred(oldOwner, newOwner) */\n  0xffffffffffffffffffffffffffffffffffffffff\n  and\n  0x8be0079c531659141344cd1fd0a4f28419497f9722a3daafe3b4186f6b6457e0\n  mload(0x40)\n  mload(0x40)\n  dup1\n  swap2\n  sub\n  swap1\n  log3\n    /* \"@openzeppelin/contracts/access/Ownable.sol\":2975:3099  {... */\n  pop\n    /* \"@openzeppelin/contracts/access/Ownable.sol\":2912:3099  function _transferOwnership(address newOwner) internal virtual {... */\n  pop\n  jump\t// out\n    /* \"#utility.yul\":88:205   */\ntag_24:\n    /* \"#utility.yul\":197:198   */\n  0x00\n    /* \"#utility.yul\":194:195   */\n  dup1\n    /* \"#utility.yul\":187:199   */\n  revert\n    /* \"#utility.yul\":334:460   */\ntag_26:\n    /* \"#utility.yul\":371:378   */\n  0x00\n    /* \"#utility.yul\":411:453   */\n  0xffffffffffffffffffffffffffffffffffffffff\n    /* \"#utility.yul\":404:409   */\n  dup3\n    /* \"#utility.yul\":400:454   */\n  and\n    /* \"#utility.yul\":389:454   */\n  swap1\n  pop\n    /* \"#utility.yul\":334:460   */\n  swap2\n  swap1\n  pop\n  jump\t// out\n    /* \"#utility.yul\":466:562   */\ntag_27:\n    /* \"#utility.yul\":503:510   */\n  0x00\n    /* \"#utility.yul\":532:556   */\n  tag_42\n    /* \"#utility.yul\":550:555   */\n  dup3\n    /* \"#utility.yul\":532:556   */\n  tag_26\n  jump\t// in\ntag_42:\n    /* \"#utility.yul\":521:556   */\n  swap1\n  pop\n    /* \"#utility.yul\":466:562   */\n  swap2\n  swap1\n  pop\n  jump\t// out\n    /* \"#utility.yul\":568:690   */\ntag_28:\n    /* \"#utility.yul\":641:665   */\n  tag_44\n    /* \"#utility.yul\":659:664   */\n  dup2\n    /* \"#utility.yul\":641:665   */\n  tag_27\n  jump\t// in\ntag_44:\n    /* \"#utility.yul\":634:639   */\n  dup2\n    /* \"#utility.yul\":631:666   */\n  eq\n    /* \"#utility.yul\":621:684   */\n  tag_45\n  jumpi\n    /* \"#utility.yul\":680:681   */\n  0x00\n    /* \"#utility.yul\":677:678   */\n  dup1\n    /* \"#utility.yul\":670:682   */\n  revert\n    /* \"#utility.yul\":621:684   */\ntag_45:\n    /* \"#utility.yul\":568:690   */\n  pop\n  jump\t// out\n    /* \"#utility.yul\":696:839   */\ntag_29:\n    /* \"#utility.yul\":753:758   */\n  0x00\n    /* \"#utility.yul\":784:790   */\n  dup2\n    /* \"#utility.yul\":778:791   */\n  mload\n    /* \"#utility.yul\":769:791   */\n  swap1\n  pop\n    /* \"#utility.yul\":800:833   */\n  tag_47\n    /* \"#utility.yul\":827:832   */\n  dup2\n    /* \"#utility.yul\":800:833   */\n  tag_28\n  jump\t// in\ntag_47:\n    /* \"#utility.yul\":696:839   */\n  swap3\n  swap2\n  pop\n  pop\n  jump\t// out\n    /* \"#utility.yul\":845:1352   */\ntag_3:\n    /* \"#utility.yul\":924:930   */\n  0x00\n    /* \"#utility.yul\":932:938   */\n  dup1\n    /* \"#utility.yul\":981:983   */\n  0x40\n    /* \"#utility.yul\":969:978   */\n  dup4\n    /* \"#utility.yul\":960:967   */\n  dup6\n    /* \"#utility.yul\":956:979   */\n  sub\n    /* \"#utility.yul\":952:984   */\n  slt\n    /* \"#utility.yul\":949:1068   */\n  iszero\n  tag_49\n  jumpi\n    /* \"#utility.yul\":987:1066   */\n  tag_50\n  tag_24\n  jump\t// in\ntag_50:\n    /* \"#utility.yul\":949:1068   */\ntag_49:\n    /* \"#utility.yul\":1107:1108   */\n  0x00\n    /* \"#utility.yul\":1132:1196   */\n  tag_51\n    /* \"#utility.yul\":1188:1195   */\n  dup6\n    /* \"#utility.yul\":1179:1185   */\n  dup3\n    /* \"#utility.yul\":1168:1177   */\n  dup7\n    /* \"#utility.yul\":1164:1186   */\n  add\n    /* \"#utility.yul\":1132:1196   */\n  tag_29\n  jump\t// in\ntag_51:\n    /* \"#utility.yul\":1122:1196   */\n  swap3\n  pop\n    /* \"#utility.yul\":1078:1206   */\n  pop\n    /* \"#utility.yul\":1245:1247   */\n  0x20\n    /* \"#utility.yul\":1271:1335   */\n  tag_52\n    /* \"#utility.yul\":1327:1334   */\n  dup6\n    /* \"#utility.yul\":1318:1324   */\n  dup3\n    /* \"#utility.yul\":1307:1316   */\n  dup7\n    /* \"#utility.yul\":1303:1325   */\n  add\n    /* \"#utility.yul\":1271:1335   */\n  tag_29\n  jump\t// in\ntag_52:\n    /* \"#utility.yul\":1261:1335   */\n  swap2\n  pop\n    /* \"#utility.yul\":1216:1345   */\n  pop\n    /* \"#utility.yul\":845:1352   */\n  swap3\n  pop\n  swap3\n  swap1\n  pop\n  jump\t// out\n    /* \"#utility.yul\":1358:1476   */\ntag_30:\n    /* \"#utility.yul\":1445:1469   */\n  tag_54\n    /* \"#utility.yul\":1463:1468   */\n  dup2\n    /* \"#utility.yul\":1445:1469   */\n  tag_27\n  jump\t// in\ntag_54:\n    /* \"#utility.yul\":1440:1443   */\n  dup3\n    /* \"#utility.yul\":1433:1470   */\n  mstore\n    /* \"#utility.yul\":1358:1476   */\n  pop\n  pop\n  jump\t// out\n    /* \"#utility.yul\":1482:1704   */\ntag_10:\n    /* \"#utility.yul\":1575:1579   */\n  0x00\n    /* \"#utility.yul\":1613:1615   */\n  0x20\n    /* \"#utility.yul\":1602:1611   */\n  dup3\n    /* \"#utility.yul\":1598:1616   */\n  add\n    /* \"#utility.yul\":1590:1616   */\n  swap1\n  pop\n    /* \"#utility.yul\":1626:1697   */\n  tag_56\n    /* \"#utility.yul\":1694:1695   */\n  0x00\n    /* \"#utility.yul\":1683:1692   */\n  dup4\n    /* \"#utility.yul\":1679:1696   */\n  add\n    /* \"#utility.yul\":1670:1676   */\n  dup5\n    /* \"#utility.yul\":1626:1697   */\n  tag_30\n  jump\t// in\ntag_56:\n    /* \"#utility.yul\":1482:1704   */\n  swap3\n  swap2\n  pop\n  pop\n  jump\t// out\n    /* \"#utility.yul\":1710:1879   */\ntag_31:\n    /* \"#utility.yul\":1794:1805   */\n  0x00\n    /* \"#utility.yul\":1828:1834   */\n  dup3\n    /* \"#utility.yul\":1823:1826   */\n  dup3\n    /* \"#utility.yul\":1816:1835   */\n  mstore\n    /* \"#utility.yul\":1868:1872   */\n  0x20\n    /* \"#utility.yul\":1863:1866   */\n  dup3\n    /* \"#utility.yul\":1859:1873   */\n  add\n    /* \"#utility.yul\":1844:1873   */\n  swap1\n  pop\n    /* \"#utility.yul\":1710:1879   */\n  swap3\n  swap2\n  pop\n  pop\n  jump\t// out\n    /* \"#utility.yul\":1885:2063   */\ntag_32:\n    /* \"#utility.yul\":2025:2055   */\n  0x496e76616c6964204e617275746f20746f6b656e206164647265737300000000\n    /* \"#utility.yul\":2021:2022   */\n  0x00\n    /* \"#utility.yul\":2013:2019   */\n  dup3\n    /* \"#utility.yul\":2009:2023   */\n  add\n    /* \"#utility.yul\":2002:2056   */\n  mstore\n    /* \"#utility.yul\":1885:2063   */\n  pop\n  jump\t// out\n    /* \"#utility.yul\":2069:2435   */\ntag_33:\n    /* \"#utility.yul\":2211:2214   */\n  0x00\n    /* \"#utility.yul\":2232:2299   */\n  tag_60\n    /* \"#utility.yul\":2296:2298   */\n  0x1c\n    /* \"#utility.yul\":2291:2294   */\n  dup4\n    /* \"#utility.yul\":2232:2299   */\n  tag_31\n  jump\t// in\ntag_60:\n    /* \"#utility.yul\":2225:2299   */\n  swap2\n  pop\n    /* \"#utility.yul\":2308:2401   */\n  tag_61\n    /* \"#utility.yul\":2397:2400   */\n  dup3\n    /* \"#utility.yul\":2308:2401   */\n  tag_32\n  jump\t// in\ntag_61:\n    /* \"#utility.yul\":2426:2428   */\n  0x20\n    /* \"#utility.yul\":2421:2424   */\n  dup3\n    /* \"#utility.yul\":2417:2429   */\n  add\n    /* \"#utility.yul\":2410:2429   */\n  swap1\n  pop\n    /* \"#utility.yul\":2069:2435   */\n  swap2\n  swap1\n  pop\n  jump\t// out\n    /* \"#utility.yul\":2441:2860   */\ntag_17:\n    /* \"#utility.yul\":2607:2611   */\n  0x00\n    /* \"#utility.yul\":2645:2647   */\n  0x20\n    /* \"#utility.yul\":2634:2643   */\n  dup3\n    /* \"#utility.yul\":2630:2648   */\n  add\n    /* \"#utility.yul\":2622:2648   */\n  swap1\n  pop\n    /* \"#utility.yul\":2694:2703   */\n  dup2\n    /* \"#utility.yul\":2688:2692   */\n  dup2\n    /* \"#utility.yul\":2684:2704   */\n  sub\n    /* \"#utility.yul\":2680:2681   */\n  0x00\n    /* \"#utility.yul\":2669:2678   */\n  dup4\n    /* \"#utility.yul\":2665:2682   */\n  add\n    /* \"#utility.yul\":2658:2705   */\n  mstore\n    /* \"#utility.yul\":2722:2853   */\n  tag_63\n    /* \"#utility.yul\":2848:2852   */\n  dup2\n    /* \"#utility.yul\":2722:2853   */\n  tag_33\n  jump\t// in\ntag_63:\n    /* \"#utility.yul\":2714:2853   */\n  swap1\n  pop\n    /* \"#utility.yul\":2441:2860   */\n  swap2\n  swap1\n  pop\n  jump\t// out\n    /* \"#utility.yul\":2866:3036   */\ntag_34:\n    /* \"#utility.yul\":3006:3028   */\n  0x496e76616c696420555344542061646472657373000000000000000000000000\n    /* \"#utility.yul\":3002:3003   */\n  0x00\n    /* \"#utility.yul\":2994:3000   */\n  dup3\n    /* \"#utility.yul\":2990:3004   */\n  add\n    /* \"#utility.yul\":2983:3029   */\n  mstore\n    /* \"#utility.yul\":2866:3036   */\n  pop\n  jump\t// out\n    /* \"#utility.yul\":3042:3408   */\ntag_35:\n    /* \"#utility.yul\":3184:3187   */\n  0x00\n    /* \"#utility.yul\":3205:3272   */\n  tag_66\n    /* \"#utility.yul\":3269:3271   */\n  0x14\n    /* \"#utility.yul\":3264:3267   */\n  dup4\n    /* \"#utility.yul\":3205:3272   */\n  tag_31\n  jump\t// in\ntag_66:\n    /* \"#utility.yul\":3198:3272   */\n  swap2\n  pop\n    /* \"#utility.yul\":3281:3374   */\n  tag_67\n    /* \"#utility.yul\":3370:3373   */\n  dup3\n    /* \"#utility.yul\":3281:3374   */\n  tag_34\n  jump\t// in\ntag_67:\n    /* \"#utility.yul\":3399:3401   */\n  0x20\n    /* \"#utility.yul\":3394:3397   */\n  dup3\n    /* \"#utility.yul\":3390:3402   */\n  add\n    /* \"#utility.yul\":3383:3402   */\n  swap1\n  pop\n    /* \"#utility.yul\":3042:3408   */\n  swap2\n  swap1\n  pop\n  jump\t// out\n    /* \"#utility.yul\":3414:3833   */\ntag_20:\n    /* \"#utility.yul\":3580:3584   */\n  0x00\n    /* \"#utility.yul\":3618:3620   */\n  0x20\n    /* \"#utility.yul\":3607:3616   */\n  dup3\n    /* \"#utility.yul\":3603:3621   */\n  add\n    /* \"#utility.yul\":3595:3621   */\n  swap1\n  pop\n    /* \"#utility.yul\":3667:3676   */\n  dup2\n    /* \"#utility.yul\":3661:3665   */\n  dup2\n    /* \"#utility.yul\":3657:3677   */\n  sub\n    /* \"#utility.yul\":3653:3654   */\n  0x00\n    /* \"#utility.yul\":3642:3651   */\n  dup4\n    /* \"#utility.yul\":3638:3655   */\n  add\n    /* \"#utility.yul\":3631:3678   */\n  mstore\n    /* \"#utility.yul\":3695:3826   */\n  tag_69\n    /* \"#utility.yul\":3821:3825   */\n  dup2\n    /* \"#utility.yul\":3695:3826   */\n  tag_35\n  jump\t// in\ntag_69:\n    /* \"#utility.yul\":3687:3826   */\n  swap1\n  pop\n    /* \"#utility.yul\":3414:3833   */\n  swap2\n  swap1\n  pop\n  jump\t// out\n    /* \"contracts/NarutoTokenSale.sol\":512:6039  contract NarutoTokenSale is Ownable, ReentrancyGuard {... */\ntag_21:\n  dataSize(sub_0)\n  dup1\n  dataOffset(sub_0)\n  0x00\n  codecopy\n  0x00\n  return\nstop\n\nsub_0: assembly {\n        /* \"contracts/NarutoTokenSale.sol\":512:6039  contract NarutoTokenSale is Ownable, ReentrancyGuard {... */\n      mstore(0x40, 0x80)\n      callvalue\n      dup1\n      iszero\n      tag_1\n      jumpi\n      0x00\n      dup1\n      revert\n    tag_1:\n      pop\n      jumpi(tag_2, lt(calldatasize, 0x04))\n      shr(0xe0, calldataload(0x00))\n      dup1\n      0x8d6cc56d\n      gt\n      tag_15\n      jumpi\n      dup1\n      0x8d6cc56d\n      eq\n      tag_9\n      jumpi\n      dup1\n      0x8da5cb5b\n      eq\n      tag_10\n      jumpi\n      dup1\n      0x9785fac8\n      eq\n      tag_11\n      jumpi\n      dup1\n      0xa98ad46c\n      eq\n      tag_12\n      jumpi\n      dup1\n      0xb042ee53\n      eq\n      tag_13\n      jumpi\n      dup1\n      0xf2fde38b\n      eq\n      tag_14\n      jumpi\n      jump(tag_2)\n    tag_15:\n      dup1\n      0x0f09445f\n      eq\n      tag_3\n      jumpi\n      dup1\n      0x3ea521ef\n      eq\n      tag_4\n      jumpi\n      dup1\n      0x715018a6\n      eq\n      tag_5\n      jumpi\n      dup1\n      0x7b97008d\n      eq\n      tag_6\n      jumpi\n      dup1\n      0x7ff9b596\n      eq\n      tag_7\n      jumpi\n      dup1\n      0x8b4cccb1\n      eq\n      tag_8\n      jumpi\n    tag_2:\n      0x00\n      dup1\n      revert\n        /* \"contracts/NarutoTokenSale.sol\":5911:6036  function getNarutoTokenBalance() public view returns (uint256) {... */\n    tag_3:\n      tag_16\n      tag_17\n      jump\t// in\n    tag_16:\n      mload(0x40)\n      tag_18\n      swap2\n      swap1\n      tag_19\n      jump\t// in\n    tag_18:\n      mload(0x40)\n      dup1\n      swap2\n      sub\n      swap1\n      return\n        /* \"contracts/NarutoTokenSale.sol\":4294:4733  function withdrawUSDT(uint256 amount) external onlyOwner nonReentrant {... */\n    tag_4:\n      tag_20\n      0x04\n      dup1\n      calldatasize\n      sub\n      dup2\n      add\n      swap1\n      tag_21\n      swap2\n      swap1\n      tag_22\n      jump\t// in\n    tag_21:\n      tag_23\n      jump\t// in\n    tag_20:\n      stop\n        /* \"@openzeppelin/contracts/access/Ownable.sol\":2293:2394  function renounceOwnership() public virtual onlyOwner {... */\n    tag_5:\n      tag_24\n      tag_25\n      jump\t// in\n    tag_24:\n      stop\n        /* \"contracts/NarutoTokenSale.sol\":2786:3649  function purchaseTokens(uint256 usdtAmount) external nonReentrant {... */\n    tag_6:\n      tag_26\n      0x04\n      dup1\n      calldatasize\n      sub\n      dup2\n      add\n      swap1\n      tag_27\n      swap2\n      swap1\n      tag_22\n      jump\t// in\n    tag_27:\n      tag_28\n      jump\t// in\n    tag_26:\n      stop\n        /* \"contracts/NarutoTokenSale.sol\":761:786  uint256 public tokenPrice */\n    tag_7:\n      tag_29\n      tag_30\n      jump\t// in\n    tag_29:\n      mload(0x40)\n      tag_31\n      swap2\n      swap1\n      tag_19\n      jump\t// in\n    tag_31:\n      mload(0x40)\n      dup1\n      swap2\n      sub\n      swap1\n      return\n        /* \"contracts/NarutoTokenSale.sol\":614:639  IERC20 public narutoToken */\n    tag_8:\n      tag_32\n      tag_33\n      jump\t// in\n    tag_32:\n      mload(0x40)\n      tag_34\n      swap2\n      swap1\n      tag_35\n      jump\t// in\n    tag_34:\n      mload(0x40)\n      dup1\n      swap2\n      sub\n      swap1\n      return\n        /* \"contracts/NarutoTokenSale.sol\":3783:4021  function updatePrice(uint256 newPrice) external onlyOwner {... */\n    tag_9:\n      tag_36\n      0x04\n      dup1\n      calldatasize\n      sub\n      dup2\n      add\n      swap1\n      tag_37\n      swap2\n      swap1\n      tag_22\n      jump\t// in\n    tag_37:\n      tag_38\n      jump\t// in\n    tag_36:\n      stop\n        /* \"@openzeppelin/contracts/access/Ownable.sol\":1638:1723  function owner() public view virtual returns (address) {... */\n    tag_10:\n      tag_39\n      tag_40\n      jump\t// in\n    tag_39:\n      mload(0x40)\n      tag_41\n      swap2\n      swap1\n      tag_42\n      jump\t// in\n    tag_41:\n      mload(0x40)\n      dup1\n      swap2\n      sub\n      swap1\n      return\n        /* \"contracts/NarutoTokenSale.sol\":5640:5756  function getUSDTBalance() public view returns (uint256) {... */\n    tag_11:\n      tag_43\n      tag_44\n      jump\t// in\n    tag_43:\n      mload(0x40)\n      tag_45\n      swap2\n      swap1\n      tag_19\n      jump\t// in\n    tag_45:\n      mload(0x40)\n      dup1\n      swap2\n      sub\n      swap1\n      return\n        /* \"contracts/NarutoTokenSale.sol\":688:711  IERC20 public usdtToken */\n    tag_12:\n      tag_46\n      tag_47\n      jump\t// in\n    tag_46:\n      mload(0x40)\n      tag_48\n      swap2\n      swap1\n      tag_35\n      jump\t// in\n    tag_48:\n      mload(0x40)\n      dup1\n      swap2\n      sub\n      swap1\n      return\n        /* \"contracts/NarutoTokenSale.sol\":5032:5501  function withdrawNarutoTokens(uint256 amount) external onlyOwner nonReentrant {... */\n    tag_13:\n      tag_49\n      0x04\n      dup1\n      calldatasize\n      sub\n      dup2\n      add\n      swap1\n      tag_50\n      swap2\n      swap1\n      tag_22\n      jump\t// in\n    tag_50:\n      tag_51\n      jump\t// in\n    tag_49:\n      stop\n        /* \"@openzeppelin/contracts/access/Ownable.sol\":2543:2758  function transferOwnership(address newOwner) public virtual onlyOwner {... */\n    tag_14:\n      tag_52\n      0x04\n      dup1\n      calldatasize\n      sub\n      dup2\n      add\n      swap1\n      tag_53\n      swap2\n      swap1\n      tag_54\n      jump\t// in\n    tag_53:\n      tag_55\n      jump\t// in\n    tag_52:\n      stop\n        /* \"contracts/NarutoTokenSale.sol\":5911:6036  function getNarutoTokenBalance() public view returns (uint256) {... */\n    tag_17:\n        /* \"contracts/NarutoTokenSale.sol\":5965:5972  uint256 */\n      0x00\n        /* \"contracts/NarutoTokenSale.sol\":5992:6003  narutoToken */\n      0x02\n      0x00\n      swap1\n      sload\n      swap1\n      0x0100\n      exp\n      swap1\n      div\n      0xffffffffffffffffffffffffffffffffffffffff\n      and\n        /* \"contracts/NarutoTokenSale.sol\":5992:6013  narutoToken.balanceOf */\n      0xffffffffffffffffffffffffffffffffffffffff\n      and\n      0x70a08231\n        /* \"contracts/NarutoTokenSale.sol\":6022:6026  this */\n      address\n        /* \"contracts/NarutoTokenSale.sol\":5992:6028  narutoToken.balanceOf(address(this)) */\n      mload(0x40)\n      dup3\n      0xffffffff\n      and\n      0xe0\n      shl\n      dup2\n      mstore\n      0x04\n      add\n      tag_57\n      swap2\n      swap1\n      tag_42\n      jump\t// in\n    tag_57:\n      0x20\n      mload(0x40)\n      dup1\n      dup4\n      sub\n      dup2\n      dup7\n      gas\n      staticcall\n      iszero\n      dup1\n      iszero\n      tag_59\n      jumpi\n      returndatasize\n      0x00\n      dup1\n      returndatacopy\n      revert(0x00, returndatasize)\n    tag_59:\n      pop\n      pop\n      pop\n      pop\n      mload(0x40)\n      returndatasize\n      not(0x1f)\n      0x1f\n      dup3\n      add\n      and\n      dup3\n      add\n      dup1\n      0x40\n      mstore\n      pop\n      dup2\n      add\n      swap1\n      tag_60\n      swap2\n      swap1\n      tag_61\n      jump\t// in\n    tag_60:\n        /* \"contracts/NarutoTokenSale.sol\":5985:6028  return narutoToken.balanceOf(address(this)) */\n      swap1\n      pop\n        /* \"contracts/NarutoTokenSale.sol\":5911:6036  function getNarutoTokenBalance() public view returns (uint256) {... */\n      swap1\n      jump\t// out\n        /* \"contracts/NarutoTokenSale.sol\":4294:4733  function withdrawUSDT(uint256 amount) external onlyOwner nonReentrant {... */\n    tag_23:\n        /* \"@openzeppelin/contracts/access/Ownable.sol\":1531:1544  _checkOwner() */\n      tag_63\n        /* \"@openzeppelin/contracts/access/Ownable.sol\":1531:1542  _checkOwner */\n      tag_64\n        /* \"@openzeppelin/contracts/access/Ownable.sol\":1531:1544  _checkOwner() */\n      jump\t// in\n    tag_63:\n        /* \"@openzeppelin/contracts/utils/ReentrancyGuard.sol\":2500:2521  _nonReentrantBefore() */\n      tag_66\n        /* \"@openzeppelin/contracts/utils/ReentrancyGuard.sol\":2500:2519  _nonReentrantBefore */\n      tag_67\n        /* \"@openzeppelin/contracts/utils/ReentrancyGuard.sol\":2500:2521  _nonReentrantBefore() */\n      jump\t// in\n    tag_66:\n        /* \"contracts/NarutoTokenSale.sol\":4392:4393  0 */\n      0x00\n        /* \"contracts/NarutoTokenSale.sol\":4383:4389  amount */\n      dup2\n        /* \"contracts/NarutoTokenSale.sol\":4383:4393  amount > 0 */\n      gt\n        /* \"contracts/NarutoTokenSale.sol\":4375:4427  require(amount > 0, \"Amount must be greater than 0\") */\n      tag_69\n      jumpi\n      mload(0x40)\n      0x08c379a000000000000000000000000000000000000000000000000000000000\n      dup2\n      mstore\n      0x04\n      add\n      tag_70\n      swap1\n      tag_71\n      jump\t// in\n    tag_70:\n      mload(0x40)\n      dup1\n      swap2\n      sub\n      swap1\n      revert\n    tag_69:\n        /* \"contracts/NarutoTokenSale.sol\":4498:4504  amount */\n      dup1\n        /* \"contracts/NarutoTokenSale.sol\":4460:4469  usdtToken */\n      0x03\n      0x00\n      swap1\n      sload\n      swap1\n      0x0100\n      exp\n      swap1\n      div\n      0xffffffffffffffffffffffffffffffffffffffff\n      and\n        /* \"contracts/NarutoTokenSale.sol\":4460:4479  usdtToken.balanceOf */\n      0xffffffffffffffffffffffffffffffffffffffff\n      and\n      0x70a08231\n        /* \"contracts/NarutoTokenSale.sol\":4488:4492  this */\n      address\n        /* \"contracts/NarutoTokenSale.sol\":4460:4494  usdtToken.balanceOf(address(this)) */\n      mload(0x40)\n      dup3\n      0xffffffff\n      and\n      0xe0\n      shl\n      dup2\n      mstore\n      0x04\n      add\n      tag_72\n      swap2\n      swap1\n      tag_42\n      jump\t// in\n    tag_72:\n      0x20\n      mload(0x40)\n      dup1\n      dup4\n      sub\n      dup2\n      dup7\n      gas\n      staticcall\n      iszero\n      dup1\n      iszero\n      tag_74\n      jumpi\n      returndatasize\n      0x00\n      dup1\n      returndatacopy\n      revert(0x00, returndatasize)\n    tag_74:\n      pop\n      pop\n      pop\n      pop\n      mload(0x40)\n      returndatasize\n      not(0x1f)\n      0x1f\n      dup3\n      add\n      and\n      dup3\n      add\n      dup1\n      0x40\n      mstore\n      pop\n      dup2\n      add\n      swap1\n      tag_75\n      swap2\n      swap1\n      tag_61\n      jump\t// in\n    tag_75:\n        /* \"contracts/NarutoTokenSale.sol\":4460:4504  usdtToken.balanceOf(address(this)) >= amount */\n      lt\n      iszero\n        /* \"contracts/NarutoTokenSale.sol\":4438:4557  require(... */\n      tag_76\n      jumpi\n      mload(0x40)\n      0x08c379a000000000000000000000000000000000000000000000000000000000\n      dup2\n      mstore\n      0x04\n      add\n      tag_77\n      swap1\n      tag_78\n      jump\t// in\n    tag_77:\n      mload(0x40)\n      dup1\n      swap2\n      sub\n      swap1\n      revert\n    tag_76:\n        /* \"contracts/NarutoTokenSale.sol\":4592:4601  usdtToken */\n      0x03\n      0x00\n      swap1\n      sload\n      swap1\n      0x0100\n      exp\n      swap1\n      div\n      0xffffffffffffffffffffffffffffffffffffffff\n      and\n        /* \"contracts/NarutoTokenSale.sol\":4592:4610  usdtToken.transfer */\n      0xffffffffffffffffffffffffffffffffffffffff\n      and\n      0xa9059cbb\n        /* \"contracts/NarutoTokenSale.sol\":4611:4618  owner() */\n      tag_79\n        /* \"contracts/NarutoTokenSale.sol\":4611:4616  owner */\n      tag_40\n        /* \"contracts/NarutoTokenSale.sol\":4611:4618  owner() */\n      jump\t// in\n    tag_79:\n        /* \"contracts/NarutoTokenSale.sol\":4620:4626  amount */\n      dup4\n        /* \"contracts/NarutoTokenSale.sol\":4592:4627  usdtToken.transfer(owner(), amount) */\n      mload(0x40)\n      dup4\n      0xffffffff\n      and\n      0xe0\n      shl\n      dup2\n      mstore\n      0x04\n      add\n      tag_80\n      swap3\n      swap2\n      swap1\n      tag_81\n      jump\t// in\n    tag_80:\n      0x20\n      mload(0x40)\n      dup1\n      dup4\n      sub\n      dup2\n      0x00\n      dup8\n      gas\n      call\n      iszero\n      dup1\n      iszero\n      tag_83\n      jumpi\n      returndatasize\n      0x00\n      dup1\n      returndatacopy\n      revert(0x00, returndatasize)\n    tag_83:\n      pop\n      pop\n      pop\n      pop\n      mload(0x40)\n      returndatasize\n      not(0x1f)\n      0x1f\n      dup3\n      add\n      and\n      dup3\n      add\n      dup1\n      0x40\n      mstore\n      pop\n      dup2\n      add\n      swap1\n      tag_84\n      swap2\n      swap1\n      tag_85\n      jump\t// in\n    tag_84:\n        /* \"contracts/NarutoTokenSale.sol\":4570:4677  require(... */\n      tag_86\n      jumpi\n      mload(0x40)\n      0x08c379a000000000000000000000000000000000000000000000000000000000\n      dup2\n      mstore\n      0x04\n      add\n      tag_87\n      swap1\n      tag_88\n      jump\t// in\n    tag_87:\n      mload(0x40)\n      dup1\n      swap2\n      sub\n      swap1\n      revert\n    tag_86:\n        /* \"contracts/NarutoTokenSale.sol\":4709:4716  owner() */\n      tag_89\n        /* \"contracts/NarutoTokenSale.sol\":4709:4714  owner */\n      tag_40\n        /* \"contracts/NarutoTokenSale.sol\":4709:4716  owner() */\n      jump\t// in\n    tag_89:\n        /* \"contracts/NarutoTokenSale.sol\":4695:4725  USDTWithdrawn(owner(), amount) */\n      0xffffffffffffffffffffffffffffffffffffffff\n      and\n      0xb0bd88cdae83f74f918eb6bf26d99dcb3c1530530f339233b029e3b6a00ac50b\n        /* \"contracts/NarutoTokenSale.sol\":4718:4724  amount */\n      dup3\n        /* \"contracts/NarutoTokenSale.sol\":4695:4725  USDTWithdrawn(owner(), amount) */\n      mload(0x40)\n      tag_90\n      swap2\n      swap1\n      tag_19\n      jump\t// in\n    tag_90:\n      mload(0x40)\n      dup1\n      swap2\n      sub\n      swap1\n      log2\n        /* \"@openzeppelin/contracts/utils/ReentrancyGuard.sol\":2542:2562  _nonReentrantAfter() */\n      tag_91\n        /* \"@openzeppelin/contracts/utils/ReentrancyGuard.sol\":2542:2560  _nonReentrantAfter */\n      tag_92\n        /* \"@openzeppelin/contracts/utils/ReentrancyGuard.sol\":2542:2562  _nonReentrantAfter() */\n      jump\t// in\n    tag_91:\n        /* \"contracts/NarutoTokenSale.sol\":4294:4733  function withdrawUSDT(uint256 amount) external onlyOwner nonReentrant {... */\n      pop\n      jump\t// out\n        /* \"@openzeppelin/contracts/access/Ownable.sol\":2293:2394  function renounceOwnership() public virtual onlyOwner {... */\n    tag_25:\n        /* \"@openzeppelin/contracts/access/Ownable.sol\":1531:1544  _checkOwner() */\n      tag_94\n        /* \"@openzeppelin/contracts/access/Ownable.sol\":1531:1542  _checkOwner */\n      tag_64\n        /* \"@openzeppelin/contracts/access/Ownable.sol\":1531:1544  _checkOwner() */\n      jump\t// in\n    tag_94:\n        /* \"@openzeppelin/contracts/access/Ownable.sol\":2357:2387  _transferOwnership(address(0)) */\n      tag_96\n        /* \"@openzeppelin/contracts/access/Ownable.sol\":2384:2385  0 */\n      0x00\n        /* \"@openzeppelin/contracts/access/Ownable.sol\":2357:2375  _transferOwnership */\n      tag_97\n        /* \"@openzeppelin/contracts/access/Ownable.sol\":2357:2387  _transferOwnership(address(0)) */\n      jump\t// in\n    tag_96:\n        /* \"@openzeppelin/contracts/access/Ownable.sol\":2293:2394  function renounceOwnership() public virtual onlyOwner {... */\n      jump\t// out\n        /* \"contracts/NarutoTokenSale.sol\":2786:3649  function purchaseTokens(uint256 usdtAmount) external nonReentrant {... */\n    tag_28:\n        /* \"@openzeppelin/contracts/utils/ReentrancyGuard.sol\":2500:2521  _nonReentrantBefore() */\n      tag_99\n        /* \"@openzeppelin/contracts/utils/ReentrancyGuard.sol\":2500:2519  _nonReentrantBefore */\n      tag_67\n        /* \"@openzeppelin/contracts/utils/ReentrancyGuard.sol\":2500:2521  _nonReentrantBefore() */\n      jump\t// in\n    tag_99:\n        /* \"contracts/NarutoTokenSale.sol\":2894:2895  0 */\n      0x00\n        /* \"contracts/NarutoTokenSale.sol\":2881:2891  usdtAmount */\n      dup2\n        /* \"contracts/NarutoTokenSale.sol\":2881:2895  usdtAmount > 0 */\n      gt\n        /* \"contracts/NarutoTokenSale.sol\":2873:2929  require(usdtAmount > 0, \"Amount must be greater than 0\") */\n      tag_101\n      jumpi\n      mload(0x40)\n      0x08c379a000000000000000000000000000000000000000000000000000000000\n      dup2\n      mstore\n      0x04\n      add\n      tag_102\n      swap1\n      tag_71\n      jump\t// in\n    tag_102:\n      mload(0x40)\n      dup1\n      swap2\n      sub\n      swap1\n      revert\n    tag_101:\n        /* \"contracts/NarutoTokenSale.sol\":3002:3012  usdtAmount */\n      dup1\n        /* \"contracts/NarutoTokenSale.sol\":2962:2973  narutoToken */\n      0x02\n      0x00\n      swap1\n      sload\n      swap1\n      0x0100\n      exp\n      swap1\n      div\n      0xffffffffffffffffffffffffffffffffffffffff\n      and\n        /* \"contracts/NarutoTokenSale.sol\":2962:2983  narutoToken.balanceOf */\n      0xffffffffffffffffffffffffffffffffffffffff\n      and\n      0x70a08231\n        /* \"contracts/NarutoTokenSale.sol\":2992:2996  this */\n      address\n        /* \"contracts/NarutoTokenSale.sol\":2962:2998  narutoToken.balanceOf(address(this)) */\n      mload(0x40)\n      dup3\n      0xffffffff\n      and\n      0xe0\n      shl\n      dup2\n      mstore\n      0x04\n      add\n      tag_103\n      swap2\n      swap1\n      tag_42\n      jump\t// in\n    tag_103:\n      0x20\n      mload(0x40)\n      dup1\n      dup4\n      sub\n      dup2\n      dup7\n      gas\n      staticcall\n      iszero\n      dup1\n      iszero\n      tag_105\n      jumpi\n      returndatasize\n      0x00\n      dup1\n      returndatacopy\n      revert(0x00, returndatasize)\n    tag_105:\n      pop\n      pop\n      pop\n      pop\n      mload(0x40)\n      returndatasize\n      not(0x1f)\n      0x1f\n      dup3\n      add\n      and\n      dup3\n      add\n      dup1\n      0x40\n      mstore\n      pop\n      dup2\n      add\n      swap1\n      tag_106\n      swap2\n      swap1\n      tag_61\n      jump\t// in\n    tag_106:\n        /* \"contracts/NarutoTokenSale.sol\":2962:3012  narutoToken.balanceOf(address(this)) >= usdtAmount */\n      lt\n      iszero\n        /* \"contracts/NarutoTokenSale.sol\":2940:3078  require(... */\n      tag_107\n      jumpi\n      mload(0x40)\n      0x08c379a000000000000000000000000000000000000000000000000000000000\n      dup2\n      mstore\n      0x04\n      add\n      tag_108\n      swap1\n      tag_109\n      jump\t// in\n    tag_108:\n      mload(0x40)\n      dup1\n      swap2\n      sub\n      swap1\n      revert\n    tag_107:\n        /* \"contracts/NarutoTokenSale.sol\":3153:3172  uint256 tokensToBuy */\n      0x00\n        /* \"contracts/NarutoTokenSale.sol\":3188:3198  tokenPrice */\n      sload(0x04)\n        /* \"contracts/NarutoTokenSale.sol\":3175:3185  usdtAmount */\n      dup3\n        /* \"contracts/NarutoTokenSale.sol\":3175:3198  usdtAmount / tokenPrice */\n      tag_110\n      swap2\n      swap1\n      tag_111\n      jump\t// in\n    tag_110:\n        /* \"contracts/NarutoTokenSale.sol\":3153:3198  uint256 tokensToBuy = usdtAmount / tokenPrice */\n      swap1\n      pop\n        /* \"contracts/NarutoTokenSale.sol\":3282:3291  usdtToken */\n      0x03\n      0x00\n      swap1\n      sload\n      swap1\n      0x0100\n      exp\n      swap1\n      div\n      0xffffffffffffffffffffffffffffffffffffffff\n      and\n        /* \"contracts/NarutoTokenSale.sol\":3282:3304  usdtToken.transferFrom */\n      0xffffffffffffffffffffffffffffffffffffffff\n      and\n      0x23b872dd\n        /* \"contracts/NarutoTokenSale.sol\":3305:3315  msg.sender */\n      caller\n        /* \"contracts/NarutoTokenSale.sol\":3325:3329  this */\n      address\n        /* \"contracts/NarutoTokenSale.sol\":3332:3342  usdtAmount */\n      dup6\n        /* \"contracts/NarutoTokenSale.sol\":3282:3343  usdtToken.transferFrom(msg.sender, address(this), usdtAmount) */\n      mload(0x40)\n      dup5\n      0xffffffff\n      and\n      0xe0\n      shl\n      dup2\n      mstore\n      0x04\n      add\n      tag_112\n      swap4\n      swap3\n      swap2\n      swap1\n      tag_113\n      jump\t// in\n    tag_112:\n      0x20\n      mload(0x40)\n      dup1\n      dup4\n      sub\n      dup2\n      0x00\n      dup8\n      gas\n      call\n      iszero\n      dup1\n      iszero\n      tag_115\n      jumpi\n      returndatasize\n      0x00\n      dup1\n      returndatacopy\n      revert(0x00, returndatasize)\n    tag_115:\n      pop\n      pop\n      pop\n      pop\n      mload(0x40)\n      returndatasize\n      not(0x1f)\n      0x1f\n      dup3\n      add\n      and\n      dup3\n      add\n      dup1\n      0x40\n      mstore\n      pop\n      dup2\n      add\n      swap1\n      tag_116\n      swap2\n      swap1\n      tag_85\n      jump\t// in\n    tag_116:\n        /* \"contracts/NarutoTokenSale.sol\":3260:3391  require(... */\n      tag_117\n      jumpi\n      mload(0x40)\n      0x08c379a000000000000000000000000000000000000000000000000000000000\n      dup2\n      mstore\n      0x04\n      add\n      tag_118\n      swap1\n      tag_119\n      jump\t// in\n    tag_118:\n      mload(0x40)\n      dup1\n      swap2\n      sub\n      swap1\n      revert\n    tag_117:\n        /* \"contracts/NarutoTokenSale.sol\":3482:3493  narutoToken */\n      0x02\n      0x00\n      swap1\n      sload\n      swap1\n      0x0100\n      exp\n      swap1\n      div\n      0xffffffffffffffffffffffffffffffffffffffff\n      and\n        /* \"contracts/NarutoTokenSale.sol\":3482:3502  narutoToken.transfer */\n      0xffffffffffffffffffffffffffffffffffffffff\n      and\n      0xa9059cbb\n        /* \"contracts/NarutoTokenSale.sol\":3503:3513  msg.sender */\n      caller\n        /* \"contracts/NarutoTokenSale.sol\":3515:3526  tokensToBuy */\n      dup4\n        /* \"contracts/NarutoTokenSale.sol\":3482:3527  narutoToken.transfer(msg.sender, tokensToBuy) */\n      mload(0x40)\n      dup4\n      0xffffffff\n      and\n      0xe0\n      shl\n      dup2\n      mstore\n      0x04\n      add\n      tag_120\n      swap3\n      swap2\n      swap1\n      tag_81\n      jump\t// in\n    tag_120:\n      0x20\n      mload(0x40)\n      dup1\n      dup4\n      sub\n      dup2\n      0x00\n      dup8\n      gas\n      call\n      iszero\n      dup1\n      iszero\n      tag_122\n      jumpi\n      returndatasize\n      0x00\n      dup1\n      returndatacopy\n      revert(0x00, returndatasize)\n    tag_122:\n      pop\n      pop\n      pop\n      pop\n      mload(0x40)\n      returndatasize\n      not(0x1f)\n      0x1f\n      dup3\n      add\n      and\n      dup3\n      add\n      dup1\n      0x40\n      mstore\n      pop\n      dup2\n      add\n      swap1\n      tag_123\n      swap2\n      swap1\n      tag_85\n      jump\t// in\n    tag_123:\n        /* \"contracts/NarutoTokenSale.sol\":3460:3583  require(... */\n      tag_124\n      jumpi\n      mload(0x40)\n      0x08c379a000000000000000000000000000000000000000000000000000000000\n      dup2\n      mstore\n      0x04\n      add\n      tag_125\n      swap1\n      tag_126\n      jump\t// in\n    tag_125:\n      mload(0x40)\n      dup1\n      swap2\n      sub\n      swap1\n      revert\n    tag_124:\n        /* \"contracts/NarutoTokenSale.sol\":3617:3627  msg.sender */\n      caller\n        /* \"contracts/NarutoTokenSale.sol\":3601:3641  TokensPurchased(msg.sender, tokensToBuy) */\n      0xffffffffffffffffffffffffffffffffffffffff\n      and\n      0x8f28852646c20cc973d3a8218f7eefed58c25c909f78f0265af4818c3d4dc271\n        /* \"contracts/NarutoTokenSale.sol\":3629:3640  tokensToBuy */\n      dup3\n        /* \"contracts/NarutoTokenSale.sol\":3601:3641  TokensPurchased(msg.sender, tokensToBuy) */\n      mload(0x40)\n      tag_127\n      swap2\n      swap1\n      tag_19\n      jump\t// in\n    tag_127:\n      mload(0x40)\n      dup1\n      swap2\n      sub\n      swap1\n      log2\n        /* \"contracts/NarutoTokenSale.sol\":2852:3649  {... */\n      pop\n        /* \"@openzeppelin/contracts/utils/ReentrancyGuard.sol\":2542:2562  _nonReentrantAfter() */\n      tag_128\n        /* \"@openzeppelin/contracts/utils/ReentrancyGuard.sol\":2542:2560  _nonReentrantAfter */\n      tag_92\n        /* \"@openzeppelin/contracts/utils/ReentrancyGuard.sol\":2542:2562  _nonReentrantAfter() */\n      jump\t// in\n    tag_128:\n        /* \"contracts/NarutoTokenSale.sol\":2786:3649  function purchaseTokens(uint256 usdtAmount) external nonReentrant {... */\n      pop\n      jump\t// out\n        /* \"contracts/NarutoTokenSale.sol\":761:786  uint256 public tokenPrice */\n    tag_30:\n      sload(0x04)\n      dup2\n      jump\t// out\n        /* \"contracts/NarutoTokenSale.sol\":614:639  IERC20 public narutoToken */\n    tag_33:\n      0x02\n      0x00\n      swap1\n      sload\n      swap1\n      0x0100\n      exp\n      swap1\n      div\n      0xffffffffffffffffffffffffffffffffffffffff\n      and\n      dup2\n      jump\t// out\n        /* \"contracts/NarutoTokenSale.sol\":3783:4021  function updatePrice(uint256 newPrice) external onlyOwner {... */\n    tag_38:\n        /* \"@openzeppelin/contracts/access/Ownable.sol\":1531:1544  _checkOwner() */\n      tag_130\n        /* \"@openzeppelin/contracts/access/Ownable.sol\":1531:1542  _checkOwner */\n      tag_64\n        /* \"@openzeppelin/contracts/access/Ownable.sol\":1531:1544  _checkOwner() */\n      jump\t// in\n    tag_130:\n        /* \"contracts/NarutoTokenSale.sol\":3867:3868  0 */\n      0x00\n        /* \"contracts/NarutoTokenSale.sol\":3856:3864  newPrice */\n      dup2\n        /* \"contracts/NarutoTokenSale.sol\":3856:3868  newPrice > 0 */\n      gt\n        /* \"contracts/NarutoTokenSale.sol\":3848:3904  require(newPrice > 0, \"Price must be greater than zero\") */\n      tag_132\n      jumpi\n      mload(0x40)\n      0x08c379a000000000000000000000000000000000000000000000000000000000\n      dup2\n      mstore\n      0x04\n      add\n      tag_133\n      swap1\n      tag_134\n      jump\t// in\n    tag_133:\n      mload(0x40)\n      dup1\n      swap2\n      sub\n      swap1\n      revert\n    tag_132:\n        /* \"contracts/NarutoTokenSale.sol\":3911:3927  uint256 oldPrice */\n      0x00\n        /* \"contracts/NarutoTokenSale.sol\":3930:3940  tokenPrice */\n      sload(0x04)\n        /* \"contracts/NarutoTokenSale.sol\":3911:3940  uint256 oldPrice = tokenPrice */\n      swap1\n      pop\n        /* \"contracts/NarutoTokenSale.sol\":3960:3968  newPrice */\n      dup2\n        /* \"contracts/NarutoTokenSale.sol\":3947:3957  tokenPrice */\n      0x04\n        /* \"contracts/NarutoTokenSale.sol\":3947:3968  tokenPrice = newPrice */\n      dup2\n      swap1\n      sstore\n      pop\n        /* \"contracts/NarutoTokenSale.sol\":3980:4017  TokenPriceUpdated(oldPrice, newPrice) */\n      0xd9cc159fa79112d02593601db522a6696e6c5c82d9e9ca9332f89ec824935bb0\n        /* \"contracts/NarutoTokenSale.sol\":3998:4006  oldPrice */\n      dup2\n        /* \"contracts/NarutoTokenSale.sol\":4008:4016  newPrice */\n      dup4\n        /* \"contracts/NarutoTokenSale.sol\":3980:4017  TokenPriceUpdated(oldPrice, newPrice) */\n      mload(0x40)\n      tag_135\n      swap3\n      swap2\n      swap1\n      tag_136\n      jump\t// in\n    tag_135:\n      mload(0x40)\n      dup1\n      swap2\n      sub\n      swap1\n      log1\n        /* \"contracts/NarutoTokenSale.sol\":3841:4021  {... */\n      pop\n        /* \"contracts/NarutoTokenSale.sol\":3783:4021  function updatePrice(uint256 newPrice) external onlyOwner {... */\n      pop\n      jump\t// out\n        /* \"@openzeppelin/contracts/access/Ownable.sol\":1638:1723  function owner() public view virtual returns (address) {... */\n    tag_40:\n        /* \"@openzeppelin/contracts/access/Ownable.sol\":1684:1691  address */\n      0x00\n        /* \"@openzeppelin/contracts/access/Ownable.sol\":1710:1716  _owner */\n      dup1\n      0x00\n      swap1\n      sload\n      swap1\n      0x0100\n      exp\n      swap1\n      div\n      0xffffffffffffffffffffffffffffffffffffffff\n      and\n        /* \"@openzeppelin/contracts/access/Ownable.sol\":1703:1716  return _owner */\n      swap1\n      pop\n        /* \"@openzeppelin/contracts/access/Ownable.sol\":1638:1723  function owner() public view virtual returns (address) {... */\n      swap1\n      jump\t// out\n        /* \"contracts/NarutoTokenSale.sol\":5640:5756  function getUSDTBalance() public view returns (uint256) {... */\n    tag_44:\n        /* \"contracts/NarutoTokenSale.sol\":5687:5694  uint256 */\n      0x00\n        /* \"contracts/NarutoTokenSale.sol\":5714:5723  usdtToken */\n      0x03\n      0x00\n      swap1\n      sload\n      swap1\n      0x0100\n      exp\n      swap1\n      div\n      0xffffffffffffffffffffffffffffffffffffffff\n      and\n        /* \"contracts/NarutoTokenSale.sol\":5714:5733  usdtToken.balanceOf */\n      0xffffffffffffffffffffffffffffffffffffffff\n      and\n      0x70a08231\n        /* \"contracts/NarutoTokenSale.sol\":5742:5746  this */\n      address\n        /* \"contracts/NarutoTokenSale.sol\":5714:5748  usdtToken.balanceOf(address(this)) */\n      mload(0x40)\n      dup3\n      0xffffffff\n      and\n      0xe0\n      shl\n      dup2\n      mstore\n      0x04\n      add\n      tag_139\n      swap2\n      swap1\n      tag_42\n      jump\t// in\n    tag_139:\n      0x20\n      mload(0x40)\n      dup1\n      dup4\n      sub\n      dup2\n      dup7\n      gas\n      staticcall\n      iszero\n      dup1\n      iszero\n      tag_141\n      jumpi\n      returndatasize\n      0x00\n      dup1\n      returndatacopy\n      revert(0x00, returndatasize)\n    tag_141:\n      pop\n      pop\n      pop\n      pop\n      mload(0x40)\n      returndatasize\n      not(0x1f)\n      0x1f\n      dup3\n      add\n      and\n      dup3\n      add\n      dup1\n      0x40\n      mstore\n      pop\n      dup2\n      add\n      swap1\n      tag_142\n      swap2\n      swap1\n      tag_61\n      jump\t// in\n    tag_142:\n        /* \"contracts/NarutoTokenSale.sol\":5707:5748  return usdtToken.balanceOf(address(this)) */\n      swap1\n      pop\n        /* \"contracts/NarutoTokenSale.sol\":5640:5756  function getUSDTBalance() public view returns (uint256) {... */\n      swap1\n      jump\t// out\n        /* \"contracts/NarutoTokenSale.sol\":688:711  IERC20 public usdtToken */\n    tag_47:\n      0x03\n      0x00\n      swap1\n      sload\n      swap1\n      0x0100\n      exp\n      swap1\n      div\n      0xffffffffffffffffffffffffffffffffffffffff\n      and\n      dup2\n      jump\t// out\n        /* \"contracts/NarutoTokenSale.sol\":5032:5501  function withdrawNarutoTokens(uint256 amount) external onlyOwner nonReentrant {... */\n    tag_51:\n        /* \"@openzeppelin/contracts/access/Ownable.sol\":1531:1544  _checkOwner() */\n      tag_144\n        /* \"@openzeppelin/contracts/access/Ownable.sol\":1531:1542  _checkOwner */\n      tag_64\n        /* \"@openzeppelin/contracts/access/Ownable.sol\":1531:1544  _checkOwner() */\n      jump\t// in\n    tag_144:\n        /* \"@openzeppelin/contracts/utils/ReentrancyGuard.sol\":2500:2521  _nonReentrantBefore() */\n      tag_146\n        /* \"@openzeppelin/contracts/utils/ReentrancyGuard.sol\":2500:2519  _nonReentrantBefore */\n      tag_67\n        /* \"@openzeppelin/contracts/utils/ReentrancyGuard.sol\":2500:2521  _nonReentrantBefore() */\n      jump\t// in\n    tag_146:\n        /* \"contracts/NarutoTokenSale.sol\":5138:5139  0 */\n      0x00\n        /* \"contracts/NarutoTokenSale.sol\":5129:5135  amount */\n      dup2\n        /* \"contracts/NarutoTokenSale.sol\":5129:5139  amount > 0 */\n      gt\n        /* \"contracts/NarutoTokenSale.sol\":5121:5173  require(amount > 0, \"Amount must be greater than 0\") */\n      tag_148\n      jumpi\n      mload(0x40)\n      0x08c379a000000000000000000000000000000000000000000000000000000000\n      dup2\n      mstore\n      0x04\n      add\n      tag_149\n      swap1\n      tag_71\n      jump\t// in\n    tag_149:\n      mload(0x40)\n      dup1\n      swap2\n      sub\n      swap1\n      revert\n    tag_148:\n        /* \"contracts/NarutoTokenSale.sol\":5246:5252  amount */\n      dup1\n        /* \"contracts/NarutoTokenSale.sol\":5206:5217  narutoToken */\n      0x02\n      0x00\n      swap1\n      sload\n      swap1\n      0x0100\n      exp\n      swap1\n      div\n      0xffffffffffffffffffffffffffffffffffffffff\n      and\n        /* \"contracts/NarutoTokenSale.sol\":5206:5227  narutoToken.balanceOf */\n      0xffffffffffffffffffffffffffffffffffffffff\n      and\n      0x70a08231\n        /* \"contracts/NarutoTokenSale.sol\":5236:5240  this */\n      address\n        /* \"contracts/NarutoTokenSale.sol\":5206:5242  narutoToken.balanceOf(address(this)) */\n      mload(0x40)\n      dup3\n      0xffffffff\n      and\n      0xe0\n      shl\n      dup2\n      mstore\n      0x04\n      add\n      tag_150\n      swap2\n      swap1\n      tag_42\n      jump\t// in\n    tag_150:\n      0x20\n      mload(0x40)\n      dup1\n      dup4\n      sub\n      dup2\n      dup7\n      gas\n      staticcall\n      iszero\n      dup1\n      iszero\n      tag_152\n      jumpi\n      returndatasize\n      0x00\n      dup1\n      returndatacopy\n      revert(0x00, returndatasize)\n    tag_152:\n      pop\n      pop\n      pop\n      pop\n      mload(0x40)\n      returndatasize\n      not(0x1f)\n      0x1f\n      dup3\n      add\n      and\n      dup3\n      add\n      dup1\n      0x40\n      mstore\n      pop\n      dup2\n      add\n      swap1\n      tag_153\n      swap2\n      swap1\n      tag_61\n      jump\t// in\n    tag_153:\n        /* \"contracts/NarutoTokenSale.sol\":5206:5252  narutoToken.balanceOf(address(this)) >= amount */\n      lt\n      iszero\n        /* \"contracts/NarutoTokenSale.sol\":5184:5313  require(... */\n      tag_154\n      jumpi\n      mload(0x40)\n      0x08c379a000000000000000000000000000000000000000000000000000000000\n      dup2\n      mstore\n      0x04\n      add\n      tag_155\n      swap1\n      tag_156\n      jump\t// in\n    tag_155:\n      mload(0x40)\n      dup1\n      swap2\n      sub\n      swap1\n      revert\n    tag_154:\n        /* \"contracts/NarutoTokenSale.sol\":5348:5359  narutoToken */\n      0x02\n      0x00\n      swap1\n      sload\n      swap1\n      0x0100\n      exp\n      swap1\n      div\n      0xffffffffffffffffffffffffffffffffffffffff\n      and\n        /* \"contracts/NarutoTokenSale.sol\":5348:5368  narutoToken.transfer */\n      0xffffffffffffffffffffffffffffffffffffffff\n      and\n      0xa9059cbb\n        /* \"contracts/NarutoTokenSale.sol\":5369:5376  owner() */\n      tag_157\n        /* \"contracts/NarutoTokenSale.sol\":5369:5374  owner */\n      tag_40\n        /* \"contracts/NarutoTokenSale.sol\":5369:5376  owner() */\n      jump\t// in\n    tag_157:\n        /* \"contracts/NarutoTokenSale.sol\":5378:5384  amount */\n      dup4\n        /* \"contracts/NarutoTokenSale.sol\":5348:5385  narutoToken.transfer(owner(), amount) */\n      mload(0x40)\n      dup4\n      0xffffffff\n      and\n      0xe0\n      shl\n      dup2\n      mstore\n      0x04\n      add\n      tag_158\n      swap3\n      swap2\n      swap1\n      tag_81\n      jump\t// in\n    tag_158:\n      0x20\n      mload(0x40)\n      dup1\n      dup4\n      sub\n      dup2\n      0x00\n      dup8\n      gas\n      call\n      iszero\n      dup1\n      iszero\n      tag_160\n      jumpi\n      returndatasize\n      0x00\n      dup1\n      returndatacopy\n      revert(0x00, returndatasize)\n    tag_160:\n      pop\n      pop\n      pop\n      pop\n      mload(0x40)\n      returndatasize\n      not(0x1f)\n      0x1f\n      dup3\n      add\n      and\n      dup3\n      add\n      dup1\n      0x40\n      mstore\n      pop\n      dup2\n      add\n      swap1\n      tag_161\n      swap2\n      swap1\n      tag_85\n      jump\t// in\n    tag_161:\n        /* \"contracts/NarutoTokenSale.sol\":5326:5443  require(... */\n      tag_162\n      jumpi\n      mload(0x40)\n      0x08c379a000000000000000000000000000000000000000000000000000000000\n      dup2\n      mstore\n      0x04\n      add\n      tag_163\n      swap1\n      tag_164\n      jump\t// in\n    tag_163:\n      mload(0x40)\n      dup1\n      swap2\n      sub\n      swap1\n      revert\n    tag_162:\n        /* \"contracts/NarutoTokenSale.sol\":5477:5484  owner() */\n      tag_165\n        /* \"contracts/NarutoTokenSale.sol\":5477:5482  owner */\n      tag_40\n        /* \"contracts/NarutoTokenSale.sol\":5477:5484  owner() */\n      jump\t// in\n    tag_165:\n        /* \"contracts/NarutoTokenSale.sol\":5461:5493  TokensWithdrawn(owner(), amount) */\n      0xffffffffffffffffffffffffffffffffffffffff\n      and\n      0x6352c5382c4a4578e712449ca65e83cdb392d045dfcf1cad9615189db2da244b\n        /* \"contracts/NarutoTokenSale.sol\":5486:5492  amount */\n      dup3\n        /* \"contracts/NarutoTokenSale.sol\":5461:5493  TokensWithdrawn(owner(), amount) */\n      mload(0x40)\n      tag_166\n      swap2\n      swap1\n      tag_19\n      jump\t// in\n    tag_166:\n      mload(0x40)\n      dup1\n      swap2\n      sub\n      swap1\n      log2\n        /* \"@openzeppelin/contracts/utils/ReentrancyGuard.sol\":2542:2562  _nonReentrantAfter() */\n      tag_167\n        /* \"@openzeppelin/contracts/utils/ReentrancyGuard.sol\":2542:2560  _nonReentrantAfter */\n      tag_92\n        /* \"@openzeppelin/contracts/utils/ReentrancyGuard.sol\":2542:2562  _nonReentrantAfter() */\n      jump\t// in\n    tag_167:\n        /* \"contracts/NarutoTokenSale.sol\":5032:5501  function withdrawNarutoTokens(uint256 amount) external onlyOwner nonReentrant {... */\n      pop\n      jump\t// out\n        /* \"@openzeppelin/contracts/access/Ownable.sol\":2543:2758  function transferOwnership(address newOwner) public virtual onlyOwner {... */\n    tag_55:\n        /* \"@openzeppelin/contracts/access/Ownable.sol\":1531:1544  _checkOwner() */\n      tag_169\n        /* \"@openzeppelin/contracts/access/Ownable.sol\":1531:1542  _checkOwner */\n      tag_64\n        /* \"@openzeppelin/contracts/access/Ownable.sol\":1531:1544  _checkOwner() */\n      jump\t// in\n    tag_169:\n        /* \"@openzeppelin/contracts/access/Ownable.sol\":2647:2648  0 */\n      0x00\n        /* \"@openzeppelin/contracts/access/Ownable.sol\":2627:2649  newOwner == address(0) */\n      0xffffffffffffffffffffffffffffffffffffffff\n      and\n        /* \"@openzeppelin/contracts/access/Ownable.sol\":2627:2635  newOwner */\n      dup2\n        /* \"@openzeppelin/contracts/access/Ownable.sol\":2627:2649  newOwner == address(0) */\n      0xffffffffffffffffffffffffffffffffffffffff\n      and\n      sub\n        /* \"@openzeppelin/contracts/access/Ownable.sol\":2623:2714  if (newOwner == address(0)) {... */\n      tag_171\n      jumpi\n        /* \"@openzeppelin/contracts/access/Ownable.sol\":2700:2701  0 */\n      0x00\n        /* \"@openzeppelin/contracts/access/Ownable.sol\":2672:2703  OwnableInvalidOwner(address(0)) */\n      mload(0x40)\n      0x1e4fbdf700000000000000000000000000000000000000000000000000000000\n      dup2\n      mstore\n      0x04\n      add\n      tag_172\n      swap2\n      swap1\n      tag_42\n      jump\t// in\n    tag_172:\n      mload(0x40)\n      dup1\n      swap2\n      sub\n      swap1\n      revert\n        /* \"@openzeppelin/contracts/access/Ownable.sol\":2623:2714  if (newOwner == address(0)) {... */\n    tag_171:\n        /* \"@openzeppelin/contracts/access/Ownable.sol\":2723:2751  _transferOwnership(newOwner) */\n      tag_173\n        /* \"@openzeppelin/contracts/access/Ownable.sol\":2742:2750  newOwner */\n      dup2\n        /* \"@openzeppelin/contracts/access/Ownable.sol\":2723:2741  _transferOwnership */\n      tag_97\n        /* \"@openzeppelin/contracts/access/Ownable.sol\":2723:2751  _transferOwnership(newOwner) */\n      jump\t// in\n    tag_173:\n        /* \"@openzeppelin/contracts/access/Ownable.sol\":2543:2758  function transferOwnership(address newOwner) public virtual onlyOwner {... */\n      pop\n      jump\t// out\n        /* \"@openzeppelin/contracts/access/Ownable.sol\":1796:1958  function _checkOwner() internal view virtual {... */\n    tag_64:\n        /* \"@openzeppelin/contracts/access/Ownable.sol\":1866:1878  _msgSender() */\n      tag_175\n        /* \"@openzeppelin/contracts/access/Ownable.sol\":1866:1876  _msgSender */\n      tag_176\n        /* \"@openzeppelin/contracts/access/Ownable.sol\":1866:1878  _msgSender() */\n      jump\t// in\n    tag_175:\n        /* \"@openzeppelin/contracts/access/Ownable.sol\":1855:1878  owner() != _msgSender() */\n      0xffffffffffffffffffffffffffffffffffffffff\n      and\n        /* \"@openzeppelin/contracts/access/Ownable.sol\":1855:1862  owner() */\n      tag_177\n        /* \"@openzeppelin/contracts/access/Ownable.sol\":1855:1860  owner */\n      tag_40\n        /* \"@openzeppelin/contracts/access/Ownable.sol\":1855:1862  owner() */\n      jump\t// in\n    tag_177:\n        /* \"@openzeppelin/contracts/access/Ownable.sol\":1855:1878  owner() != _msgSender() */\n      0xffffffffffffffffffffffffffffffffffffffff\n      and\n      eq\n        /* \"@openzeppelin/contracts/access/Ownable.sol\":1851:1952  if (owner() != _msgSender()) {... */\n      tag_178\n      jumpi\n        /* \"@openzeppelin/contracts/access/Ownable.sol\":1928:1940  _msgSender() */\n      tag_179\n        /* \"@openzeppelin/contracts/access/Ownable.sol\":1928:1938  _msgSender */\n      tag_176\n        /* \"@openzeppelin/contracts/access/Ownable.sol\":1928:1940  _msgSender() */\n      jump\t// in\n    tag_179:\n        /* \"@openzeppelin/contracts/access/Ownable.sol\":1901:1941  OwnableUnauthorizedAccount(_msgSender()) */\n      mload(0x40)\n      0x118cdaa700000000000000000000000000000000000000000000000000000000\n      dup2\n      mstore\n      0x04\n      add\n      tag_180\n      swap2\n      swap1\n      tag_42\n      jump\t// in\n    tag_180:\n      mload(0x40)\n      dup1\n      swap2\n      sub\n      swap1\n      revert\n        /* \"@openzeppelin/contracts/access/Ownable.sol\":1851:1952  if (owner() != _msgSender()) {... */\n    tag_178:\n        /* \"@openzeppelin/contracts/access/Ownable.sol\":1796:1958  function _checkOwner() internal view virtual {... */\n      jump\t// out\n        /* \"@openzeppelin/contracts/utils/ReentrancyGuard.sol\":2575:2882  function _nonReentrantBefore() private {... */\n    tag_67:\n        /* \"@openzeppelin/contracts/utils/ReentrancyGuard.sol\":1899:1900  2 */\n      0x02\n        /* \"@openzeppelin/contracts/utils/ReentrancyGuard.sol\":2702:2709  _status */\n      sload(0x01)\n        /* \"@openzeppelin/contracts/utils/ReentrancyGuard.sol\":2702:2720  _status == ENTERED */\n      sub\n        /* \"@openzeppelin/contracts/utils/ReentrancyGuard.sol\":2698:2784  if (_status == ENTERED) {... */\n      tag_182\n      jumpi\n        /* \"@openzeppelin/contracts/utils/ReentrancyGuard.sol\":2743:2773  ReentrancyGuardReentrantCall() */\n      mload(0x40)\n      0x3ee5aeb500000000000000000000000000000000000000000000000000000000\n      dup2\n      mstore\n      0x04\n      add\n      mload(0x40)\n      dup1\n      swap2\n      sub\n      swap1\n      revert\n        /* \"@openzeppelin/contracts/utils/ReentrancyGuard.sol\":2698:2784  if (_status == ENTERED) {... */\n    tag_182:\n        /* \"@openzeppelin/contracts/utils/ReentrancyGuard.sol\":1899:1900  2 */\n      0x02\n        /* \"@openzeppelin/contracts/utils/ReentrancyGuard.sol\":2858:2865  _status */\n      0x01\n        /* \"@openzeppelin/contracts/utils/ReentrancyGuard.sol\":2858:2875  _status = ENTERED */\n      dup2\n      swap1\n      sstore\n      pop\n        /* \"@openzeppelin/contracts/utils/ReentrancyGuard.sol\":2575:2882  function _nonReentrantBefore() private {... */\n      jump\t// out\n        /* \"@openzeppelin/contracts/utils/ReentrancyGuard.sol\":2888:3096  function _nonReentrantAfter() private {... */\n    tag_92:\n        /* \"@openzeppelin/contracts/utils/ReentrancyGuard.sol\":1857:1858  1 */\n      0x01\n        /* \"@openzeppelin/contracts/utils/ReentrancyGuard.sol\":3068:3075  _status */\n      dup1\n        /* \"@openzeppelin/contracts/utils/ReentrancyGuard.sol\":3068:3089  _status = NOT_ENTERED */\n      dup2\n      swap1\n      sstore\n      pop\n        /* \"@openzeppelin/contracts/utils/ReentrancyGuard.sol\":2888:3096  function _nonReentrantAfter() private {... */\n      jump\t// out\n        /* \"@openzeppelin/contracts/access/Ownable.sol\":2912:3099  function _transferOwnership(address newOwner) internal virtual {... */\n    tag_97:\n        /* \"@openzeppelin/contracts/access/Ownable.sol\":2985:3001  address oldOwner */\n      0x00\n        /* \"@openzeppelin/contracts/access/Ownable.sol\":3004:3010  _owner */\n      dup1\n      0x00\n      swap1\n      sload\n      swap1\n      0x0100\n      exp\n      swap1\n      div\n      0xffffffffffffffffffffffffffffffffffffffff\n      and\n        /* \"@openzeppelin/contracts/access/Ownable.sol\":2985:3010  address oldOwner = _owner */\n      swap1\n      pop\n        /* \"@openzeppelin/contracts/access/Ownable.sol\":3029:3037  newOwner */\n      dup2\n        /* \"@openzeppelin/contracts/access/Ownable.sol\":3020:3026  _owner */\n      0x00\n      dup1\n        /* \"@openzeppelin/contracts/access/Ownable.sol\":3020:3037  _owner = newOwner */\n      0x0100\n      exp\n      dup2\n      sload\n      dup2\n      0xffffffffffffffffffffffffffffffffffffffff\n      mul\n      not\n      and\n      swap1\n      dup4\n      0xffffffffffffffffffffffffffffffffffffffff\n      and\n      mul\n      or\n      swap1\n      sstore\n      pop\n        /* \"@openzeppelin/contracts/access/Ownable.sol\":3083:3091  newOwner */\n      dup2\n        /* \"@openzeppelin/contracts/access/Ownable.sol\":3052:3092  OwnershipTransferred(oldOwner, newOwner) */\n      0xffffffffffffffffffffffffffffffffffffffff\n      and\n        /* \"@openzeppelin/contracts/access/Ownable.sol\":3073:3081  oldOwner */\n      dup2\n        /* \"@openzeppelin/contracts/access/Ownable.sol\":3052:3092  OwnershipTransferred(oldOwner, newOwner) */\n      0xffffffffffffffffffffffffffffffffffffffff\n      and\n      0x8be0079c531659141344cd1fd0a4f28419497f9722a3daafe3b4186f6b6457e0\n      mload(0x40)\n      mload(0x40)\n      dup1\n      swap2\n      sub\n      swap1\n      log3\n        /* \"@openzeppelin/contracts/access/Ownable.sol\":2975:3099  {... */\n      pop\n        /* \"@openzeppelin/contracts/access/Ownable.sol\":2912:3099  function _transferOwnership(address newOwner) internal virtual {... */\n      pop\n      jump\t// out\n        /* \"@openzeppelin/contracts/utils/Context.sol\":656:752  function _msgSender() internal view virtual returns (address) {... */\n    tag_176:\n        /* \"@openzeppelin/contracts/utils/Context.sol\":709:716  address */\n      0x00\n        /* \"@openzeppelin/contracts/utils/Context.sol\":735:745  msg.sender */\n      caller\n        /* \"@openzeppelin/contracts/utils/Context.sol\":728:745  return msg.sender */\n      swap1\n      pop\n        /* \"@openzeppelin/contracts/utils/Context.sol\":656:752  function _msgSender() internal view virtual returns (address) {... */\n      swap1\n      jump\t// out\n        /* \"#utility.yul\":7:84   */\n    tag_186:\n        /* \"#utility.yul\":44:51   */\n      0x00\n        /* \"#utility.yul\":73:78   */\n      dup2\n        /* \"#utility.yul\":62:78   */\n      swap1\n      pop\n        /* \"#utility.yul\":7:84   */\n      swap2\n      swap1\n      pop\n      jump\t// out\n        /* \"#utility.yul\":90:208   */\n    tag_187:\n        /* \"#utility.yul\":177:201   */\n      tag_231\n        /* \"#utility.yul\":195:200   */\n      dup2\n        /* \"#utility.yul\":177:201   */\n      tag_186\n      jump\t// in\n    tag_231:\n        /* \"#utility.yul\":172:175   */\n      dup3\n        /* \"#utility.yul\":165:202   */\n      mstore\n        /* \"#utility.yul\":90:208   */\n      pop\n      pop\n      jump\t// out\n        /* \"#utility.yul\":214:436   */\n    tag_19:\n        /* \"#utility.yul\":307:311   */\n      0x00\n        /* \"#utility.yul\":345:347   */\n      0x20\n        /* \"#utility.yul\":334:343   */\n      dup3\n        /* \"#utility.yul\":330:348   */\n      add\n        /* \"#utility.yul\":322:348   */\n      swap1\n      pop\n        /* \"#utility.yul\":358:429   */\n      tag_233\n        /* \"#utility.yul\":426:427   */\n      0x00\n        /* \"#utility.yul\":415:424   */\n      dup4\n        /* \"#utility.yul\":411:428   */\n      add\n        /* \"#utility.yul\":402:408   */\n      dup5\n        /* \"#utility.yul\":358:429   */\n      tag_187\n      jump\t// in\n    tag_233:\n        /* \"#utility.yul\":214:436   */\n      swap3\n      swap2\n      pop\n      pop\n      jump\t// out\n        /* \"#utility.yul\":523:640   */\n    tag_189:\n        /* \"#utility.yul\":632:633   */\n      0x00\n        /* \"#utility.yul\":629:630   */\n      dup1\n        /* \"#utility.yul\":622:634   */\n      revert\n        /* \"#utility.yul\":769:891   */\n    tag_191:\n        /* \"#utility.yul\":842:866   */\n      tag_238\n        /* \"#utility.yul\":860:865   */\n      dup2\n        /* \"#utility.yul\":842:866   */\n      tag_186\n      jump\t// in\n    tag_238:\n        /* \"#utility.yul\":835:840   */\n      dup2\n        /* \"#utility.yul\":832:867   */\n      eq\n        /* \"#utility.yul\":822:885   */\n      tag_239\n      jumpi\n        /* \"#utility.yul\":881:882   */\n      0x00\n        /* \"#utility.yul\":878:879   */\n      dup1\n        /* \"#utility.yul\":871:883   */\n      revert\n        /* \"#utility.yul\":822:885   */\n    tag_239:\n        /* \"#utility.yul\":769:891   */\n      pop\n      jump\t// out\n        /* \"#utility.yul\":897:1036   */\n    tag_192:\n        /* \"#utility.yul\":943:948   */\n      0x00\n        /* \"#utility.yul\":981:987   */\n      dup2\n        /* \"#utility.yul\":968:988   */\n      calldataload\n        /* \"#utility.yul\":959:988   */\n      swap1\n      pop\n        /* \"#utility.yul\":997:1030   */\n      tag_241\n        /* \"#utility.yul\":1024:1029   */\n      dup2\n        /* \"#utility.yul\":997:1030   */\n      tag_191\n      jump\t// in\n    tag_241:\n        /* \"#utility.yul\":897:1036   */\n      swap3\n      swap2\n      pop\n      pop\n      jump\t// out\n        /* \"#utility.yul\":1042:1371   */\n    tag_22:\n        /* \"#utility.yul\":1101:1107   */\n      0x00\n        /* \"#utility.yul\":1150:1152   */\n      0x20\n        /* \"#utility.yul\":1138:1147   */\n      dup3\n        /* \"#utility.yul\":1129:1136   */\n      dup5\n        /* \"#utility.yul\":1125:1148   */\n      sub\n        /* \"#utility.yul\":1121:1153   */\n      slt\n        /* \"#utility.yul\":1118:1237   */\n      iszero\n      tag_243\n      jumpi\n        /* \"#utility.yul\":1156:1235   */\n      tag_244\n      tag_189\n      jump\t// in\n    tag_244:\n        /* \"#utility.yul\":1118:1237   */\n    tag_243:\n        /* \"#utility.yul\":1276:1277   */\n      0x00\n        /* \"#utility.yul\":1301:1354   */\n      tag_245\n        /* \"#utility.yul\":1346:1353   */\n      dup5\n        /* \"#utility.yul\":1337:1343   */\n      dup3\n        /* \"#utility.yul\":1326:1335   */\n      dup6\n        /* \"#utility.yul\":1322:1344   */\n      add\n        /* \"#utility.yul\":1301:1354   */\n      tag_192\n      jump\t// in\n    tag_245:\n        /* \"#utility.yul\":1291:1354   */\n      swap2\n      pop\n        /* \"#utility.yul\":1247:1364   */\n      pop\n        /* \"#utility.yul\":1042:1371   */\n      swap3\n      swap2\n      pop\n      pop\n      jump\t// out\n        /* \"#utility.yul\":1377:1503   */\n    tag_193:\n        /* \"#utility.yul\":1414:1421   */\n      0x00\n        /* \"#utility.yul\":1454:1496   */\n      0xffffffffffffffffffffffffffffffffffffffff\n        /* \"#utility.yul\":1447:1452   */\n      dup3\n        /* \"#utility.yul\":1443:1497   */\n      and\n        /* \"#utility.yul\":1432:1497   */\n      swap1\n      pop\n        /* \"#utility.yul\":1377:1503   */\n      swap2\n      swap1\n      pop\n      jump\t// out\n        /* \"#utility.yul\":1509:1569   */\n    tag_194:\n        /* \"#utility.yul\":1537:1540   */\n      0x00\n        /* \"#utility.yul\":1558:1563   */\n      dup2\n        /* \"#utility.yul\":1551:1563   */\n      swap1\n      pop\n        /* \"#utility.yul\":1509:1569   */\n      swap2\n      swap1\n      pop\n      jump\t// out\n        /* \"#utility.yul\":1575:1717   */\n    tag_195:\n        /* \"#utility.yul\":1625:1634   */\n      0x00\n        /* \"#utility.yul\":1658:1711   */\n      tag_249\n        /* \"#utility.yul\":1676:1710   */\n      tag_250\n        /* \"#utility.yul\":1685:1709   */\n      tag_251\n        /* \"#utility.yul\":1703:1708   */\n      dup5\n        /* \"#utility.yul\":1685:1709   */\n      tag_193\n      jump\t// in\n    tag_251:\n        /* \"#utility.yul\":1676:1710   */\n      tag_194\n      jump\t// in\n    tag_250:\n        /* \"#utility.yul\":1658:1711   */\n      tag_193\n      jump\t// in\n    tag_249:\n        /* \"#utility.yul\":1645:1711   */\n      swap1\n      pop\n        /* \"#utility.yul\":1575:1717   */\n      swap2\n      swap1\n      pop\n      jump\t// out\n        /* \"#utility.yul\":1723:1849   */\n    tag_196:\n        /* \"#utility.yul\":1773:1782   */\n      0x00\n        /* \"#utility.yul\":1806:1843   */\n      tag_253\n        /* \"#utility.yul\":1837:1842   */\n      dup3\n        /* \"#utility.yul\":1806:1843   */\n      tag_195\n      jump\t// in\n    tag_253:\n        /* \"#utility.yul\":1793:1843   */\n      swap1\n      pop\n        /* \"#utility.yul\":1723:1849   */\n      swap2\n      swap1\n      pop\n      jump\t// out\n        /* \"#utility.yul\":1855:1995   */\n    tag_197:\n        /* \"#utility.yul\":1919:1928   */\n      0x00\n        /* \"#utility.yul\":1952:1989   */\n      tag_255\n        /* \"#utility.yul\":1983:1988   */\n      dup3\n        /* \"#utility.yul\":1952:1989   */\n      tag_196\n      jump\t// in\n    tag_255:\n        /* \"#utility.yul\":1939:1989   */\n      swap1\n      pop\n        /* \"#utility.yul\":1855:1995   */\n      swap2\n      swap1\n      pop\n      jump\t// out\n        /* \"#utility.yul\":2001:2160   */\n    tag_198:\n        /* \"#utility.yul\":2102:2153   */\n      tag_257\n        /* \"#utility.yul\":2147:2152   */\n      dup2\n        /* \"#utility.yul\":2102:2153   */\n      tag_197\n      jump\t// in\n    tag_257:\n        /* \"#utility.yul\":2097:2100   */\n      dup3\n        /* \"#utility.yul\":2090:2154   */\n      mstore\n        /* \"#utility.yul\":2001:2160   */\n      pop\n      pop\n      jump\t// out\n        /* \"#utility.yul\":2166:2416   */\n    tag_35:\n        /* \"#utility.yul\":2273:2277   */\n      0x00\n        /* \"#utility.yul\":2311:2313   */\n      0x20\n        /* \"#utility.yul\":2300:2309   */\n      dup3\n        /* \"#utility.yul\":2296:2314   */\n      add\n        /* \"#utility.yul\":2288:2314   */\n      swap1\n      pop\n        /* \"#utility.yul\":2324:2409   */\n      tag_259\n        /* \"#utility.yul\":2406:2407   */\n      0x00\n        /* \"#utility.yul\":2395:2404   */\n      dup4\n        /* \"#utility.yul\":2391:2408   */\n      add\n        /* \"#utility.yul\":2382:2388   */\n      dup5\n        /* \"#utility.yul\":2324:2409   */\n      tag_198\n      jump\t// in\n    tag_259:\n        /* \"#utility.yul\":2166:2416   */\n      swap3\n      swap2\n      pop\n      pop\n      jump\t// out\n        /* \"#utility.yul\":2422:2518   */\n    tag_199:\n        /* \"#utility.yul\":2459:2466   */\n      0x00\n        /* \"#utility.yul\":2488:2512   */\n      tag_261\n        /* \"#utility.yul\":2506:2511   */\n      dup3\n        /* \"#utility.yul\":2488:2512   */\n      tag_193\n      jump\t// in\n    tag_261:\n        /* \"#utility.yul\":2477:2512   */\n      swap1\n      pop\n        /* \"#utility.yul\":2422:2518   */\n      swap2\n      swap1\n      pop\n      jump\t// out\n        /* \"#utility.yul\":2524:2642   */\n    tag_200:\n        /* \"#utility.yul\":2611:2635   */\n      tag_263\n        /* \"#utility.yul\":2629:2634   */\n      dup2\n        /* \"#utility.yul\":2611:2635   */\n      tag_199\n      jump\t// in\n    tag_263:\n        /* \"#utility.yul\":2606:2609   */\n      dup3\n        /* \"#utility.yul\":2599:2636   */\n      mstore\n        /* \"#utility.yul\":2524:2642   */\n      pop\n      pop\n      jump\t// out\n        /* \"#utility.yul\":2648:2870   */\n    tag_42:\n        /* \"#utility.yul\":2741:2745   */\n      0x00\n        /* \"#utility.yul\":2779:2781   */\n      0x20\n        /* \"#utility.yul\":2768:2777   */\n      dup3\n        /* \"#utility.yul\":2764:2782   */\n      add\n        /* \"#utility.yul\":2756:2782   */\n      swap1\n      pop\n        /* \"#utility.yul\":2792:2863   */\n      tag_265\n        /* \"#utility.yul\":2860:2861   */\n      0x00\n        /* \"#utility.yul\":2849:2858   */\n      dup4\n        /* \"#utility.yul\":2845:2862   */\n      add\n        /* \"#utility.yul\":2836:2842   */\n      dup5\n        /* \"#utility.yul\":2792:2863   */\n      tag_200\n      jump\t// in\n    tag_265:\n        /* \"#utility.yul\":2648:2870   */\n      swap3\n      swap2\n      pop\n      pop\n      jump\t// out\n        /* \"#utility.yul\":2876:2998   */\n    tag_201:\n        /* \"#utility.yul\":2949:2973   */\n      tag_267\n        /* \"#utility.yul\":2967:2972   */\n      dup2\n        /* \"#utility.yul\":2949:2973   */\n      tag_199\n      jump\t// in\n    tag_267:\n        /* \"#utility.yul\":2942:2947   */\n      dup2\n        /* \"#utility.yul\":2939:2974   */\n      eq\n        /* \"#utility.yul\":2929:2992   */\n      tag_268\n      jumpi\n        /* \"#utility.yul\":2988:2989   */\n      0x00\n        /* \"#utility.yul\":2985:2986   */\n      dup1\n        /* \"#utility.yul\":2978:2990   */\n      revert\n        /* \"#utility.yul\":2929:2992   */\n    tag_268:\n        /* \"#utility.yul\":2876:2998   */\n      pop\n      jump\t// out\n        /* \"#utility.yul\":3004:3143   */\n    tag_202:\n        /* \"#utility.yul\":3050:3055   */\n      0x00\n        /* \"#utility.yul\":3088:3094   */\n      dup2\n        /* \"#utility.yul\":3075:3095   */\n      calldataload\n        /* \"#utility.yul\":3066:3095   */\n      swap1\n      pop\n        /* \"#utility.yul\":3104:3137   */\n      tag_270\n        /* \"#utility.yul\":3131:3136   */\n      dup2\n        /* \"#utility.yul\":3104:3137   */\n      tag_201\n      jump\t// in\n    tag_270:\n        /* \"#utility.yul\":3004:3143   */\n      swap3\n      swap2\n      pop\n      pop\n      jump\t// out\n        /* \"#utility.yul\":3149:3478   */\n    tag_54:\n        /* \"#utility.yul\":3208:3214   */\n      0x00\n        /* \"#utility.yul\":3257:3259   */\n      0x20\n        /* \"#utility.yul\":3245:3254   */\n      dup3\n        /* \"#utility.yul\":3236:3243   */\n      dup5\n        /* \"#utility.yul\":3232:3255   */\n      sub\n        /* \"#utility.yul\":3228:3260   */\n      slt\n        /* \"#utility.yul\":3225:3344   */\n      iszero\n      tag_272\n      jumpi\n        /* \"#utility.yul\":3263:3342   */\n      tag_273\n      tag_189\n      jump\t// in\n    tag_273:\n        /* \"#utility.yul\":3225:3344   */\n    tag_272:\n        /* \"#utility.yul\":3383:3384   */\n      0x00\n        /* \"#utility.yul\":3408:3461   */\n      tag_274\n        /* \"#utility.yul\":3453:3460   */\n      dup5\n        /* \"#utility.yul\":3444:3450   */\n      dup3\n        /* \"#utility.yul\":3433:3442   */\n      dup6\n        /* \"#utility.yul\":3429:3451   */\n      add\n        /* \"#utility.yul\":3408:3461   */\n      tag_202\n      jump\t// in\n    tag_274:\n        /* \"#utility.yul\":3398:3461   */\n      swap2\n      pop\n        /* \"#utility.yul\":3354:3471   */\n      pop\n        /* \"#utility.yul\":3149:3478   */\n      swap3\n      swap2\n      pop\n      pop\n      jump\t// out\n        /* \"#utility.yul\":3484:3627   */\n    tag_203:\n        /* \"#utility.yul\":3541:3546   */\n      0x00\n        /* \"#utility.yul\":3572:3578   */\n      dup2\n        /* \"#utility.yul\":3566:3579   */\n      mload\n        /* \"#utility.yul\":3557:3579   */\n      swap1\n      pop\n        /* \"#utility.yul\":3588:3621   */\n      tag_276\n        /* \"#utility.yul\":3615:3620   */\n      dup2\n        /* \"#utility.yul\":3588:3621   */\n      tag_191\n      jump\t// in\n    tag_276:\n        /* \"#utility.yul\":3484:3627   */\n      swap3\n      swap2\n      pop\n      pop\n      jump\t// out\n        /* \"#utility.yul\":3633:3984   */\n    tag_61:\n        /* \"#utility.yul\":3703:3709   */\n      0x00\n        /* \"#utility.yul\":3752:3754   */\n      0x20\n        /* \"#utility.yul\":3740:3749   */\n      dup3\n        /* \"#utility.yul\":3731:3738   */\n      dup5\n        /* \"#utility.yul\":3727:3750   */\n      sub\n        /* \"#utility.yul\":3723:3755   */\n      slt\n        /* \"#utility.yul\":3720:3839   */\n      iszero\n      tag_278\n      jumpi\n        /* \"#utility.yul\":3758:3837   */\n      tag_279\n      tag_189\n      jump\t// in\n    tag_279:\n        /* \"#utility.yul\":3720:3839   */\n    tag_278:\n        /* \"#utility.yul\":3878:3879   */\n      0x00\n        /* \"#utility.yul\":3903:3967   */\n      tag_280\n        /* \"#utility.yul\":3959:3966   */\n      dup5\n        /* \"#utility.yul\":3950:3956   */\n      dup3\n        /* \"#utility.yul\":3939:3948   */\n      dup6\n        /* \"#utility.yul\":3935:3957   */\n      add\n        /* \"#utility.yul\":3903:3967   */\n      tag_203\n      jump\t// in\n    tag_280:\n        /* \"#utility.yul\":3893:3967   */\n      swap2\n      pop\n        /* \"#utility.yul\":3849:3977   */\n      pop\n        /* \"#utility.yul\":3633:3984   */\n      swap3\n      swap2\n      pop\n      pop\n      jump\t// out\n        /* \"#utility.yul\":3990:4159   */\n    tag_204:\n        /* \"#utility.yul\":4074:4085   */\n      0x00\n        /* \"#utility.yul\":4108:4114   */\n      dup3\n        /* \"#utility.yul\":4103:4106   */\n      dup3\n        /* \"#utility.yul\":4096:4115   */\n      mstore\n        /* \"#utility.yul\":4148:4152   */\n      0x20\n        /* \"#utility.yul\":4143:4146   */\n      dup3\n        /* \"#utility.yul\":4139:4153   */\n      add\n        /* \"#utility.yul\":4124:4153   */\n      swap1\n      pop\n        /* \"#utility.yul\":3990:4159   */\n      swap3\n      swap2\n      pop\n      pop\n      jump\t// out\n        /* \"#utility.yul\":4165:4344   */\n    tag_205:\n        /* \"#utility.yul\":4305:4336   */\n      0x416d6f756e74206d7573742062652067726561746572207468616e2030000000\n        /* \"#utility.yul\":4301:4302   */\n      0x00\n        /* \"#utility.yul\":4293:4299   */\n      dup3\n        /* \"#utility.yul\":4289:4303   */\n      add\n        /* \"#utility.yul\":4282:4337   */\n      mstore\n        /* \"#utility.yul\":4165:4344   */\n      pop\n      jump\t// out\n        /* \"#utility.yul\":4350:4716   */\n    tag_206:\n        /* \"#utility.yul\":4492:4495   */\n      0x00\n        /* \"#utility.yul\":4513:4580   */\n      tag_284\n        /* \"#utility.yul\":4577:4579   */\n      0x1d\n        /* \"#utility.yul\":4572:4575   */\n      dup4\n        /* \"#utility.yul\":4513:4580   */\n      tag_204\n      jump\t// in\n    tag_284:\n        /* \"#utility.yul\":4506:4580   */\n      swap2\n      pop\n        /* \"#utility.yul\":4589:4682   */\n      tag_285\n        /* \"#utility.yul\":4678:4681   */\n      dup3\n        /* \"#utility.yul\":4589:4682   */\n      tag_205\n      jump\t// in\n    tag_285:\n        /* \"#utility.yul\":4707:4709   */\n      0x20\n        /* \"#utility.yul\":4702:4705   */\n      dup3\n        /* \"#utility.yul\":4698:4710   */\n      add\n        /* \"#utility.yul\":4691:4710   */\n      swap1\n      pop\n        /* \"#utility.yul\":4350:4716   */\n      swap2\n      swap1\n      pop\n      jump\t// out\n        /* \"#utility.yul\":4722:5141   */\n    tag_71:\n        /* \"#utility.yul\":4888:4892   */\n      0x00\n        /* \"#utility.yul\":4926:4928   */\n      0x20\n        /* \"#utility.yul\":4915:4924   */\n      dup3\n        /* \"#utility.yul\":4911:4929   */\n      add\n        /* \"#utility.yul\":4903:4929   */\n      swap1\n      pop\n        /* \"#utility.yul\":4975:4984   */\n      dup2\n        /* \"#utility.yul\":4969:4973   */\n      dup2\n        /* \"#utility.yul\":4965:4985   */\n      sub\n        /* \"#utility.yul\":4961:4962   */\n      0x00\n        /* \"#utility.yul\":4950:4959   */\n      dup4\n        /* \"#utility.yul\":4946:4963   */\n      add\n        /* \"#utility.yul\":4939:4986   */\n      mstore\n        /* \"#utility.yul\":5003:5134   */\n      tag_287\n        /* \"#utility.yul\":5129:5133   */\n      dup2\n        /* \"#utility.yul\":5003:5134   */\n      tag_206\n      jump\t// in\n    tag_287:\n        /* \"#utility.yul\":4995:5134   */\n      swap1\n      pop\n        /* \"#utility.yul\":4722:5141   */\n      swap2\n      swap1\n      pop\n      jump\t// out\n        /* \"#utility.yul\":5147:5322   */\n    tag_207:\n        /* \"#utility.yul\":5287:5314   */\n      0x496e73756666696369656e7420555344542062616c616e636500000000000000\n        /* \"#utility.yul\":5283:5284   */\n      0x00\n        /* \"#utility.yul\":5275:5281   */\n      dup3\n        /* \"#utility.yul\":5271:5285   */\n      add\n        /* \"#utility.yul\":5264:5315   */\n      mstore\n        /* \"#utility.yul\":5147:5322   */\n      pop\n      jump\t// out\n        /* \"#utility.yul\":5328:5694   */\n    tag_208:\n        /* \"#utility.yul\":5470:5473   */\n      0x00\n        /* \"#utility.yul\":5491:5558   */\n      tag_290\n        /* \"#utility.yul\":5555:5557   */\n      0x19\n        /* \"#utility.yul\":5550:5553   */\n      dup4\n        /* \"#utility.yul\":5491:5558   */\n      tag_204\n      jump\t// in\n    tag_290:\n        /* \"#utility.yul\":5484:5558   */\n      swap2\n      pop\n        /* \"#utility.yul\":5567:5660   */\n      tag_291\n        /* \"#utility.yul\":5656:5659   */\n      dup3\n        /* \"#utility.yul\":5567:5660   */\n      tag_207\n      jump\t// in\n    tag_291:\n        /* \"#utility.yul\":5685:5687   */\n      0x20\n        /* \"#utility.yul\":5680:5683   */\n      dup3\n        /* \"#utility.yul\":5676:5688   */\n      add\n        /* \"#utility.yul\":5669:5688   */\n      swap1\n      pop\n        /* \"#utility.yul\":5328:5694   */\n      swap2\n      swap1\n      pop\n      jump\t// out\n        /* \"#utility.yul\":5700:6119   */\n    tag_78:\n        /* \"#utility.yul\":5866:5870   */\n      0x00\n        /* \"#utility.yul\":5904:5906   */\n      0x20\n        /* \"#utility.yul\":5893:5902   */\n      dup3\n        /* \"#utility.yul\":5889:5907   */\n      add\n        /* \"#utility.yul\":5881:5907   */\n      swap1\n      pop\n        /* \"#utility.yul\":5953:5962   */\n      dup2\n        /* \"#utility.yul\":5947:5951   */\n      dup2\n        /* \"#utility.yul\":5943:5963   */\n      sub\n        /* \"#utility.yul\":5939:5940   */\n      0x00\n        /* \"#utility.yul\":5928:5937   */\n      dup4\n        /* \"#utility.yul\":5924:5941   */\n      add\n        /* \"#utility.yul\":5917:5964   */\n      mstore\n        /* \"#utility.yul\":5981:6112   */\n      tag_293\n        /* \"#utility.yul\":6107:6111   */\n      dup2\n        /* \"#utility.yul\":5981:6112   */\n      tag_208\n      jump\t// in\n    tag_293:\n        /* \"#utility.yul\":5973:6112   */\n      swap1\n      pop\n        /* \"#utility.yul\":5700:6119   */\n      swap2\n      swap1\n      pop\n      jump\t// out\n        /* \"#utility.yul\":6125:6457   */\n    tag_81:\n        /* \"#utility.yul\":6246:6250   */\n      0x00\n        /* \"#utility.yul\":6284:6286   */\n      0x40\n        /* \"#utility.yul\":6273:6282   */\n      dup3\n        /* \"#utility.yul\":6269:6287   */\n      add\n        /* \"#utility.yul\":6261:6287   */\n      swap1\n      pop\n        /* \"#utility.yul\":6297:6368   */\n      tag_295\n        /* \"#utility.yul\":6365:6366   */\n      0x00\n        /* \"#utility.yul\":6354:6363   */\n      dup4\n        /* \"#utility.yul\":6350:6367   */\n      add\n        /* \"#utility.yul\":6341:6347   */\n      dup6\n        /* \"#utility.yul\":6297:6368   */\n      tag_200\n      jump\t// in\n    tag_295:\n        /* \"#utility.yul\":6378:6450   */\n      tag_296\n        /* \"#utility.yul\":6446:6448   */\n      0x20\n        /* \"#utility.yul\":6435:6444   */\n      dup4\n        /* \"#utility.yul\":6431:6449   */\n      add\n        /* \"#utility.yul\":6422:6428   */\n      dup5\n        /* \"#utility.yul\":6378:6450   */\n      tag_187\n      jump\t// in\n    tag_296:\n        /* \"#utility.yul\":6125:6457   */\n      swap4\n      swap3\n      pop\n      pop\n      pop\n      jump\t// out\n        /* \"#utility.yul\":6463:6553   */\n    tag_209:\n        /* \"#utility.yul\":6497:6504   */\n      0x00\n        /* \"#utility.yul\":6540:6545   */\n      dup2\n        /* \"#utility.yul\":6533:6546   */\n      iszero\n        /* \"#utility.yul\":6526:6547   */\n      iszero\n        /* \"#utility.yul\":6515:6547   */\n      swap1\n      pop\n        /* \"#utility.yul\":6463:6553   */\n      swap2\n      swap1\n      pop\n      jump\t// out\n        /* \"#utility.yul\":6559:6675   */\n    tag_210:\n        /* \"#utility.yul\":6629:6650   */\n      tag_299\n        /* \"#utility.yul\":6644:6649   */\n      dup2\n        /* \"#utility.yul\":6629:6650   */\n      tag_209\n      jump\t// in\n    tag_299:\n        /* \"#utility.yul\":6622:6627   */\n      dup2\n        /* \"#utility.yul\":6619:6651   */\n      eq\n        /* \"#utility.yul\":6609:6669   */\n      tag_300\n      jumpi\n        /* \"#utility.yul\":6665:6666   */\n      0x00\n        /* \"#utility.yul\":6662:6663   */\n      dup1\n        /* \"#utility.yul\":6655:6667   */\n      revert\n        /* \"#utility.yul\":6609:6669   */\n    tag_300:\n        /* \"#utility.yul\":6559:6675   */\n      pop\n      jump\t// out\n        /* \"#utility.yul\":6681:6818   */\n    tag_211:\n        /* \"#utility.yul\":6735:6740   */\n      0x00\n        /* \"#utility.yul\":6766:6772   */\n      dup2\n        /* \"#utility.yul\":6760:6773   */\n      mload\n        /* \"#utility.yul\":6751:6773   */\n      swap1\n      pop\n        /* \"#utility.yul\":6782:6812   */\n      tag_302\n        /* \"#utility.yul\":6806:6811   */\n      dup2\n        /* \"#utility.yul\":6782:6812   */\n      tag_210\n      jump\t// in\n    tag_302:\n        /* \"#utility.yul\":6681:6818   */\n      swap3\n      swap2\n      pop\n      pop\n      jump\t// out\n        /* \"#utility.yul\":6824:7169   */\n    tag_85:\n        /* \"#utility.yul\":6891:6897   */\n      0x00\n        /* \"#utility.yul\":6940:6942   */\n      0x20\n        /* \"#utility.yul\":6928:6937   */\n      dup3\n        /* \"#utility.yul\":6919:6926   */\n      dup5\n        /* \"#utility.yul\":6915:6938   */\n      sub\n        /* \"#utility.yul\":6911:6943   */\n      slt\n        /* \"#utility.yul\":6908:7027   */\n      iszero\n      tag_304\n      jumpi\n        /* \"#utility.yul\":6946:7025   */\n      tag_305\n      tag_189\n      jump\t// in\n    tag_305:\n        /* \"#utility.yul\":6908:7027   */\n    tag_304:\n        /* \"#utility.yul\":7066:7067   */\n      0x00\n        /* \"#utility.yul\":7091:7152   */\n      tag_306\n        /* \"#utility.yul\":7144:7151   */\n      dup5\n        /* \"#utility.yul\":7135:7141   */\n      dup3\n        /* \"#utility.yul\":7124:7133   */\n      dup6\n        /* \"#utility.yul\":7120:7142   */\n      add\n        /* \"#utility.yul\":7091:7152   */\n      tag_211\n      jump\t// in\n    tag_306:\n        /* \"#utility.yul\":7081:7152   */\n      swap2\n      pop\n        /* \"#utility.yul\":7037:7162   */\n      pop\n        /* \"#utility.yul\":6824:7169   */\n      swap3\n      swap2\n      pop\n      pop\n      jump\t// out\n        /* \"#utility.yul\":7175:7347   */\n    tag_212:\n        /* \"#utility.yul\":7315:7339   */\n      0x55534454207769746864726177616c206661696c656400000000000000000000\n        /* \"#utility.yul\":7311:7312   */\n      0x00\n        /* \"#utility.yul\":7303:7309   */\n      dup3\n        /* \"#utility.yul\":7299:7313   */\n      add\n        /* \"#utility.yul\":7292:7340   */\n      mstore\n        /* \"#utility.yul\":7175:7347   */\n      pop\n      jump\t// out\n        /* \"#utility.yul\":7353:7719   */\n    tag_213:\n        /* \"#utility.yul\":7495:7498   */\n      0x00\n        /* \"#utility.yul\":7516:7583   */\n      tag_309\n        /* \"#utility.yul\":7580:7582   */\n      0x16\n        /* \"#utility.yul\":7575:7578   */\n      dup4\n        /* \"#utility.yul\":7516:7583   */\n      tag_204\n      jump\t// in\n    tag_309:\n        /* \"#utility.yul\":7509:7583   */\n      swap2\n      pop\n        /* \"#utility.yul\":7592:7685   */\n      tag_310\n        /* \"#utility.yul\":7681:7684   */\n      dup3\n        /* \"#utility.yul\":7592:7685   */\n      tag_212\n      jump\t// in\n    tag_310:\n        /* \"#utility.yul\":7710:7712   */\n      0x20\n        /* \"#utility.yul\":7705:7708   */\n      dup3\n        /* \"#utility.yul\":7701:7713   */\n      add\n        /* \"#utility.yul\":7694:7713   */\n      swap1\n      pop\n        /* \"#utility.yul\":7353:7719   */\n      swap2\n      swap1\n      pop\n      jump\t// out\n        /* \"#utility.yul\":7725:8144   */\n    tag_88:\n        /* \"#utility.yul\":7891:7895   */\n      0x00\n        /* \"#utility.yul\":7929:7931   */\n      0x20\n        /* \"#utility.yul\":7918:7927   */\n      dup3\n        /* \"#utility.yul\":7914:7932   */\n      add\n        /* \"#utility.yul\":7906:7932   */\n      swap1\n      pop\n        /* \"#utility.yul\":7978:7987   */\n      dup2\n        /* \"#utility.yul\":7972:7976   */\n      dup2\n        /* \"#utility.yul\":7968:7988   */\n      sub\n        /* \"#utility.yul\":7964:7965   */\n      0x00\n        /* \"#utility.yul\":7953:7962   */\n      dup4\n        /* \"#utility.yul\":7949:7966   */\n      add\n        /* \"#utility.yul\":7942:7989   */\n      mstore\n        /* \"#utility.yul\":8006:8137   */\n      tag_312\n        /* \"#utility.yul\":8132:8136   */\n      dup2\n        /* \"#utility.yul\":8006:8137   */\n      tag_213\n      jump\t// in\n    tag_312:\n        /* \"#utility.yul\":7998:8137   */\n      swap1\n      pop\n        /* \"#utility.yul\":7725:8144   */\n      swap2\n      swap1\n      pop\n      jump\t// out\n        /* \"#utility.yul\":8150:8375   */\n    tag_214:\n        /* \"#utility.yul\":8290:8324   */\n      0x496e73756666696369656e74204e617275746f20746f6b656e7320696e20636f\n        /* \"#utility.yul\":8286:8287   */\n      0x00\n        /* \"#utility.yul\":8278:8284   */\n      dup3\n        /* \"#utility.yul\":8274:8288   */\n      add\n        /* \"#utility.yul\":8267:8325   */\n      mstore\n        /* \"#utility.yul\":8359:8367   */\n      0x6e74726163740000000000000000000000000000000000000000000000000000\n        /* \"#utility.yul\":8354:8356   */\n      0x20\n        /* \"#utility.yul\":8346:8352   */\n      dup3\n        /* \"#utility.yul\":8342:8357   */\n      add\n        /* \"#utility.yul\":8335:8368   */\n      mstore\n        /* \"#utility.yul\":8150:8375   */\n      pop\n      jump\t// out\n        /* \"#utility.yul\":8381:8747   */\n    tag_215:\n        /* \"#utility.yul\":8523:8526   */\n      0x00\n        /* \"#utility.yul\":8544:8611   */\n      tag_315\n        /* \"#utility.yul\":8608:8610   */\n      0x26\n        /* \"#utility.yul\":8603:8606   */\n      dup4\n        /* \"#utility.yul\":8544:8611   */\n      tag_204\n      jump\t// in\n    tag_315:\n        /* \"#utility.yul\":8537:8611   */\n      swap2\n      pop\n        /* \"#utility.yul\":8620:8713   */\n      tag_316\n        /* \"#utility.yul\":8709:8712   */\n      dup3\n        /* \"#utility.yul\":8620:8713   */\n      tag_214\n      jump\t// in\n    tag_316:\n        /* \"#utility.yul\":8738:8740   */\n      0x40\n        /* \"#utility.yul\":8733:8736   */\n      dup3\n        /* \"#utility.yul\":8729:8741   */\n      add\n        /* \"#utility.yul\":8722:8741   */\n      swap1\n      pop\n        /* \"#utility.yul\":8381:8747   */\n      swap2\n      swap1\n      pop\n      jump\t// out\n        /* \"#utility.yul\":8753:9172   */\n    tag_109:\n        /* \"#utility.yul\":8919:8923   */\n      0x00\n        /* \"#utility.yul\":8957:8959   */\n      0x20\n        /* \"#utility.yul\":8946:8955   */\n      dup3\n        /* \"#utility.yul\":8942:8960   */\n      add\n        /* \"#utility.yul\":8934:8960   */\n      swap1\n      pop\n        /* \"#utility.yul\":9006:9015   */\n      dup2\n        /* \"#utility.yul\":9000:9004   */\n      dup2\n        /* \"#utility.yul\":8996:9016   */\n      sub\n        /* \"#utility.yul\":8992:8993   */\n      0x00\n        /* \"#utility.yul\":8981:8990   */\n      dup4\n        /* \"#utility.yul\":8977:8994   */\n      add\n        /* \"#utility.yul\":8970:9017   */\n      mstore\n        /* \"#utility.yul\":9034:9165   */\n      tag_318\n        /* \"#utility.yul\":9160:9164   */\n      dup2\n        /* \"#utility.yul\":9034:9165   */\n      tag_215\n      jump\t// in\n    tag_318:\n        /* \"#utility.yul\":9026:9165   */\n      swap1\n      pop\n        /* \"#utility.yul\":8753:9172   */\n      swap2\n      swap1\n      pop\n      jump\t// out\n        /* \"#utility.yul\":9178:9358   */\n    tag_216:\n        /* \"#utility.yul\":9226:9303   */\n      0x4e487b7100000000000000000000000000000000000000000000000000000000\n        /* \"#utility.yul\":9223:9224   */\n      0x00\n        /* \"#utility.yul\":9216:9304   */\n      mstore\n        /* \"#utility.yul\":9323:9327   */\n      0x12\n        /* \"#utility.yul\":9320:9321   */\n      0x04\n        /* \"#utility.yul\":9313:9328   */\n      mstore\n        /* \"#utility.yul\":9347:9351   */\n      0x24\n        /* \"#utility.yul\":9344:9345   */\n      0x00\n        /* \"#utility.yul\":9337:9352   */\n      revert\n        /* \"#utility.yul\":9550:9735   */\n    tag_111:\n        /* \"#utility.yul\":9590:9591   */\n      0x00\n        /* \"#utility.yul\":9607:9627   */\n      tag_322\n        /* \"#utility.yul\":9625:9626   */\n      dup3\n        /* \"#utility.yul\":9607:9627   */\n      tag_186\n      jump\t// in\n    tag_322:\n        /* \"#utility.yul\":9602:9627   */\n      swap2\n      pop\n        /* \"#utility.yul\":9641:9661   */\n      tag_323\n        /* \"#utility.yul\":9659:9660   */\n      dup4\n        /* \"#utility.yul\":9641:9661   */\n      tag_186\n      jump\t// in\n    tag_323:\n        /* \"#utility.yul\":9636:9661   */\n      swap3\n      pop\n        /* \"#utility.yul\":9680:9681   */\n      dup3\n        /* \"#utility.yul\":9670:9705   */\n      tag_324\n      jumpi\n        /* \"#utility.yul\":9685:9703   */\n      tag_325\n      tag_216\n      jump\t// in\n    tag_325:\n        /* \"#utility.yul\":9670:9705   */\n    tag_324:\n        /* \"#utility.yul\":9727:9728   */\n      dup3\n        /* \"#utility.yul\":9724:9725   */\n      dup3\n        /* \"#utility.yul\":9720:9729   */\n      div\n        /* \"#utility.yul\":9715:9729   */\n      swap1\n      pop\n        /* \"#utility.yul\":9550:9735   */\n      swap3\n      swap2\n      pop\n      pop\n      jump\t// out\n        /* \"#utility.yul\":9741:10183   */\n    tag_113:\n        /* \"#utility.yul\":9890:9894   */\n      0x00\n        /* \"#utility.yul\":9928:9930   */\n      0x60\n        /* \"#utility.yul\":9917:9926   */\n      dup3\n        /* \"#utility.yul\":9913:9931   */\n      add\n        /* \"#utility.yul\":9905:9931   */\n      swap1\n      pop\n        /* \"#utility.yul\":9941:10012   */\n      tag_327\n        /* \"#utility.yul\":10009:10010   */\n      0x00\n        /* \"#utility.yul\":9998:10007   */\n      dup4\n        /* \"#utility.yul\":9994:10011   */\n      add\n        /* \"#utility.yul\":9985:9991   */\n      dup7\n        /* \"#utility.yul\":9941:10012   */\n      tag_200\n      jump\t// in\n    tag_327:\n        /* \"#utility.yul\":10022:10094   */\n      tag_328\n        /* \"#utility.yul\":10090:10092   */\n      0x20\n        /* \"#utility.yul\":10079:10088   */\n      dup4\n        /* \"#utility.yul\":10075:10093   */\n      add\n        /* \"#utility.yul\":10066:10072   */\n      dup6\n        /* \"#utility.yul\":10022:10094   */\n      tag_200\n      jump\t// in\n    tag_328:\n        /* \"#utility.yul\":10104:10176   */\n      tag_329\n        /* \"#utility.yul\":10172:10174   */\n      0x40\n        /* \"#utility.yul\":10161:10170   */\n      dup4\n        /* \"#utility.yul\":10157:10175   */\n      add\n        /* \"#utility.yul\":10148:10154   */\n      dup5\n        /* \"#utility.yul\":10104:10176   */\n      tag_187\n      jump\t// in\n    tag_329:\n        /* \"#utility.yul\":9741:10183   */\n      swap5\n      swap4\n      pop\n      pop\n      pop\n      pop\n      jump\t// out\n        /* \"#utility.yul\":10189:10359   */\n    tag_218:\n        /* \"#utility.yul\":10329:10351   */\n      0x55534454207472616e73666572206661696c6564000000000000000000000000\n        /* \"#utility.yul\":10325:10326   */\n      0x00\n        /* \"#utility.yul\":10317:10323   */\n      dup3\n        /* \"#utility.yul\":10313:10327   */\n      add\n        /* \"#utility.yul\":10306:10352   */\n      mstore\n        /* \"#utility.yul\":10189:10359   */\n      pop\n      jump\t// out\n        /* \"#utility.yul\":10365:10731   */\n    tag_219:\n        /* \"#utility.yul\":10507:10510   */\n      0x00\n        /* \"#utility.yul\":10528:10595   */\n      tag_332\n        /* \"#utility.yul\":10592:10594   */\n      0x14\n        /* \"#utility.yul\":10587:10590   */\n      dup4\n        /* \"#utility.yul\":10528:10595   */\n      tag_204\n      jump\t// in\n    tag_332:\n        /* \"#utility.yul\":10521:10595   */\n      swap2\n      pop\n        /* \"#utility.yul\":10604:10697   */\n      tag_333\n        /* \"#utility.yul\":10693:10696   */\n      dup3\n        /* \"#utility.yul\":10604:10697   */\n      tag_218\n      jump\t// in\n    tag_333:\n        /* \"#utility.yul\":10722:10724   */\n      0x20\n        /* \"#utility.yul\":10717:10720   */\n      dup3\n        /* \"#utility.yul\":10713:10725   */\n      add\n        /* \"#utility.yul\":10706:10725   */\n      swap1\n      pop\n        /* \"#utility.yul\":10365:10731   */\n      swap2\n      swap1\n      pop\n      jump\t// out\n        /* \"#utility.yul\":10737:11156   */\n    tag_119:\n        /* \"#utility.yul\":10903:10907   */\n      0x00\n        /* \"#utility.yul\":10941:10943   */\n      0x20\n        /* \"#utility.yul\":10930:10939   */\n      dup3\n        /* \"#utility.yul\":10926:10944   */\n      add\n        /* \"#utility.yul\":10918:10944   */\n      swap1\n      pop\n        /* \"#utility.yul\":10990:10999   */\n      dup2\n        /* \"#utility.yul\":10984:10988   */\n      dup2\n        /* \"#utility.yul\":10980:11000   */\n      sub\n        /* \"#utility.yul\":10976:10977   */\n      0x00\n        /* \"#utility.yul\":10965:10974   */\n      dup4\n        /* \"#utility.yul\":10961:10978   */\n      add\n        /* \"#utility.yul\":10954:11001   */\n      mstore\n        /* \"#utility.yul\":11018:11149   */\n      tag_335\n        /* \"#utility.yul\":11144:11148   */\n      dup2\n        /* \"#utility.yul\":11018:11149   */\n      tag_219\n      jump\t// in\n    tag_335:\n        /* \"#utility.yul\":11010:11149   */\n      swap1\n      pop\n        /* \"#utility.yul\":10737:11156   */\n      swap2\n      swap1\n      pop\n      jump\t// out\n        /* \"#utility.yul\":11162:11340   */\n    tag_220:\n        /* \"#utility.yul\":11302:11332   */\n      0x4e617275746f20746f6b656e207472616e73666572206661696c656400000000\n        /* \"#utility.yul\":11298:11299   */\n      0x00\n        /* \"#utility.yul\":11290:11296   */\n      dup3\n        /* \"#utility.yul\":11286:11300   */\n      add\n        /* \"#utility.yul\":11279:11333   */\n      mstore\n        /* \"#utility.yul\":11162:11340   */\n      pop\n      jump\t// out\n        /* \"#utility.yul\":11346:11712   */\n    tag_221:\n        /* \"#utility.yul\":11488:11491   */\n      0x00\n        /* \"#utility.yul\":11509:11576   */\n      tag_338\n        /* \"#utility.yul\":11573:11575   */\n      0x1c\n        /* \"#utility.yul\":11568:11571   */\n      dup4\n        /* \"#utility.yul\":11509:11576   */\n      tag_204\n      jump\t// in\n    tag_338:\n        /* \"#utility.yul\":11502:11576   */\n      swap2\n      pop\n        /* \"#utility.yul\":11585:11678   */\n      tag_339\n        /* \"#utility.yul\":11674:11677   */\n      dup3\n        /* \"#utility.yul\":11585:11678   */\n      tag_220\n      jump\t// in\n    tag_339:\n        /* \"#utility.yul\":11703:11705   */\n      0x20\n        /* \"#utility.yul\":11698:11701   */\n      dup3\n        /* \"#utility.yul\":11694:11706   */\n      add\n        /* \"#utility.yul\":11687:11706   */\n      swap1\n      pop\n        /* \"#utility.yul\":11346:11712   */\n      swap2\n      swap1\n      pop\n      jump\t// out\n        /* \"#utility.yul\":11718:12137   */\n    tag_126:\n        /* \"#utility.yul\":11884:11888   */\n      0x00\n        /* \"#utility.yul\":11922:11924   */\n      0x20\n        /* \"#utility.yul\":11911:11920   */\n      dup3\n        /* \"#utility.yul\":11907:11925   */\n      add\n        /* \"#utility.yul\":11899:11925   */\n      swap1\n      pop\n        /* \"#utility.yul\":11971:11980   */\n      dup2\n        /* \"#utility.yul\":11965:11969   */\n      dup2\n        /* \"#utility.yul\":11961:11981   */\n      sub\n        /* \"#utility.yul\":11957:11958   */\n      0x00\n        /* \"#utility.yul\":11946:11955   */\n      dup4\n        /* \"#utility.yul\":11942:11959   */\n      add\n        /* \"#utility.yul\":11935:11982   */\n      mstore\n        /* \"#utility.yul\":11999:12130   */\n      tag_341\n        /* \"#utility.yul\":12125:12129   */\n      dup2\n        /* \"#utility.yul\":11999:12130   */\n      tag_221\n      jump\t// in\n    tag_341:\n        /* \"#utility.yul\":11991:12130   */\n      swap1\n      pop\n        /* \"#utility.yul\":11718:12137   */\n      swap2\n      swap1\n      pop\n      jump\t// out\n        /* \"#utility.yul\":12143:12324   */\n    tag_222:\n        /* \"#utility.yul\":12283:12316   */\n      0x5072696365206d7573742062652067726561746572207468616e207a65726f00\n        /* \"#utility.yul\":12279:12280   */\n      0x00\n        /* \"#utility.yul\":12271:12277   */\n      dup3\n        /* \"#utility.yul\":12267:12281   */\n      add\n        /* \"#utility.yul\":12260:12317   */\n      mstore\n        /* \"#utility.yul\":12143:12324   */\n      pop\n      jump\t// out\n        /* \"#utility.yul\":12330:12696   */\n    tag_223:\n        /* \"#utility.yul\":12472:12475   */\n      0x00\n        /* \"#utility.yul\":12493:12560   */\n      tag_344\n        /* \"#utility.yul\":12557:12559   */\n      0x1f\n        /* \"#utility.yul\":12552:12555   */\n      dup4\n        /* \"#utility.yul\":12493:12560   */\n      tag_204\n      jump\t// in\n    tag_344:\n        /* \"#utility.yul\":12486:12560   */\n      swap2\n      pop\n        /* \"#utility.yul\":12569:12662   */\n      tag_345\n        /* \"#utility.yul\":12658:12661   */\n      dup3\n        /* \"#utility.yul\":12569:12662   */\n      tag_222\n      jump\t// in\n    tag_345:\n        /* \"#utility.yul\":12687:12689   */\n      0x20\n        /* \"#utility.yul\":12682:12685   */\n      dup3\n        /* \"#utility.yul\":12678:12690   */\n      add\n        /* \"#utility.yul\":12671:12690   */\n      swap1\n      pop\n        /* \"#utility.yul\":12330:12696   */\n      swap2\n      swap1\n      pop\n      jump\t// out\n        /* \"#utility.yul\":12702:13121   */\n    tag_134:\n        /* \"#utility.yul\":12868:12872   */\n      0x00\n        /* \"#utility.yul\":12906:12908   */\n      0x20\n        /* \"#utility.yul\":12895:12904   */\n      dup3\n        /* \"#utility.yul\":12891:12909   */\n      add\n        /* \"#utility.yul\":12883:12909   */\n      swap1\n      pop\n        /* \"#utility.yul\":12955:12964   */\n      dup2\n        /* \"#utility.yul\":12949:12953   */\n      dup2\n        /* \"#utility.yul\":12945:12965   */\n      sub\n        /* \"#utility.yul\":12941:12942   */\n      0x00\n        /* \"#utility.yul\":12930:12939   */\n      dup4\n        /* \"#utility.yul\":12926:12943   */\n      add\n        /* \"#utility.yul\":12919:12966   */\n      mstore\n        /* \"#utility.yul\":12983:13114   */\n      tag_347\n        /* \"#utility.yul\":13109:13113   */\n      dup2\n        /* \"#utility.yul\":12983:13114   */\n      tag_223\n      jump\t// in\n    tag_347:\n        /* \"#utility.yul\":12975:13114   */\n      swap1\n      pop\n        /* \"#utility.yul\":12702:13121   */\n      swap2\n      swap1\n      pop\n      jump\t// out\n        /* \"#utility.yul\":13127:13459   */\n    tag_136:\n        /* \"#utility.yul\":13248:13252   */\n      0x00\n        /* \"#utility.yul\":13286:13288   */\n      0x40\n        /* \"#utility.yul\":13275:13284   */\n      dup3\n        /* \"#utility.yul\":13271:13289   */\n      add\n        /* \"#utility.yul\":13263:13289   */\n      swap1\n      pop\n        /* \"#utility.yul\":13299:13370   */\n      tag_349\n        /* \"#utility.yul\":13367:13368   */\n      0x00\n        /* \"#utility.yul\":13356:13365   */\n      dup4\n        /* \"#utility.yul\":13352:13369   */\n      add\n        /* \"#utility.yul\":13343:13349   */\n      dup6\n        /* \"#utility.yul\":13299:13370   */\n      tag_187\n      jump\t// in\n    tag_349:\n        /* \"#utility.yul\":13380:13452   */\n      tag_350\n        /* \"#utility.yul\":13448:13450   */\n      0x20\n        /* \"#utility.yul\":13437:13446   */\n      dup4\n        /* \"#utility.yul\":13433:13451   */\n      add\n        /* \"#utility.yul\":13424:13430   */\n      dup5\n        /* \"#utility.yul\":13380:13452   */\n      tag_187\n      jump\t// in\n    tag_350:\n        /* \"#utility.yul\":13127:13459   */\n      swap4\n      swap3\n      pop\n      pop\n      pop\n      jump\t// out\n        /* \"#utility.yul\":13465:13685   */\n    tag_224:\n        /* \"#utility.yul\":13605:13639   */\n      0x496e73756666696369656e74204e617275746f20746f6b656e2062616c616e63\n        /* \"#utility.yul\":13601:13602   */\n      0x00\n        /* \"#utility.yul\":13593:13599   */\n      dup3\n        /* \"#utility.yul\":13589:13603   */\n      add\n        /* \"#utility.yul\":13582:13640   */\n      mstore\n        /* \"#utility.yul\":13674:13677   */\n      0x6500000000000000000000000000000000000000000000000000000000000000\n        /* \"#utility.yul\":13669:13671   */\n      0x20\n        /* \"#utility.yul\":13661:13667   */\n      dup3\n        /* \"#utility.yul\":13657:13672   */\n      add\n        /* \"#utility.yul\":13650:13678   */\n      mstore\n        /* \"#utility.yul\":13465:13685   */\n      pop\n      jump\t// out\n        /* \"#utility.yul\":13691:14057   */\n    tag_225:\n        /* \"#utility.yul\":13833:13836   */\n      0x00\n        /* \"#utility.yul\":13854:13921   */\n      tag_353\n        /* \"#utility.yul\":13918:13920   */\n      0x21\n        /* \"#utility.yul\":13913:13916   */\n      dup4\n        /* \"#utility.yul\":13854:13921   */\n      tag_204\n      jump\t// in\n    tag_353:\n        /* \"#utility.yul\":13847:13921   */\n      swap2\n      pop\n        /* \"#utility.yul\":13930:14023   */\n      tag_354\n        /* \"#utility.yul\":14019:14022   */\n      dup3\n        /* \"#utility.yul\":13930:14023   */\n      tag_224\n      jump\t// in\n    tag_354:\n        /* \"#utility.yul\":14048:14050   */\n      0x40\n        /* \"#utility.yul\":14043:14046   */\n      dup3\n        /* \"#utility.yul\":14039:14051   */\n      add\n        /* \"#utility.yul\":14032:14051   */\n      swap1\n      pop\n        /* \"#utility.yul\":13691:14057   */\n      swap2\n      swap1\n      pop\n      jump\t// out\n        /* \"#utility.yul\":14063:14482   */\n    tag_156:\n        /* \"#utility.yul\":14229:14233   */\n      0x00\n        /* \"#utility.yul\":14267:14269   */\n      0x20\n        /* \"#utility.yul\":14256:14265   */\n      dup3\n        /* \"#utility.yul\":14252:14270   */\n      add\n        /* \"#utility.yul\":14244:14270   */\n      swap1\n      pop\n        /* \"#utility.yul\":14316:14325   */\n      dup2\n        /* \"#utility.yul\":14310:14314   */\n      dup2\n        /* \"#utility.yul\":14306:14326   */\n      sub\n        /* \"#utility.yul\":14302:14303   */\n      0x00\n        /* \"#utility.yul\":14291:14300   */\n      dup4\n        /* \"#utility.yul\":14287:14304   */\n      add\n        /* \"#utility.yul\":14280:14327   */\n      mstore\n        /* \"#utility.yul\":14344:14475   */\n      tag_356\n        /* \"#utility.yul\":14470:14474   */\n      dup2\n        /* \"#utility.yul\":14344:14475   */\n      tag_225\n      jump\t// in\n    tag_356:\n        /* \"#utility.yul\":14336:14475   */\n      swap1\n      pop\n        /* \"#utility.yul\":14063:14482   */\n      swap2\n      swap1\n      pop\n      jump\t// out\n        /* \"#utility.yul\":14488:14668   */\n    tag_226:\n        /* \"#utility.yul\":14628:14660   */\n      0x4e617275746f20746f6b656e207769746864726177616c206661696c65640000\n        /* \"#utility.yul\":14624:14625   */\n      0x00\n        /* \"#utility.yul\":14616:14622   */\n      dup3\n        /* \"#utility.yul\":14612:14626   */\n      add\n        /* \"#utility.yul\":14605:14661   */\n      mstore\n        /* \"#utility.yul\":14488:14668   */\n      pop\n      jump\t// out\n        /* \"#utility.yul\":14674:15040   */\n    tag_227:\n        /* \"#utility.yul\":14816:14819   */\n      0x00\n        /* \"#utility.yul\":14837:14904   */\n      tag_359\n        /* \"#utility.yul\":14901:14903   */\n      0x1e\n        /* \"#utility.yul\":14896:14899   */\n      dup4\n        /* \"#utility.yul\":14837:14904   */\n      tag_204\n      jump\t// in\n    tag_359:\n        /* \"#utility.yul\":14830:14904   */\n      swap2\n      pop\n        /* \"#utility.yul\":14913:15006   */\n      tag_360\n        /* \"#utility.yul\":15002:15005   */\n      dup3\n        /* \"#utility.yul\":14913:15006   */\n      tag_226\n      jump\t// in\n    tag_360:\n        /* \"#utility.yul\":15031:15033   */\n      0x20\n        /* \"#utility.yul\":15026:15029   */\n      dup3\n        /* \"#utility.yul\":15022:15034   */\n      add\n        /* \"#utility.yul\":15015:15034   */\n      swap1\n      pop\n        /* \"#utility.yul\":14674:15040   */\n      swap2\n      swap1\n      pop\n      jump\t// out\n        /* \"#utility.yul\":15046:15465   */\n    tag_164:\n        /* \"#utility.yul\":15212:15216   */\n      0x00\n        /* \"#utility.yul\":15250:15252   */\n      0x20\n        /* \"#utility.yul\":15239:15248   */\n      dup3\n        /* \"#utility.yul\":15235:15253   */\n      add\n        /* \"#utility.yul\":15227:15253   */\n      swap1\n      pop\n        /* \"#utility.yul\":15299:15308   */\n      dup2\n        /* \"#utility.yul\":15293:15297   */\n      dup2\n        /* \"#utility.yul\":15289:15309   */\n      sub\n        /* \"#utility.yul\":15285:15286   */\n      0x00\n        /* \"#utility.yul\":15274:15283   */\n      dup4\n        /* \"#utility.yul\":15270:15287   */\n      add\n        /* \"#utility.yul\":15263:15310   */\n      mstore\n        /* \"#utility.yul\":15327:15458   */\n      tag_362\n        /* \"#utility.yul\":15453:15457   */\n      dup2\n        /* \"#utility.yul\":15327:15458   */\n      tag_227\n      jump\t// in\n    tag_362:\n        /* \"#utility.yul\":15319:15458   */\n      swap1\n      pop\n        /* \"#utility.yul\":15046:15465   */\n      swap2\n      swap1\n      pop\n      jump\t// out\n\n    auxdata: 0xa2646970667358221220f833432564c61725509292e744f8fc0018dabc5c64f85494967ba18420a7e4bd64736f6c63430008160033\n}\n",
				"bytecode": {
					"linkReferences": {},
					"object": "608060405234801562000010575f80fd5b5060405162001ac638038062001ac6833981810160405281019062000036919062000353565b335f73ffffffffffffffffffffffffffffffffffffffff168173ffffffffffffffffffffffffffffffffffffffff1603620000aa575f6040517f1e4fbdf7000000000000000000000000000000000000000000000000000000008152600401620000a19190620003a9565b60405180910390fd5b620000bb816200022d60201b60201c565b50600180819055505f73ffffffffffffffffffffffffffffffffffffffff168273ffffffffffffffffffffffffffffffffffffffff160362000134576040517f08c379a00000000000000000000000000000000000000000000000000000000081526004016200012b9062000422565b60405180910390fd5b5f73ffffffffffffffffffffffffffffffffffffffff168173ffffffffffffffffffffffffffffffffffffffff1603620001a5576040517f08c379a00000000000000000000000000000000000000000000000000000000081526004016200019c9062000490565b60405180910390fd5b8160025f6101000a81548173ffffffffffffffffffffffffffffffffffffffff021916908373ffffffffffffffffffffffffffffffffffffffff1602179055508060035f6101000a81548173ffffffffffffffffffffffffffffffffffffffff021916908373ffffffffffffffffffffffffffffffffffffffff1602179055505050620004b0565b5f805f9054906101000a900473ffffffffffffffffffffffffffffffffffffffff169050815f806101000a81548173ffffffffffffffffffffffffffffffffffffffff021916908373ffffffffffffffffffffffffffffffffffffffff1602179055508173ffffffffffffffffffffffffffffffffffffffff168173ffffffffffffffffffffffffffffffffffffffff167f8be0079c531659141344cd1fd0a4f28419497f9722a3daafe3b4186f6b6457e060405160405180910390a35050565b5f80fd5b5f73ffffffffffffffffffffffffffffffffffffffff82169050919050565b5f6200031d82620002f2565b9050919050565b6200032f8162000311565b81146200033a575f80fd5b50565b5f815190506200034d8162000324565b92915050565b5f80604083850312156200036c576200036b620002ee565b5b5f6200037b858286016200033d565b92505060206200038e858286016200033d565b9150509250929050565b620003a38162000311565b82525050565b5f602082019050620003be5f83018462000398565b92915050565b5f82825260208201905092915050565b7f496e76616c6964204e617275746f20746f6b656e2061646472657373000000005f82015250565b5f6200040a601c83620003c4565b91506200041782620003d4565b602082019050919050565b5f6020820190508181035f8301526200043b81620003fc565b9050919050565b7f496e76616c6964205553445420616464726573730000000000000000000000005f82015250565b5f62000478601483620003c4565b9150620004858262000442565b602082019050919050565b5f6020820190508181035f830152620004a9816200046a565b9050919050565b61160880620004be5f395ff3fe608060405234801561000f575f80fd5b50600436106100b2575f3560e01c80638d6cc56d1161006f5780638d6cc56d146101525780638da5cb5b1461016e5780639785fac81461018c578063a98ad46c146101aa578063b042ee53146101c8578063f2fde38b146101e4576100b2565b80630f09445f146100b65780633ea521ef146100d4578063715018a6146100f05780637b97008d146100fa5780637ff9b596146101165780638b4cccb114610134575b5f80fd5b6100be610200565b6040516100cb9190610ebc565b60405180910390f35b6100ee60048036038101906100e99190610f03565b61029f565b005b6100f861050e565b005b610114600480360381019061010f9190610f03565b610521565b005b61011e610869565b60405161012b9190610ebc565b60405180910390f35b61013c61086f565b6040516101499190610fa8565b60405180910390f35b61016c60048036038101906101679190610f03565b610894565b005b610176610928565b6040516101839190610fe1565b60405180910390f35b61019461094f565b6040516101a19190610ebc565b60405180910390f35b6101b26109ee565b6040516101bf9190610fa8565b60405180910390f35b6101e260048036038101906101dd9190610f03565b610a13565b005b6101fe60048036038101906101f99190611024565b610c82565b005b5f60025f9054906101000a900473ffffffffffffffffffffffffffffffffffffffff1673ffffffffffffffffffffffffffffffffffffffff166370a08231306040518263ffffffff1660e01b815260040161025b9190610fe1565b602060405180830381865afa158015610276573d5f803e3d5ffd5b505050506040513d601f19601f8201168201806040525081019061029a9190611063565b905090565b6102a7610d06565b6102af610d8d565b5f81116102f1576040517f08c379a00000000000000000000000000000000000000000000000000000000081526004016102e8906110e8565b60405180910390fd5b8060035f9054906101000a900473ffffffffffffffffffffffffffffffffffffffff1673ffffffffffffffffffffffffffffffffffffffff166370a08231306040518263ffffffff1660e01b815260040161034c9190610fe1565b602060405180830381865afa158015610367573d5f803e3d5ffd5b505050506040513d601f19601f8201168201806040525081019061038b9190611063565b10156103cc576040517f08c379a00000000000000000000000000000000000000000000000000000000081526004016103c390611150565b60405180910390fd5b60035f9054906101000a900473ffffffffffffffffffffffffffffffffffffffff1673ffffffffffffffffffffffffffffffffffffffff1663a9059cbb610411610928565b836040518363ffffffff1660e01b815260040161042f92919061116e565b6020604051808303815f875af115801561044b573d5f803e3d5ffd5b505050506040513d601f19601f8201168201806040525081019061046f91906111ca565b6104ae576040517f08c379a00000000000000000000000000000000000000000000000000000000081526004016104a59061123f565b60405180910390fd5b6104b6610928565b73ffffffffffffffffffffffffffffffffffffffff167fb0bd88cdae83f74f918eb6bf26d99dcb3c1530530f339233b029e3b6a00ac50b826040516104fb9190610ebc565b60405180910390a261050b610dd3565b50565b610516610d06565b61051f5f610ddc565b565b610529610d8d565b5f811161056b576040517f08c379a0000000000000000000000000000000000000000000000000000000008152600401610562906110e8565b60405180910390fd5b8060025f9054906101000a900473ffffffffffffffffffffffffffffffffffffffff1673ffffffffffffffffffffffffffffffffffffffff166370a08231306040518263ffffffff1660e01b81526004016105c69190610fe1565b602060405180830381865afa1580156105e1573d5f803e3d5ffd5b505050506040513d601f19601f820116820180604052508101906106059190611063565b1015610646576040517f08c379a000000000000000000000000000000000000000000000000000000000815260040161063d906112cd565b60405180910390fd5b5f600454826106559190611318565b905060035f9054906101000a900473ffffffffffffffffffffffffffffffffffffffff1673ffffffffffffffffffffffffffffffffffffffff166323b872dd3330856040518463ffffffff1660e01b81526004016106b593929190611348565b6020604051808303815f875af11580156106d1573d5f803e3d5ffd5b505050506040513d601f19601f820116820180604052508101906106f591906111ca565b610734576040517f08c379a000000000000000000000000000000000000000000000000000000000815260040161072b906113c7565b60405180910390fd5b60025f9054906101000a900473ffffffffffffffffffffffffffffffffffffffff1673ffffffffffffffffffffffffffffffffffffffff1663a9059cbb33836040518363ffffffff1660e01b815260040161079092919061116e565b6020604051808303815f875af11580156107ac573d5f803e3d5ffd5b505050506040513d601f19601f820116820180604052508101906107d091906111ca565b61080f576040517f08c379a00000000000000000000000000000000000000000000000000000000081526004016108069061142f565b60405180910390fd5b3373ffffffffffffffffffffffffffffffffffffffff167f8f28852646c20cc973d3a8218f7eefed58c25c909f78f0265af4818c3d4dc271826040516108559190610ebc565b60405180910390a250610866610dd3565b50565b60045481565b60025f9054906101000a900473ffffffffffffffffffffffffffffffffffffffff1681565b61089c610d06565b5f81116108de576040517f08c379a00000000000000000000000000000000000000000000000000000000081526004016108d590611497565b60405180910390fd5b5f6004549050816004819055507fd9cc159fa79112d02593601db522a6696e6c5c82d9e9ca9332f89ec824935bb0818360405161091c9291906114b5565b60405180910390a15050565b5f805f9054906101000a900473ffffffffffffffffffffffffffffffffffffffff16905090565b5f60035f9054906101000a900473ffffffffffffffffffffffffffffffffffffffff1673ffffffffffffffffffffffffffffffffffffffff166370a08231306040518263ffffffff1660e01b81526004016109aa9190610fe1565b602060405180830381865afa1580156109c5573d5f803e3d5ffd5b505050506040513d601f19601f820116820180604052508101906109e99190611063565b905090565b60035f9054906101000a900473ffffffffffffffffffffffffffffffffffffffff1681565b610a1b610d06565b610a23610d8d565b5f8111610a65576040517f08c379a0000000000000000000000000000000000000000000000000000000008152600401610a5c906110e8565b60405180910390fd5b8060025f9054906101000a900473ffffffffffffffffffffffffffffffffffffffff1673ffffffffffffffffffffffffffffffffffffffff166370a08231306040518263ffffffff1660e01b8152600401610ac09190610fe1565b602060405180830381865afa158015610adb573d5f803e3d5ffd5b505050506040513d601f19601f82011682018060405250810190610aff9190611063565b1015610b40576040517f08c379a0000000000000000000000000000000000000000000000000000000008152600401610b379061154c565b60405180910390fd5b60025f9054906101000a900473ffffffffffffffffffffffffffffffffffffffff1673ffffffffffffffffffffffffffffffffffffffff1663a9059cbb610b85610928565b836040518363ffffffff1660e01b8152600401610ba392919061116e565b6020604051808303815f875af1158015610bbf573d5f803e3d5ffd5b505050506040513d601f19601f82011682018060405250810190610be391906111ca565b610c22576040517f08c379a0000000000000000000000000000000000000000000000000000000008152600401610c19906115b4565b60405180910390fd5b610c2a610928565b73ffffffffffffffffffffffffffffffffffffffff167f6352c5382c4a4578e712449ca65e83cdb392d045dfcf1cad9615189db2da244b82604051610c6f9190610ebc565b60405180910390a2610c7f610dd3565b50565b610c8a610d06565b5f73ffffffffffffffffffffffffffffffffffffffff168173ffffffffffffffffffffffffffffffffffffffff1603610cfa575f6040517f1e4fbdf7000000000000000000000000000000000000000000000000000000008152600401610cf19190610fe1565b60405180910390fd5b610d0381610ddc565b50565b610d0e610e9d565b73ffffffffffffffffffffffffffffffffffffffff16610d2c610928565b73ffffffffffffffffffffffffffffffffffffffff1614610d8b57610d4f610e9d565b6040517f118cdaa7000000000000000000000000000000000000000000000000000000008152600401610d829190610fe1565b60405180910390fd5b565b600260015403610dc9576040517f3ee5aeb500000000000000000000000000000000000000000000000000000000815260040160405180910390fd5b6002600181905550565b60018081905550565b5f805f9054906101000a900473ffffffffffffffffffffffffffffffffffffffff169050815f806101000a81548173ffffffffffffffffffffffffffffffffffffffff021916908373ffffffffffffffffffffffffffffffffffffffff1602179055508173ffffffffffffffffffffffffffffffffffffffff168173ffffffffffffffffffffffffffffffffffffffff167f8be0079c531659141344cd1fd0a4f28419497f9722a3daafe3b4186f6b6457e060405160405180910390a35050565b5f33905090565b5f819050919050565b610eb681610ea4565b82525050565b5f602082019050610ecf5f830184610ead565b92915050565b5f80fd5b610ee281610ea4565b8114610eec575f80fd5b50565b5f81359050610efd81610ed9565b92915050565b5f60208284031215610f1857610f17610ed5565b5b5f610f2584828501610eef565b91505092915050565b5f73ffffffffffffffffffffffffffffffffffffffff82169050919050565b5f819050919050565b5f610f70610f6b610f6684610f2e565b610f4d565b610f2e565b9050919050565b5f610f8182610f56565b9050919050565b5f610f9282610f77565b9050919050565b610fa281610f88565b82525050565b5f602082019050610fbb5f830184610f99565b92915050565b5f610fcb82610f2e565b9050919050565b610fdb81610fc1565b82525050565b5f602082019050610ff45f830184610fd2565b92915050565b61100381610fc1565b811461100d575f80fd5b50565b5f8135905061101e81610ffa565b92915050565b5f6020828403121561103957611038610ed5565b5b5f61104684828501611010565b91505092915050565b5f8151905061105d81610ed9565b92915050565b5f6020828403121561107857611077610ed5565b5b5f6110858482850161104f565b91505092915050565b5f82825260208201905092915050565b7f416d6f756e74206d7573742062652067726561746572207468616e20300000005f82015250565b5f6110d2601d8361108e565b91506110dd8261109e565b602082019050919050565b5f6020820190508181035f8301526110ff816110c6565b9050919050565b7f496e73756666696369656e7420555344542062616c616e6365000000000000005f82015250565b5f61113a60198361108e565b915061114582611106565b602082019050919050565b5f6020820190508181035f8301526111678161112e565b9050919050565b5f6040820190506111815f830185610fd2565b61118e6020830184610ead565b9392505050565b5f8115159050919050565b6111a981611195565b81146111b3575f80fd5b50565b5f815190506111c4816111a0565b92915050565b5f602082840312156111df576111de610ed5565b5b5f6111ec848285016111b6565b91505092915050565b7f55534454207769746864726177616c206661696c6564000000000000000000005f82015250565b5f61122960168361108e565b9150611234826111f5565b602082019050919050565b5f6020820190508181035f8301526112568161121d565b9050919050565b7f496e73756666696369656e74204e617275746f20746f6b656e7320696e20636f5f8201527f6e74726163740000000000000000000000000000000000000000000000000000602082015250565b5f6112b760268361108e565b91506112c28261125d565b604082019050919050565b5f6020820190508181035f8301526112e4816112ab565b9050919050565b7f4e487b71000000000000000000000000000000000000000000000000000000005f52601260045260245ffd5b5f61132282610ea4565b915061132d83610ea4565b92508261133d5761133c6112eb565b5b828204905092915050565b5f60608201905061135b5f830186610fd2565b6113686020830185610fd2565b6113756040830184610ead565b949350505050565b7f55534454207472616e73666572206661696c65640000000000000000000000005f82015250565b5f6113b160148361108e565b91506113bc8261137d565b602082019050919050565b5f6020820190508181035f8301526113de816113a5565b9050919050565b7f4e617275746f20746f6b656e207472616e73666572206661696c6564000000005f82015250565b5f611419601c8361108e565b9150611424826113e5565b602082019050919050565b5f6020820190508181035f8301526114468161140d565b9050919050565b7f5072696365206d7573742062652067726561746572207468616e207a65726f005f82015250565b5f611481601f8361108e565b915061148c8261144d565b602082019050919050565b5f6020820190508181035f8301526114ae81611475565b9050919050565b5f6040820190506114c85f830185610ead565b6114d56020830184610ead565b9392505050565b7f496e73756666696369656e74204e617275746f20746f6b656e2062616c616e635f8201527f6500000000000000000000000000000000000000000000000000000000000000602082015250565b5f61153660218361108e565b9150611541826114dc565b604082019050919050565b5f6020820190508181035f8301526115638161152a565b9050919050565b7f4e617275746f20746f6b656e207769746864726177616c206661696c656400005f82015250565b5f61159e601e8361108e565b91506115a98261156a565b602082019050919050565b5f6020820190508181035f8301526115cb81611592565b905091905056fea2646970667358221220f833432564c61725509292e744f8fc0018dabc5c64f85494967ba18420a7e4bd64736f6c63430008160033",
					"opcodes": "PUSH1 0x80 PUSH1 0x40 MSTORE CALLVALUE DUP1 ISZERO PUSH3 0x10 JUMPI PUSH0 DUP1 REVERT JUMPDEST POP PUSH1 0x40 MLOAD PUSH3 0x1AC6 CODESIZE SUB DUP1 PUSH3 0x1AC6 DUP4 CODECOPY DUP2 DUP2 ADD PUSH1 0x40 MSTORE DUP2 ADD SWAP1 PUSH3 0x36 SWAP2 SWAP1 PUSH3 0x353 JUMP JUMPDEST CALLER PUSH0 PUSH20 0xFFFFFFFFFFFFFFFFFFFFFFFFFFFFFFFFFFFFFFFF AND DUP2 PUSH20 0xFFFFFFFFFFFFFFFFFFFFFFFFFFFFFFFFFFFFFFFF AND SUB PUSH3 0xAA JUMPI PUSH0 PUSH1 0x40 MLOAD PUSH32 0x1E4FBDF700000000000000000000000000000000000000000000000000000000 DUP2 MSTORE PUSH1 0x4 ADD PUSH3 0xA1 SWAP2 SWAP1 PUSH3 0x3A9 JUMP JUMPDEST PUSH1 0x40 MLOAD DUP1 SWAP2 SUB SWAP1 REVERT JUMPDEST PUSH3 0xBB DUP2 PUSH3 0x22D PUSH1 0x20 SHL PUSH1 0x20 SHR JUMP JUMPDEST POP PUSH1 0x1 DUP1 DUP2 SWAP1 SSTORE POP PUSH0 PUSH20 0xFFFFFFFFFFFFFFFFFFFFFFFFFFFFFFFFFFFFFFFF AND DUP3 PUSH20 0xFFFFFFFFFFFFFFFFFFFFFFFFFFFFFFFFFFFFFFFF AND SUB PUSH3 0x134 JUMPI PUSH1 0x40 MLOAD PUSH32 0x8C379A000000000000000000000000000000000000000000000000000000000 DUP2 MSTORE PUSH1 0x4 ADD PUSH3 0x12B SWAP1 PUSH3 0x422 JUMP JUMPDEST PUSH1 0x40 MLOAD DUP1 SWAP2 SUB SWAP1 REVERT JUMPDEST PUSH0 PUSH20 0xFFFFFFFFFFFFFFFFFFFFFFFFFFFFFFFFFFFFFFFF AND DUP2 PUSH20 0xFFFFFFFFFFFFFFFFFFFFFFFFFFFFFFFFFFFFFFFF AND SUB PUSH3 0x1A5 JUMPI PUSH1 0x40 MLOAD PUSH32 0x8C379A000000000000000000000000000000000000000000000000000000000 DUP2 MSTORE PUSH1 0x4 ADD PUSH3 0x19C SWAP1 PUSH3 0x490 JUMP JUMPDEST PUSH1 0x40 MLOAD DUP1 SWAP2 SUB SWAP1 REVERT JUMPDEST DUP2 PUSH1 0x2 PUSH0 PUSH2 0x100 EXP DUP2 SLOAD DUP2 PUSH20 0xFFFFFFFFFFFFFFFFFFFFFFFFFFFFFFFFFFFFFFFF MUL NOT AND SWAP1 DUP4 PUSH20 0xFFFFFFFFFFFFFFFFFFFFFFFFFFFFFFFFFFFFFFFF AND MUL OR SWAP1 SSTORE POP DUP1 PUSH1 0x3 PUSH0 PUSH2 0x100 EXP DUP2 SLOAD DUP2 PUSH20 0xFFFFFFFFFFFFFFFFFFFFFFFFFFFFFFFFFFFFFFFF MUL NOT AND SWAP1 DUP4 PUSH20 0xFFFFFFFFFFFFFFFFFFFFFFFFFFFFFFFFFFFFFFFF AND MUL OR SWAP1 SSTORE POP POP POP PUSH3 0x4B0 JUMP JUMPDEST PUSH0 DUP1 PUSH0 SWAP1 SLOAD SWAP1 PUSH2 0x100 EXP SWAP1 DIV PUSH20 0xFFFFFFFFFFFFFFFFFFFFFFFFFFFFFFFFFFFFFFFF AND SWAP1 POP DUP2 PUSH0 DUP1 PUSH2 0x100 EXP DUP2 SLOAD DUP2 PUSH20 0xFFFFFFFFFFFFFFFFFFFFFFFFFFFFFFFFFFFFFFFF MUL NOT AND SWAP1 DUP4 PUSH20 0xFFFFFFFFFFFFFFFFFFFFFFFFFFFFFFFFFFFFFFFF AND MUL OR SWAP1 SSTORE POP DUP2 PUSH20 0xFFFFFFFFFFFFFFFFFFFFFFFFFFFFFFFFFFFFFFFF AND DUP2 PUSH20 0xFFFFFFFFFFFFFFFFFFFFFFFFFFFFFFFFFFFFFFFF AND PUSH32 0x8BE0079C531659141344CD1FD0A4F28419497F9722A3DAAFE3B4186F6B6457E0 PUSH1 0x40 MLOAD PUSH1 0x40 MLOAD DUP1 SWAP2 SUB SWAP1 LOG3 POP POP JUMP JUMPDEST PUSH0 DUP1 REVERT JUMPDEST PUSH0 PUSH20 0xFFFFFFFFFFFFFFFFFFFFFFFFFFFFFFFFFFFFFFFF DUP3 AND SWAP1 POP SWAP2 SWAP1 POP JUMP JUMPDEST PUSH0 PUSH3 0x31D DUP3 PUSH3 0x2F2 JUMP JUMPDEST SWAP1 POP SWAP2 SWAP1 POP JUMP JUMPDEST PUSH3 0x32F DUP2 PUSH3 0x311 JUMP JUMPDEST DUP2 EQ PUSH3 0x33A JUMPI PUSH0 DUP1 REVERT JUMPDEST POP JUMP JUMPDEST PUSH0 DUP2 MLOAD SWAP1 POP PUSH3 0x34D DUP2 PUSH3 0x324 JUMP JUMPDEST SWAP3 SWAP2 POP POP JUMP JUMPDEST PUSH0 DUP1 PUSH1 0x40 DUP4 DUP6 SUB SLT ISZERO PUSH3 0x36C JUMPI PUSH3 0x36B PUSH3 0x2EE JUMP JUMPDEST JUMPDEST PUSH0 PUSH3 0x37B DUP6 DUP3 DUP7 ADD PUSH3 0x33D JUMP JUMPDEST SWAP3 POP POP PUSH1 0x20 PUSH3 0x38E DUP6 DUP3 DUP7 ADD PUSH3 0x33D JUMP JUMPDEST SWAP2 POP POP SWAP3 POP SWAP3 SWAP1 POP JUMP JUMPDEST PUSH3 0x3A3 DUP2 PUSH3 0x311 JUMP JUMPDEST DUP3 MSTORE POP POP JUMP JUMPDEST PUSH0 PUSH1 0x20 DUP3 ADD SWAP1 POP PUSH3 0x3BE PUSH0 DUP4 ADD DUP5 PUSH3 0x398 JUMP JUMPDEST SWAP3 SWAP2 POP POP JUMP JUMPDEST PUSH0 DUP3 DUP3 MSTORE PUSH1 0x20 DUP3 ADD SWAP1 POP SWAP3 SWAP2 POP POP JUMP JUMPDEST PUSH32 0x496E76616C6964204E617275746F20746F6B656E206164647265737300000000 PUSH0 DUP3 ADD MSTORE POP JUMP JUMPDEST PUSH0 PUSH3 0x40A PUSH1 0x1C DUP4 PUSH3 0x3C4 JUMP JUMPDEST SWAP2 POP PUSH3 0x417 DUP3 PUSH3 0x3D4 JUMP JUMPDEST PUSH1 0x20 DUP3 ADD SWAP1 POP SWAP2 SWAP1 POP JUMP JUMPDEST PUSH0 PUSH1 0x20 DUP3 ADD SWAP1 POP DUP2 DUP2 SUB PUSH0 DUP4 ADD MSTORE PUSH3 0x43B DUP2 PUSH3 0x3FC JUMP JUMPDEST SWAP1 POP SWAP2 SWAP1 POP JUMP JUMPDEST PUSH32 0x496E76616C696420555344542061646472657373000000000000000000000000 PUSH0 DUP3 ADD MSTORE POP JUMP JUMPDEST PUSH0 PUSH3 0x478 PUSH1 0x14 DUP4 PUSH3 0x3C4 JUMP JUMPDEST SWAP2 POP PUSH3 0x485 DUP3 PUSH3 0x442 JUMP JUMPDEST PUSH1 0x20 DUP3 ADD SWAP1 POP SWAP2 SWAP1 POP JUMP JUMPDEST PUSH0 PUSH1 0x20 DUP3 ADD SWAP1 POP DUP2 DUP2 SUB PUSH0 DUP4 ADD MSTORE PUSH3 0x4A9 DUP2 PUSH3 0x46A JUMP JUMPDEST SWAP1 POP SWAP2 SWAP1 POP JUMP JUMPDEST PUSH2 0x1608 DUP1 PUSH3 0x4BE PUSH0 CODECOPY PUSH0 RETURN INVALID PUSH1 0x80 PUSH1 0x40 MSTORE CALLVALUE DUP1 ISZERO PUSH2 0xF JUMPI PUSH0 DUP1 REVERT JUMPDEST POP PUSH1 0x4 CALLDATASIZE LT PUSH2 0xB2 JUMPI PUSH0 CALLDATALOAD PUSH1 0xE0 SHR DUP1 PUSH4 0x8D6CC56D GT PUSH2 0x6F JUMPI DUP1 PUSH4 0x8D6CC56D EQ PUSH2 0x152 JUMPI DUP1 PUSH4 0x8DA5CB5B EQ PUSH2 0x16E JUMPI DUP1 PUSH4 0x9785FAC8 EQ PUSH2 0x18C JUMPI DUP1 PUSH4 0xA98AD46C EQ PUSH2 0x1AA JUMPI DUP1 PUSH4 0xB042EE53 EQ PUSH2 0x1C8 JUMPI DUP1 PUSH4 0xF2FDE38B EQ PUSH2 0x1E4 JUMPI PUSH2 0xB2 JUMP JUMPDEST DUP1 PUSH4 0xF09445F EQ PUSH2 0xB6 JUMPI DUP1 PUSH4 0x3EA521EF EQ PUSH2 0xD4 JUMPI DUP1 PUSH4 0x715018A6 EQ PUSH2 0xF0 JUMPI DUP1 PUSH4 0x7B97008D EQ PUSH2 0xFA JUMPI DUP1 PUSH4 0x7FF9B596 EQ PUSH2 0x116 JUMPI DUP1 PUSH4 0x8B4CCCB1 EQ PUSH2 0x134 JUMPI JUMPDEST PUSH0 DUP1 REVERT JUMPDEST PUSH2 0xBE PUSH2 0x200 JUMP JUMPDEST PUSH1 0x40 MLOAD PUSH2 0xCB SWAP2 SWAP1 PUSH2 0xEBC JUMP JUMPDEST PUSH1 0x40 MLOAD DUP1 SWAP2 SUB SWAP1 RETURN JUMPDEST PUSH2 0xEE PUSH1 0x4 DUP1 CALLDATASIZE SUB DUP2 ADD SWAP1 PUSH2 0xE9 SWAP2 SWAP1 PUSH2 0xF03 JUMP JUMPDEST PUSH2 0x29F JUMP JUMPDEST STOP JUMPDEST PUSH2 0xF8 PUSH2 0x50E JUMP JUMPDEST STOP JUMPDEST PUSH2 0x114 PUSH1 0x4 DUP1 CALLDATASIZE SUB DUP2 ADD SWAP1 PUSH2 0x10F SWAP2 SWAP1 PUSH2 0xF03 JUMP JUMPDEST PUSH2 0x521 JUMP JUMPDEST STOP JUMPDEST PUSH2 0x11E PUSH2 0x869 JUMP JUMPDEST PUSH1 0x40 MLOAD PUSH2 0x12B SWAP2 SWAP1 PUSH2 0xEBC JUMP JUMPDEST PUSH1 0x40 MLOAD DUP1 SWAP2 SUB SWAP1 RETURN JUMPDEST PUSH2 0x13C PUSH2 0x86F JUMP JUMPDEST PUSH1 0x40 MLOAD PUSH2 0x149 SWAP2 SWAP1 PUSH2 0xFA8 JUMP JUMPDEST PUSH1 0x40 MLOAD DUP1 SWAP2 SUB SWAP1 RETURN JUMPDEST PUSH2 0x16C PUSH1 0x4 DUP1 CALLDATASIZE SUB DUP2 ADD SWAP1 PUSH2 0x167 SWAP2 SWAP1 PUSH2 0xF03 JUMP JUMPDEST PUSH2 0x894 JUMP JUMPDEST STOP JUMPDEST PUSH2 0x176 PUSH2 0x928 JUMP JUMPDEST PUSH1 0x40 MLOAD PUSH2 0x183 SWAP2 SWAP1 PUSH2 0xFE1 JUMP JUMPDEST PUSH1 0x40 MLOAD DUP1 SWAP2 SUB SWAP1 RETURN JUMPDEST PUSH2 0x194 PUSH2 0x94F JUMP JUMPDEST PUSH1 0x40 MLOAD PUSH2 0x1A1 SWAP2 SWAP1 PUSH2 0xEBC JUMP JUMPDEST PUSH1 0x40 MLOAD DUP1 SWAP2 SUB SWAP1 RETURN JUMPDEST PUSH2 0x1B2 PUSH2 0x9EE JUMP JUMPDEST PUSH1 0x40 MLOAD PUSH2 0x1BF SWAP2 SWAP1 PUSH2 0xFA8 JUMP JUMPDEST PUSH1 0x40 MLOAD DUP1 SWAP2 SUB SWAP1 RETURN JUMPDEST PUSH2 0x1E2 PUSH1 0x4 DUP1 CALLDATASIZE SUB DUP2 ADD SWAP1 PUSH2 0x1DD SWAP2 SWAP1 PUSH2 0xF03 JUMP JUMPDEST PUSH2 0xA13 JUMP JUMPDEST STOP JUMPDEST PUSH2 0x1FE PUSH1 0x4 DUP1 CALLDATASIZE SUB DUP2 ADD SWAP1 PUSH2 0x1F9 SWAP2 SWAP1 PUSH2 0x1024 JUMP JUMPDEST PUSH2 0xC82 JUMP JUMPDEST STOP JUMPDEST PUSH0 PUSH1 0x2 PUSH0 SWAP1 SLOAD SWAP1 PUSH2 0x100 EXP SWAP1 DIV PUSH20 0xFFFFFFFFFFFFFFFFFFFFFFFFFFFFFFFFFFFFFFFF AND PUSH20 0xFFFFFFFFFFFFFFFFFFFFFFFFFFFFFFFFFFFFFFFF AND PUSH4 0x70A08231 ADDRESS PUSH1 0x40 MLOAD DUP3 PUSH4 0xFFFFFFFF AND PUSH1 0xE0 SHL DUP2 MSTORE PUSH1 0x4 ADD PUSH2 0x25B SWAP2 SWAP1 PUSH2 0xFE1 JUMP JUMPDEST PUSH1 0x20 PUSH1 0x40 MLOAD DUP1 DUP4 SUB DUP2 DUP7 GAS STATICCALL ISZERO DUP1 ISZERO PUSH2 0x276 JUMPI RETURNDATASIZE PUSH0 DUP1 RETURNDATACOPY RETURNDATASIZE PUSH0 REVERT JUMPDEST POP POP POP POP PUSH1 0x40 MLOAD RETURNDATASIZE PUSH1 0x1F NOT PUSH1 0x1F DUP3 ADD AND DUP3 ADD DUP1 PUSH1 0x40 MSTORE POP DUP2 ADD SWAP1 PUSH2 0x29A SWAP2 SWAP1 PUSH2 0x1063 JUMP JUMPDEST SWAP1 POP SWAP1 JUMP JUMPDEST PUSH2 0x2A7 PUSH2 0xD06 JUMP JUMPDEST PUSH2 0x2AF PUSH2 0xD8D JUMP JUMPDEST PUSH0 DUP2 GT PUSH2 0x2F1 JUMPI PUSH1 0x40 MLOAD PUSH32 0x8C379A000000000000000000000000000000000000000000000000000000000 DUP2 MSTORE PUSH1 0x4 ADD PUSH2 0x2E8 SWAP1 PUSH2 0x10E8 JUMP JUMPDEST PUSH1 0x40 MLOAD DUP1 SWAP2 SUB SWAP1 REVERT JUMPDEST DUP1 PUSH1 0x3 PUSH0 SWAP1 SLOAD SWAP1 PUSH2 0x100 EXP SWAP1 DIV PUSH20 0xFFFFFFFFFFFFFFFFFFFFFFFFFFFFFFFFFFFFFFFF AND PUSH20 0xFFFFFFFFFFFFFFFFFFFFFFFFFFFFFFFFFFFFFFFF AND PUSH4 0x70A08231 ADDRESS PUSH1 0x40 MLOAD DUP3 PUSH4 0xFFFFFFFF AND PUSH1 0xE0 SHL DUP2 MSTORE PUSH1 0x4 ADD PUSH2 0x34C SWAP2 SWAP1 PUSH2 0xFE1 JUMP JUMPDEST PUSH1 0x20 PUSH1 0x40 MLOAD DUP1 DUP4 SUB DUP2 DUP7 GAS STATICCALL ISZERO DUP1 ISZERO PUSH2 0x367 JUMPI RETURNDATASIZE PUSH0 DUP1 RETURNDATACOPY RETURNDATASIZE PUSH0 REVERT JUMPDEST POP POP POP POP PUSH1 0x40 MLOAD RETURNDATASIZE PUSH1 0x1F NOT PUSH1 0x1F DUP3 ADD AND DUP3 ADD DUP1 PUSH1 0x40 MSTORE POP DUP2 ADD SWAP1 PUSH2 0x38B SWAP2 SWAP1 PUSH2 0x1063 JUMP JUMPDEST LT ISZERO PUSH2 0x3CC JUMPI PUSH1 0x40 MLOAD PUSH32 0x8C379A000000000000000000000000000000000000000000000000000000000 DUP2 MSTORE PUSH1 0x4 ADD PUSH2 0x3C3 SWAP1 PUSH2 0x1150 JUMP JUMPDEST PUSH1 0x40 MLOAD DUP1 SWAP2 SUB SWAP1 REVERT JUMPDEST PUSH1 0x3 PUSH0 SWAP1 SLOAD SWAP1 PUSH2 0x100 EXP SWAP1 DIV PUSH20 0xFFFFFFFFFFFFFFFFFFFFFFFFFFFFFFFFFFFFFFFF AND PUSH20 0xFFFFFFFFFFFFFFFFFFFFFFFFFFFFFFFFFFFFFFFF AND PUSH4 0xA9059CBB PUSH2 0x411 PUSH2 0x928 JUMP JUMPDEST DUP4 PUSH1 0x40 MLOAD DUP4 PUSH4 0xFFFFFFFF AND PUSH1 0xE0 SHL DUP2 MSTORE PUSH1 0x4 ADD PUSH2 0x42F SWAP3 SWAP2 SWAP1 PUSH2 0x116E JUMP JUMPDEST PUSH1 0x20 PUSH1 0x40 MLOAD DUP1 DUP4 SUB DUP2 PUSH0 DUP8 GAS CALL ISZERO DUP1 ISZERO PUSH2 0x44B JUMPI RETURNDATASIZE PUSH0 DUP1 RETURNDATACOPY RETURNDATASIZE PUSH0 REVERT JUMPDEST POP POP POP POP PUSH1 0x40 MLOAD RETURNDATASIZE PUSH1 0x1F NOT PUSH1 0x1F DUP3 ADD AND DUP3 ADD DUP1 PUSH1 0x40 MSTORE POP DUP2 ADD SWAP1 PUSH2 0x46F SWAP2 SWAP1 PUSH2 0x11CA JUMP JUMPDEST PUSH2 0x4AE JUMPI PUSH1 0x40 MLOAD PUSH32 0x8C379A000000000000000000000000000000000000000000000000000000000 DUP2 MSTORE PUSH1 0x4 ADD PUSH2 0x4A5 SWAP1 PUSH2 0x123F JUMP JUMPDEST PUSH1 0x40 MLOAD DUP1 SWAP2 SUB SWAP1 REVERT JUMPDEST PUSH2 0x4B6 PUSH2 0x928 JUMP JUMPDEST PUSH20 0xFFFFFFFFFFFFFFFFFFFFFFFFFFFFFFFFFFFFFFFF AND PUSH32 0xB0BD88CDAE83F74F918EB6BF26D99DCB3C1530530F339233B029E3B6A00AC50B DUP3 PUSH1 0x40 MLOAD PUSH2 0x4FB SWAP2 SWAP1 PUSH2 0xEBC JUMP JUMPDEST PUSH1 0x40 MLOAD DUP1 SWAP2 SUB SWAP1 LOG2 PUSH2 0x50B PUSH2 0xDD3 JUMP JUMPDEST POP JUMP JUMPDEST PUSH2 0x516 PUSH2 0xD06 JUMP JUMPDEST PUSH2 0x51F PUSH0 PUSH2 0xDDC JUMP JUMPDEST JUMP JUMPDEST PUSH2 0x529 PUSH2 0xD8D JUMP JUMPDEST PUSH0 DUP2 GT PUSH2 0x56B JUMPI PUSH1 0x40 MLOAD PUSH32 0x8C379A000000000000000000000000000000000000000000000000000000000 DUP2 MSTORE PUSH1 0x4 ADD PUSH2 0x562 SWAP1 PUSH2 0x10E8 JUMP JUMPDEST PUSH1 0x40 MLOAD DUP1 SWAP2 SUB SWAP1 REVERT JUMPDEST DUP1 PUSH1 0x2 PUSH0 SWAP1 SLOAD SWAP1 PUSH2 0x100 EXP SWAP1 DIV PUSH20 0xFFFFFFFFFFFFFFFFFFFFFFFFFFFFFFFFFFFFFFFF AND PUSH20 0xFFFFFFFFFFFFFFFFFFFFFFFFFFFFFFFFFFFFFFFF AND PUSH4 0x70A08231 ADDRESS PUSH1 0x40 MLOAD DUP3 PUSH4 0xFFFFFFFF AND PUSH1 0xE0 SHL DUP2 MSTORE PUSH1 0x4 ADD PUSH2 0x5C6 SWAP2 SWAP1 PUSH2 0xFE1 JUMP JUMPDEST PUSH1 0x20 PUSH1 0x40 MLOAD DUP1 DUP4 SUB DUP2 DUP7 GAS STATICCALL ISZERO DUP1 ISZERO PUSH2 0x5E1 JUMPI RETURNDATASIZE PUSH0 DUP1 RETURNDATACOPY RETURNDATASIZE PUSH0 REVERT JUMPDEST POP POP POP POP PUSH1 0x40 MLOAD RETURNDATASIZE PUSH1 0x1F NOT PUSH1 0x1F DUP3 ADD AND DUP3 ADD DUP1 PUSH1 0x40 MSTORE POP DUP2 ADD SWAP1 PUSH2 0x605 SWAP2 SWAP1 PUSH2 0x1063 JUMP JUMPDEST LT ISZERO PUSH2 0x646 JUMPI PUSH1 0x40 MLOAD PUSH32 0x8C379A000000000000000000000000000000000000000000000000000000000 DUP2 MSTORE PUSH1 0x4 ADD PUSH2 0x63D SWAP1 PUSH2 0x12CD JUMP JUMPDEST PUSH1 0x40 MLOAD DUP1 SWAP2 SUB SWAP1 REVERT JUMPDEST PUSH0 PUSH1 0x4 SLOAD DUP3 PUSH2 0x655 SWAP2 SWAP1 PUSH2 0x1318 JUMP JUMPDEST SWAP1 POP PUSH1 0x3 PUSH0 SWAP1 SLOAD SWAP1 PUSH2 0x100 EXP SWAP1 DIV PUSH20 0xFFFFFFFFFFFFFFFFFFFFFFFFFFFFFFFFFFFFFFFF AND PUSH20 0xFFFFFFFFFFFFFFFFFFFFFFFFFFFFFFFFFFFFFFFF AND PUSH4 0x23B872DD CALLER ADDRESS DUP6 PUSH1 0x40 MLOAD DUP5 PUSH4 0xFFFFFFFF AND PUSH1 0xE0 SHL DUP2 MSTORE PUSH1 0x4 ADD PUSH2 0x6B5 SWAP4 SWAP3 SWAP2 SWAP1 PUSH2 0x1348 JUMP JUMPDEST PUSH1 0x20 PUSH1 0x40 MLOAD DUP1 DUP4 SUB DUP2 PUSH0 DUP8 GAS CALL ISZERO DUP1 ISZERO PUSH2 0x6D1 JUMPI RETURNDATASIZE PUSH0 DUP1 RETURNDATACOPY RETURNDATASIZE PUSH0 REVERT JUMPDEST POP POP POP POP PUSH1 0x40 MLOAD RETURNDATASIZE PUSH1 0x1F NOT PUSH1 0x1F DUP3 ADD AND DUP3 ADD DUP1 PUSH1 0x40 MSTORE POP DUP2 ADD SWAP1 PUSH2 0x6F5 SWAP2 SWAP1 PUSH2 0x11CA JUMP JUMPDEST PUSH2 0x734 JUMPI PUSH1 0x40 MLOAD PUSH32 0x8C379A000000000000000000000000000000000000000000000000000000000 DUP2 MSTORE PUSH1 0x4 ADD PUSH2 0x72B SWAP1 PUSH2 0x13C7 JUMP JUMPDEST PUSH1 0x40 MLOAD DUP1 SWAP2 SUB SWAP1 REVERT JUMPDEST PUSH1 0x2 PUSH0 SWAP1 SLOAD SWAP1 PUSH2 0x100 EXP SWAP1 DIV PUSH20 0xFFFFFFFFFFFFFFFFFFFFFFFFFFFFFFFFFFFFFFFF AND PUSH20 0xFFFFFFFFFFFFFFFFFFFFFFFFFFFFFFFFFFFFFFFF AND PUSH4 0xA9059CBB CALLER DUP4 PUSH1 0x40 MLOAD DUP4 PUSH4 0xFFFFFFFF AND PUSH1 0xE0 SHL DUP2 MSTORE PUSH1 0x4 ADD PUSH2 0x790 SWAP3 SWAP2 SWAP1 PUSH2 0x116E JUMP JUMPDEST PUSH1 0x20 PUSH1 0x40 MLOAD DUP1 DUP4 SUB DUP2 PUSH0 DUP8 GAS CALL ISZERO DUP1 ISZERO PUSH2 0x7AC JUMPI RETURNDATASIZE PUSH0 DUP1 RETURNDATACOPY RETURNDATASIZE PUSH0 REVERT JUMPDEST POP POP POP POP PUSH1 0x40 MLOAD RETURNDATASIZE PUSH1 0x1F NOT PUSH1 0x1F DUP3 ADD AND DUP3 ADD DUP1 PUSH1 0x40 MSTORE POP DUP2 ADD SWAP1 PUSH2 0x7D0 SWAP2 SWAP1 PUSH2 0x11CA JUMP JUMPDEST PUSH2 0x80F JUMPI PUSH1 0x40 MLOAD PUSH32 0x8C379A000000000000000000000000000000000000000000000000000000000 DUP2 MSTORE PUSH1 0x4 ADD PUSH2 0x806 SWAP1 PUSH2 0x142F JUMP JUMPDEST PUSH1 0x40 MLOAD DUP1 SWAP2 SUB SWAP1 REVERT JUMPDEST CALLER PUSH20 0xFFFFFFFFFFFFFFFFFFFFFFFFFFFFFFFFFFFFFFFF AND PUSH32 0x8F28852646C20CC973D3A8218F7EEFED58C25C909F78F0265AF4818C3D4DC271 DUP3 PUSH1 0x40 MLOAD PUSH2 0x855 SWAP2 SWAP1 PUSH2 0xEBC JUMP JUMPDEST PUSH1 0x40 MLOAD DUP1 SWAP2 SUB SWAP1 LOG2 POP PUSH2 0x866 PUSH2 0xDD3 JUMP JUMPDEST POP JUMP JUMPDEST PUSH1 0x4 SLOAD DUP2 JUMP JUMPDEST PUSH1 0x2 PUSH0 SWAP1 SLOAD SWAP1 PUSH2 0x100 EXP SWAP1 DIV PUSH20 0xFFFFFFFFFFFFFFFFFFFFFFFFFFFFFFFFFFFFFFFF AND DUP2 JUMP JUMPDEST PUSH2 0x89C PUSH2 0xD06 JUMP JUMPDEST PUSH0 DUP2 GT PUSH2 0x8DE JUMPI PUSH1 0x40 MLOAD PUSH32 0x8C379A000000000000000000000000000000000000000000000000000000000 DUP2 MSTORE PUSH1 0x4 ADD PUSH2 0x8D5 SWAP1 PUSH2 0x1497 JUMP JUMPDEST PUSH1 0x40 MLOAD DUP1 SWAP2 SUB SWAP1 REVERT JUMPDEST PUSH0 PUSH1 0x4 SLOAD SWAP1 POP DUP2 PUSH1 0x4 DUP2 SWAP1 SSTORE POP PUSH32 0xD9CC159FA79112D02593601DB522A6696E6C5C82D9E9CA9332F89EC824935BB0 DUP2 DUP4 PUSH1 0x40 MLOAD PUSH2 0x91C SWAP3 SWAP2 SWAP1 PUSH2 0x14B5 JUMP JUMPDEST PUSH1 0x40 MLOAD DUP1 SWAP2 SUB SWAP1 LOG1 POP POP JUMP JUMPDEST PUSH0 DUP1 PUSH0 SWAP1 SLOAD SWAP1 PUSH2 0x100 EXP SWAP1 DIV PUSH20 0xFFFFFFFFFFFFFFFFFFFFFFFFFFFFFFFFFFFFFFFF AND SWAP1 POP SWAP1 JUMP JUMPDEST PUSH0 PUSH1 0x3 PUSH0 SWAP1 SLOAD SWAP1 PUSH2 0x100 EXP SWAP1 DIV PUSH20 0xFFFFFFFFFFFFFFFFFFFFFFFFFFFFFFFFFFFFFFFF AND PUSH20 0xFFFFFFFFFFFFFFFFFFFFFFFFFFFFFFFFFFFFFFFF AND PUSH4 0x70A08231 ADDRESS PUSH1 0x40 MLOAD DUP3 PUSH4 0xFFFFFFFF AND PUSH1 0xE0 SHL DUP2 MSTORE PUSH1 0x4 ADD PUSH2 0x9AA SWAP2 SWAP1 PUSH2 0xFE1 JUMP JUMPDEST PUSH1 0x20 PUSH1 0x40 MLOAD DUP1 DUP4 SUB DUP2 DUP7 GAS STATICCALL ISZERO DUP1 ISZERO PUSH2 0x9C5 JUMPI RETURNDATASIZE PUSH0 DUP1 RETURNDATACOPY RETURNDATASIZE PUSH0 REVERT JUMPDEST POP POP POP POP PUSH1 0x40 MLOAD RETURNDATASIZE PUSH1 0x1F NOT PUSH1 0x1F DUP3 ADD AND DUP3 ADD DUP1 PUSH1 0x40 MSTORE POP DUP2 ADD SWAP1 PUSH2 0x9E9 SWAP2 SWAP1 PUSH2 0x1063 JUMP JUMPDEST SWAP1 POP SWAP1 JUMP JUMPDEST PUSH1 0x3 PUSH0 SWAP1 SLOAD SWAP1 PUSH2 0x100 EXP SWAP1 DIV PUSH20 0xFFFFFFFFFFFFFFFFFFFFFFFFFFFFFFFFFFFFFFFF AND DUP2 JUMP JUMPDEST PUSH2 0xA1B PUSH2 0xD06 JUMP JUMPDEST PUSH2 0xA23 PUSH2 0xD8D JUMP JUMPDEST PUSH0 DUP2 GT PUSH2 0xA65 JUMPI PUSH1 0x40 MLOAD PUSH32 0x8C379A000000000000000000000000000000000000000000000000000000000 DUP2 MSTORE PUSH1 0x4 ADD PUSH2 0xA5C SWAP1 PUSH2 0x10E8 JUMP JUMPDEST PUSH1 0x40 MLOAD DUP1 SWAP2 SUB SWAP1 REVERT JUMPDEST DUP1 PUSH1 0x2 PUSH0 SWAP1 SLOAD SWAP1 PUSH2 0x100 EXP SWAP1 DIV PUSH20 0xFFFFFFFFFFFFFFFFFFFFFFFFFFFFFFFFFFFFFFFF AND PUSH20 0xFFFFFFFFFFFFFFFFFFFFFFFFFFFFFFFFFFFFFFFF AND PUSH4 0x70A08231 ADDRESS PUSH1 0x40 MLOAD DUP3 PUSH4 0xFFFFFFFF AND PUSH1 0xE0 SHL DUP2 MSTORE PUSH1 0x4 ADD PUSH2 0xAC0 SWAP2 SWAP1 PUSH2 0xFE1 JUMP JUMPDEST PUSH1 0x20 PUSH1 0x40 MLOAD DUP1 DUP4 SUB DUP2 DUP7 GAS STATICCALL ISZERO DUP1 ISZERO PUSH2 0xADB JUMPI RETURNDATASIZE PUSH0 DUP1 RETURNDATACOPY RETURNDATASIZE PUSH0 REVERT JUMPDEST POP POP POP POP PUSH1 0x40 MLOAD RETURNDATASIZE PUSH1 0x1F NOT PUSH1 0x1F DUP3 ADD AND DUP3 ADD DUP1 PUSH1 0x40 MSTORE POP DUP2 ADD SWAP1 PUSH2 0xAFF SWAP2 SWAP1 PUSH2 0x1063 JUMP JUMPDEST LT ISZERO PUSH2 0xB40 JUMPI PUSH1 0x40 MLOAD PUSH32 0x8C379A000000000000000000000000000000000000000000000000000000000 DUP2 MSTORE PUSH1 0x4 ADD PUSH2 0xB37 SWAP1 PUSH2 0x154C JUMP JUMPDEST PUSH1 0x40 MLOAD DUP1 SWAP2 SUB SWAP1 REVERT JUMPDEST PUSH1 0x2 PUSH0 SWAP1 SLOAD SWAP1 PUSH2 0x100 EXP SWAP1 DIV PUSH20 0xFFFFFFFFFFFFFFFFFFFFFFFFFFFFFFFFFFFFFFFF AND PUSH20 0xFFFFFFFFFFFFFFFFFFFFFFFFFFFFFFFFFFFFFFFF AND PUSH4 0xA9059CBB PUSH2 0xB85 PUSH2 0x928 JUMP JUMPDEST DUP4 PUSH1 0x40 MLOAD DUP4 PUSH4 0xFFFFFFFF AND PUSH1 0xE0 SHL DUP2 MSTORE PUSH1 0x4 ADD PUSH2 0xBA3 SWAP3 SWAP2 SWAP1 PUSH2 0x116E JUMP JUMPDEST PUSH1 0x20 PUSH1 0x40 MLOAD DUP1 DUP4 SUB DUP2 PUSH0 DUP8 GAS CALL ISZERO DUP1 ISZERO PUSH2 0xBBF JUMPI RETURNDATASIZE PUSH0 DUP1 RETURNDATACOPY RETURNDATASIZE PUSH0 REVERT JUMPDEST POP POP POP POP PUSH1 0x40 MLOAD RETURNDATASIZE PUSH1 0x1F NOT PUSH1 0x1F DUP3 ADD AND DUP3 ADD DUP1 PUSH1 0x40 MSTORE POP DUP2 ADD SWAP1 PUSH2 0xBE3 SWAP2 SWAP1 PUSH2 0x11CA JUMP JUMPDEST PUSH2 0xC22 JUMPI PUSH1 0x40 MLOAD PUSH32 0x8C379A000000000000000000000000000000000000000000000000000000000 DUP2 MSTORE PUSH1 0x4 ADD PUSH2 0xC19 SWAP1 PUSH2 0x15B4 JUMP JUMPDEST PUSH1 0x40 MLOAD DUP1 SWAP2 SUB SWAP1 REVERT JUMPDEST PUSH2 0xC2A PUSH2 0x928 JUMP JUMPDEST PUSH20 0xFFFFFFFFFFFFFFFFFFFFFFFFFFFFFFFFFFFFFFFF AND PUSH32 0x6352C5382C4A4578E712449CA65E83CDB392D045DFCF1CAD9615189DB2DA244B DUP3 PUSH1 0x40 MLOAD PUSH2 0xC6F SWAP2 SWAP1 PUSH2 0xEBC JUMP JUMPDEST PUSH1 0x40 MLOAD DUP1 SWAP2 SUB SWAP1 LOG2 PUSH2 0xC7F PUSH2 0xDD3 JUMP JUMPDEST POP JUMP JUMPDEST PUSH2 0xC8A PUSH2 0xD06 JUMP JUMPDEST PUSH0 PUSH20 0xFFFFFFFFFFFFFFFFFFFFFFFFFFFFFFFFFFFFFFFF AND DUP2 PUSH20 0xFFFFFFFFFFFFFFFFFFFFFFFFFFFFFFFFFFFFFFFF AND SUB PUSH2 0xCFA JUMPI PUSH0 PUSH1 0x40 MLOAD PUSH32 0x1E4FBDF700000000000000000000000000000000000000000000000000000000 DUP2 MSTORE PUSH1 0x4 ADD PUSH2 0xCF1 SWAP2 SWAP1 PUSH2 0xFE1 JUMP JUMPDEST PUSH1 0x40 MLOAD DUP1 SWAP2 SUB SWAP1 REVERT JUMPDEST PUSH2 0xD03 DUP2 PUSH2 0xDDC JUMP JUMPDEST POP JUMP JUMPDEST PUSH2 0xD0E PUSH2 0xE9D JUMP JUMPDEST PUSH20 0xFFFFFFFFFFFFFFFFFFFFFFFFFFFFFFFFFFFFFFFF AND PUSH2 0xD2C PUSH2 0x928 JUMP JUMPDEST PUSH20 0xFFFFFFFFFFFFFFFFFFFFFFFFFFFFFFFFFFFFFFFF AND EQ PUSH2 0xD8B JUMPI PUSH2 0xD4F PUSH2 0xE9D JUMP JUMPDEST PUSH1 0x40 MLOAD PUSH32 0x118CDAA700000000000000000000000000000000000000000000000000000000 DUP2 MSTORE PUSH1 0x4 ADD PUSH2 0xD82 SWAP2 SWAP1 PUSH2 0xFE1 JUMP JUMPDEST PUSH1 0x40 MLOAD DUP1 SWAP2 SUB SWAP1 REVERT JUMPDEST JUMP JUMPDEST PUSH1 0x2 PUSH1 0x1 SLOAD SUB PUSH2 0xDC9 JUMPI PUSH1 0x40 MLOAD PUSH32 0x3EE5AEB500000000000000000000000000000000000000000000000000000000 DUP2 MSTORE PUSH1 0x4 ADD PUSH1 0x40 MLOAD DUP1 SWAP2 SUB SWAP1 REVERT JUMPDEST PUSH1 0x2 PUSH1 0x1 DUP2 SWAP1 SSTORE POP JUMP JUMPDEST PUSH1 0x1 DUP1 DUP2 SWAP1 SSTORE POP JUMP JUMPDEST PUSH0 DUP1 PUSH0 SWAP1 SLOAD SWAP1 PUSH2 0x100 EXP SWAP1 DIV PUSH20 0xFFFFFFFFFFFFFFFFFFFFFFFFFFFFFFFFFFFFFFFF AND SWAP1 POP DUP2 PUSH0 DUP1 PUSH2 0x100 EXP DUP2 SLOAD DUP2 PUSH20 0xFFFFFFFFFFFFFFFFFFFFFFFFFFFFFFFFFFFFFFFF MUL NOT AND SWAP1 DUP4 PUSH20 0xFFFFFFFFFFFFFFFFFFFFFFFFFFFFFFFFFFFFFFFF AND MUL OR SWAP1 SSTORE POP DUP2 PUSH20 0xFFFFFFFFFFFFFFFFFFFFFFFFFFFFFFFFFFFFFFFF AND DUP2 PUSH20 0xFFFFFFFFFFFFFFFFFFFFFFFFFFFFFFFFFFFFFFFF AND PUSH32 0x8BE0079C531659141344CD1FD0A4F28419497F9722A3DAAFE3B4186F6B6457E0 PUSH1 0x40 MLOAD PUSH1 0x40 MLOAD DUP1 SWAP2 SUB SWAP1 LOG3 POP POP JUMP JUMPDEST PUSH0 CALLER SWAP1 POP SWAP1 JUMP JUMPDEST PUSH0 DUP2 SWAP1 POP SWAP2 SWAP1 POP JUMP JUMPDEST PUSH2 0xEB6 DUP2 PUSH2 0xEA4 JUMP JUMPDEST DUP3 MSTORE POP POP JUMP JUMPDEST PUSH0 PUSH1 0x20 DUP3 ADD SWAP1 POP PUSH2 0xECF PUSH0 DUP4 ADD DUP5 PUSH2 0xEAD JUMP JUMPDEST SWAP3 SWAP2 POP POP JUMP JUMPDEST PUSH0 DUP1 REVERT JUMPDEST PUSH2 0xEE2 DUP2 PUSH2 0xEA4 JUMP JUMPDEST DUP2 EQ PUSH2 0xEEC JUMPI PUSH0 DUP1 REVERT JUMPDEST POP JUMP JUMPDEST PUSH0 DUP2 CALLDATALOAD SWAP1 POP PUSH2 0xEFD DUP2 PUSH2 0xED9 JUMP JUMPDEST SWAP3 SWAP2 POP POP JUMP JUMPDEST PUSH0 PUSH1 0x20 DUP3 DUP5 SUB SLT ISZERO PUSH2 0xF18 JUMPI PUSH2 0xF17 PUSH2 0xED5 JUMP JUMPDEST JUMPDEST PUSH0 PUSH2 0xF25 DUP5 DUP3 DUP6 ADD PUSH2 0xEEF JUMP JUMPDEST SWAP2 POP POP SWAP3 SWAP2 POP POP JUMP JUMPDEST PUSH0 PUSH20 0xFFFFFFFFFFFFFFFFFFFFFFFFFFFFFFFFFFFFFFFF DUP3 AND SWAP1 POP SWAP2 SWAP1 POP JUMP JUMPDEST PUSH0 DUP2 SWAP1 POP SWAP2 SWAP1 POP JUMP JUMPDEST PUSH0 PUSH2 0xF70 PUSH2 0xF6B PUSH2 0xF66 DUP5 PUSH2 0xF2E JUMP JUMPDEST PUSH2 0xF4D JUMP JUMPDEST PUSH2 0xF2E JUMP JUMPDEST SWAP1 POP SWAP2 SWAP1 POP JUMP JUMPDEST PUSH0 PUSH2 0xF81 DUP3 PUSH2 0xF56 JUMP JUMPDEST SWAP1 POP SWAP2 SWAP1 POP JUMP JUMPDEST PUSH0 PUSH2 0xF92 DUP3 PUSH2 0xF77 JUMP JUMPDEST SWAP1 POP SWAP2 SWAP1 POP JUMP JUMPDEST PUSH2 0xFA2 DUP2 PUSH2 0xF88 JUMP JUMPDEST DUP3 MSTORE POP POP JUMP JUMPDEST PUSH0 PUSH1 0x20 DUP3 ADD SWAP1 POP PUSH2 0xFBB PUSH0 DUP4 ADD DUP5 PUSH2 0xF99 JUMP JUMPDEST SWAP3 SWAP2 POP POP JUMP JUMPDEST PUSH0 PUSH2 0xFCB DUP3 PUSH2 0xF2E JUMP JUMPDEST SWAP1 POP SWAP2 SWAP1 POP JUMP JUMPDEST PUSH2 0xFDB DUP2 PUSH2 0xFC1 JUMP JUMPDEST DUP3 MSTORE POP POP JUMP JUMPDEST PUSH0 PUSH1 0x20 DUP3 ADD SWAP1 POP PUSH2 0xFF4 PUSH0 DUP4 ADD DUP5 PUSH2 0xFD2 JUMP JUMPDEST SWAP3 SWAP2 POP POP JUMP JUMPDEST PUSH2 0x1003 DUP2 PUSH2 0xFC1 JUMP JUMPDEST DUP2 EQ PUSH2 0x100D JUMPI PUSH0 DUP1 REVERT JUMPDEST POP JUMP JUMPDEST PUSH0 DUP2 CALLDATALOAD SWAP1 POP PUSH2 0x101E DUP2 PUSH2 0xFFA JUMP JUMPDEST SWAP3 SWAP2 POP POP JUMP JUMPDEST PUSH0 PUSH1 0x20 DUP3 DUP5 SUB SLT ISZERO PUSH2 0x1039 JUMPI PUSH2 0x1038 PUSH2 0xED5 JUMP JUMPDEST JUMPDEST PUSH0 PUSH2 0x1046 DUP5 DUP3 DUP6 ADD PUSH2 0x1010 JUMP JUMPDEST SWAP2 POP POP SWAP3 SWAP2 POP POP JUMP JUMPDEST PUSH0 DUP2 MLOAD SWAP1 POP PUSH2 0x105D DUP2 PUSH2 0xED9 JUMP JUMPDEST SWAP3 SWAP2 POP POP JUMP JUMPDEST PUSH0 PUSH1 0x20 DUP3 DUP5 SUB SLT ISZERO PUSH2 0x1078 JUMPI PUSH2 0x1077 PUSH2 0xED5 JUMP JUMPDEST JUMPDEST PUSH0 PUSH2 0x1085 DUP5 DUP3 DUP6 ADD PUSH2 0x104F JUMP JUMPDEST SWAP2 POP POP SWAP3 SWAP2 POP POP JUMP JUMPDEST PUSH0 DUP3 DUP3 MSTORE PUSH1 0x20 DUP3 ADD SWAP1 POP SWAP3 SWAP2 POP POP JUMP JUMPDEST PUSH32 0x416D6F756E74206D7573742062652067726561746572207468616E2030000000 PUSH0 DUP3 ADD MSTORE POP JUMP JUMPDEST PUSH0 PUSH2 0x10D2 PUSH1 0x1D DUP4 PUSH2 0x108E JUMP JUMPDEST SWAP2 POP PUSH2 0x10DD DUP3 PUSH2 0x109E JUMP JUMPDEST PUSH1 0x20 DUP3 ADD SWAP1 POP SWAP2 SWAP1 POP JUMP JUMPDEST PUSH0 PUSH1 0x20 DUP3 ADD SWAP1 POP DUP2 DUP2 SUB PUSH0 DUP4 ADD MSTORE PUSH2 0x10FF DUP2 PUSH2 0x10C6 JUMP JUMPDEST SWAP1 POP SWAP2 SWAP1 POP JUMP JUMPDEST PUSH32 0x496E73756666696369656E7420555344542062616C616E636500000000000000 PUSH0 DUP3 ADD MSTORE POP JUMP JUMPDEST PUSH0 PUSH2 0x113A PUSH1 0x19 DUP4 PUSH2 0x108E JUMP JUMPDEST SWAP2 POP PUSH2 0x1145 DUP3 PUSH2 0x1106 JUMP JUMPDEST PUSH1 0x20 DUP3 ADD SWAP1 POP SWAP2 SWAP1 POP JUMP JUMPDEST PUSH0 PUSH1 0x20 DUP3 ADD SWAP1 POP DUP2 DUP2 SUB PUSH0 DUP4 ADD MSTORE PUSH2 0x1167 DUP2 PUSH2 0x112E JUMP JUMPDEST SWAP1 POP SWAP2 SWAP1 POP JUMP JUMPDEST PUSH0 PUSH1 0x40 DUP3 ADD SWAP1 POP PUSH2 0x1181 PUSH0 DUP4 ADD DUP6 PUSH2 0xFD2 JUMP JUMPDEST PUSH2 0x118E PUSH1 0x20 DUP4 ADD DUP5 PUSH2 0xEAD JUMP JUMPDEST SWAP4 SWAP3 POP POP POP JUMP JUMPDEST PUSH0 DUP2 ISZERO ISZERO SWAP1 POP SWAP2 SWAP1 POP JUMP JUMPDEST PUSH2 0x11A9 DUP2 PUSH2 0x1195 JUMP JUMPDEST DUP2 EQ PUSH2 0x11B3 JUMPI PUSH0 DUP1 REVERT JUMPDEST POP JUMP JUMPDEST PUSH0 DUP2 MLOAD SWAP1 POP PUSH2 0x11C4 DUP2 PUSH2 0x11A0 JUMP JUMPDEST SWAP3 SWAP2 POP POP JUMP JUMPDEST PUSH0 PUSH1 0x20 DUP3 DUP5 SUB SLT ISZERO PUSH2 0x11DF JUMPI PUSH2 0x11DE PUSH2 0xED5 JUMP JUMPDEST JUMPDEST PUSH0 PUSH2 0x11EC DUP5 DUP3 DUP6 ADD PUSH2 0x11B6 JUMP JUMPDEST SWAP2 POP POP SWAP3 SWAP2 POP POP JUMP JUMPDEST PUSH32 0x55534454207769746864726177616C206661696C656400000000000000000000 PUSH0 DUP3 ADD MSTORE POP JUMP JUMPDEST PUSH0 PUSH2 0x1229 PUSH1 0x16 DUP4 PUSH2 0x108E JUMP JUMPDEST SWAP2 POP PUSH2 0x1234 DUP3 PUSH2 0x11F5 JUMP JUMPDEST PUSH1 0x20 DUP3 ADD SWAP1 POP SWAP2 SWAP1 POP JUMP JUMPDEST PUSH0 PUSH1 0x20 DUP3 ADD SWAP1 POP DUP2 DUP2 SUB PUSH0 DUP4 ADD MSTORE PUSH2 0x1256 DUP2 PUSH2 0x121D JUMP JUMPDEST SWAP1 POP SWAP2 SWAP1 POP JUMP JUMPDEST PUSH32 0x496E73756666696369656E74204E617275746F20746F6B656E7320696E20636F PUSH0 DUP3 ADD MSTORE PUSH32 0x6E74726163740000000000000000000000000000000000000000000000000000 PUSH1 0x20 DUP3 ADD MSTORE POP JUMP JUMPDEST PUSH0 PUSH2 0x12B7 PUSH1 0x26 DUP4 PUSH2 0x108E JUMP JUMPDEST SWAP2 POP PUSH2 0x12C2 DUP3 PUSH2 0x125D JUMP JUMPDEST PUSH1 0x40 DUP3 ADD SWAP1 POP SWAP2 SWAP1 POP JUMP JUMPDEST PUSH0 PUSH1 0x20 DUP3 ADD SWAP1 POP DUP2 DUP2 SUB PUSH0 DUP4 ADD MSTORE PUSH2 0x12E4 DUP2 PUSH2 0x12AB JUMP JUMPDEST SWAP1 POP SWAP2 SWAP1 POP JUMP JUMPDEST PUSH32 0x4E487B7100000000000000000000000000000000000000000000000000000000 PUSH0 MSTORE PUSH1 0x12 PUSH1 0x4 MSTORE PUSH1 0x24 PUSH0 REVERT JUMPDEST PUSH0 PUSH2 0x1322 DUP3 PUSH2 0xEA4 JUMP JUMPDEST SWAP2 POP PUSH2 0x132D DUP4 PUSH2 0xEA4 JUMP JUMPDEST SWAP3 POP DUP3 PUSH2 0x133D JUMPI PUSH2 0x133C PUSH2 0x12EB JUMP JUMPDEST JUMPDEST DUP3 DUP3 DIV SWAP1 POP SWAP3 SWAP2 POP POP JUMP JUMPDEST PUSH0 PUSH1 0x60 DUP3 ADD SWAP1 POP PUSH2 0x135B PUSH0 DUP4 ADD DUP7 PUSH2 0xFD2 JUMP JUMPDEST PUSH2 0x1368 PUSH1 0x20 DUP4 ADD DUP6 PUSH2 0xFD2 JUMP JUMPDEST PUSH2 0x1375 PUSH1 0x40 DUP4 ADD DUP5 PUSH2 0xEAD JUMP JUMPDEST SWAP5 SWAP4 POP POP POP POP JUMP JUMPDEST PUSH32 0x55534454207472616E73666572206661696C6564000000000000000000000000 PUSH0 DUP3 ADD MSTORE POP JUMP JUMPDEST PUSH0 PUSH2 0x13B1 PUSH1 0x14 DUP4 PUSH2 0x108E JUMP JUMPDEST SWAP2 POP PUSH2 0x13BC DUP3 PUSH2 0x137D JUMP JUMPDEST PUSH1 0x20 DUP3 ADD SWAP1 POP SWAP2 SWAP1 POP JUMP JUMPDEST PUSH0 PUSH1 0x20 DUP3 ADD SWAP1 POP DUP2 DUP2 SUB PUSH0 DUP4 ADD MSTORE PUSH2 0x13DE DUP2 PUSH2 0x13A5 JUMP JUMPDEST SWAP1 POP SWAP2 SWAP1 POP JUMP JUMPDEST PUSH32 0x4E617275746F20746F6B656E207472616E73666572206661696C656400000000 PUSH0 DUP3 ADD MSTORE POP JUMP JUMPDEST PUSH0 PUSH2 0x1419 PUSH1 0x1C DUP4 PUSH2 0x108E JUMP JUMPDEST SWAP2 POP PUSH2 0x1424 DUP3 PUSH2 0x13E5 JUMP JUMPDEST PUSH1 0x20 DUP3 ADD SWAP1 POP SWAP2 SWAP1 POP JUMP JUMPDEST PUSH0 PUSH1 0x20 DUP3 ADD SWAP1 POP DUP2 DUP2 SUB PUSH0 DUP4 ADD MSTORE PUSH2 0x1446 DUP2 PUSH2 0x140D JUMP JUMPDEST SWAP1 POP SWAP2 SWAP1 POP JUMP JUMPDEST PUSH32 0x5072696365206D7573742062652067726561746572207468616E207A65726F00 PUSH0 DUP3 ADD MSTORE POP JUMP JUMPDEST PUSH0 PUSH2 0x1481 PUSH1 0x1F DUP4 PUSH2 0x108E JUMP JUMPDEST SWAP2 POP PUSH2 0x148C DUP3 PUSH2 0x144D JUMP JUMPDEST PUSH1 0x20 DUP3 ADD SWAP1 POP SWAP2 SWAP1 POP JUMP JUMPDEST PUSH0 PUSH1 0x20 DUP3 ADD SWAP1 POP DUP2 DUP2 SUB PUSH0 DUP4 ADD MSTORE PUSH2 0x14AE DUP2 PUSH2 0x1475 JUMP JUMPDEST SWAP1 POP SWAP2 SWAP1 POP JUMP JUMPDEST PUSH0 PUSH1 0x40 DUP3 ADD SWAP1 POP PUSH2 0x14C8 PUSH0 DUP4 ADD DUP6 PUSH2 0xEAD JUMP JUMPDEST PUSH2 0x14D5 PUSH1 0x20 DUP4 ADD DUP5 PUSH2 0xEAD JUMP JUMPDEST SWAP4 SWAP3 POP POP POP JUMP JUMPDEST PUSH32 0x496E73756666696369656E74204E617275746F20746F6B656E2062616C616E63 PUSH0 DUP3 ADD MSTORE PUSH32 0x6500000000000000000000000000000000000000000000000000000000000000 PUSH1 0x20 DUP3 ADD MSTORE POP JUMP JUMPDEST PUSH0 PUSH2 0x1536 PUSH1 0x21 DUP4 PUSH2 0x108E JUMP JUMPDEST SWAP2 POP PUSH2 0x1541 DUP3 PUSH2 0x14DC JUMP JUMPDEST PUSH1 0x40 DUP3 ADD SWAP1 POP SWAP2 SWAP1 POP JUMP JUMPDEST PUSH0 PUSH1 0x20 DUP3 ADD SWAP1 POP DUP2 DUP2 SUB PUSH0 DUP4 ADD MSTORE PUSH2 0x1563 DUP2 PUSH2 0x152A JUMP JUMPDEST SWAP1 POP SWAP2 SWAP1 POP JUMP JUMPDEST PUSH32 0x4E617275746F20746F6B656E207769746864726177616C206661696C65640000 PUSH0 DUP3 ADD MSTORE POP JUMP JUMPDEST PUSH0 PUSH2 0x159E PUSH1 0x1E DUP4 PUSH2 0x108E JUMP JUMPDEST SWAP2 POP PUSH2 0x15A9 DUP3 PUSH2 0x156A JUMP JUMPDEST PUSH1 0x20 DUP3 ADD SWAP1 POP SWAP2 SWAP1 POP JUMP JUMPDEST PUSH0 PUSH1 0x20 DUP3 ADD SWAP1 POP DUP2 DUP2 SUB PUSH0 DUP4 ADD MSTORE PUSH2 0x15CB DUP2 PUSH2 0x1592 JUMP JUMPDEST SWAP1 POP SWAP2 SWAP1 POP JUMP INVALID LOG2 PUSH5 0x6970667358 0x22 SLT KECCAK256 0xF8 CALLER NUMBER 0x25 PUSH5 0xC617255092 SWAP3 0xE7 PREVRANDAO 0xF8 0xFC STOP XOR 0xDA 0xBC 0x5C PUSH5 0xF85494967B LOG1 DUP5 KECCAK256 0xA7 0xE4 0xBD PUSH5 0x736F6C6343 STOP ADDMOD AND STOP CALLER "
				},
				"gasEstimates": {
					"creation": {
						"codeDepositCost": "1128000",
						"executionCost": "infinite",
						"totalCost": "infinite"
					},
					"external": {
						"getNarutoTokenBalance()": "infinite",
						"getUSDTBalance()": "infinite",
						"narutoToken()": "infinite",
						"owner()": "2537",
						"purchaseTokens(uint256)": "infinite",
						"renounceOwnership()": "infinite",
						"tokenPrice()": "2514",
						"transferOwnership(address)": "infinite",
						"updatePrice(uint256)": "infinite",
						"usdtToken()": "infinite",
						"withdrawNarutoTokens(uint256)": "infinite",
						"withdrawUSDT(uint256)": "infinite"
					}
				},
				"methodIdentifiers": {
					"getNarutoTokenBalance()": "0f09445f",
					"getUSDTBalance()": "9785fac8",
					"narutoToken()": "8b4cccb1",
					"owner()": "8da5cb5b",
					"purchaseTokens(uint256)": "7b97008d",
					"renounceOwnership()": "715018a6",
					"tokenPrice()": "7ff9b596",
					"transferOwnership(address)": "f2fde38b",
					"updatePrice(uint256)": "8d6cc56d",
					"usdtToken()": "a98ad46c",
					"withdrawNarutoTokens(uint256)": "b042ee53",
					"withdrawUSDT(uint256)": "3ea521ef"
				}
			},
			"storageLayout": {
				"storage": [
					{
						"astId": 8,
						"contract": "contracts/NarutoTokenSale.sol:NarutoTokenSale",
						"label": "_owner",
						"offset": 0,
						"slot": "0",
						"type": "t_address"
					},
					{
						"astId": 266,
						"contract": "contracts/NarutoTokenSale.sol:NarutoTokenSale",
						"label": "_status",
						"offset": 0,
						"slot": "1",
						"type": "t_uint256"
					},
					{
						"astId": 337,
						"contract": "contracts/NarutoTokenSale.sol:NarutoTokenSale",
						"label": "narutoToken",
						"offset": 0,
						"slot": "2",
						"type": "t_contract(IERC20)225"
					},
					{
						"astId": 340,
						"contract": "contracts/NarutoTokenSale.sol:NarutoTokenSale",
						"label": "usdtToken",
						"offset": 0,
						"slot": "3",
						"type": "t_contract(IERC20)225"
					},
					{
						"astId": 342,
						"contract": "contracts/NarutoTokenSale.sol:NarutoTokenSale",
						"label": "tokenPrice",
						"offset": 0,
						"slot": "4",
						"type": "t_uint256"
					}
				],
				"types": {
					"t_address": {
						"encoding": "inplace",
						"label": "address",
						"numberOfBytes": "20"
					},
					"t_contract(IERC20)225": {
						"encoding": "inplace",
						"label": "contract IERC20",
						"numberOfBytes": "20"
					},
					"t_uint256": {
						"encoding": "inplace",
						"label": "uint256",
						"numberOfBytes": "32"
					}
				}
			},
			"userdoc": {
				"kind": "user",
				"methods": {},
				"version": 1
			}
		}
	}
}